:04100000ECEF0BF016
:081008000C54656D702E204DA3
:1010100061783D0A4C757A2E204D696E3D000C5664
:10102000656C2E207669656E746F3D000C54656D9D
:10103000702E202043200A4D6F7420202020202075
:1010400020202020206C6D00202020200000202067
:1010500020200000EA6A3C0EE96EEF500EE00F0E11
:10106000016E006A002EFED7012EFBD78F0E006E98
:10107000002EFED70000EF2EF2D7120095948C942C
:1010800095928C923A5202E18C9001D08C8095908E
:101090003BA803D095968C8602D095968C963BAA59
:1010A00003D095988C8802D095988C983BAC03D04F
:1010B000959A8C8A02D0959A8C9A3BAE03D0959CD7
:1010C0008C8C02D0959C8C9C270E006E002EFED737
:1010D00000D095948C84010E3C6EBCDF95948C946A
:1010E000010E3C6EB7DF3BA003D095968C8602D0F4
:1010F00095968C963BA203D095988C8802D09598B3
:101100008C983BA403D0959A8C8A02D0959A8C9A9D
:101110003BA603D0959C8C8C02D0959C8C9C270E72
:10112000006E002EFED700D095948C84010E3C6E8C
:1011300091DF95948C94010E3C6E8CDF1200010EB1
:10114000385CFC0F13E2040FBBEF08F07F0E37246E
:10115000396E0CD0BF0E3724396E08D08F0E37246D
:10116000396E04D0CF0E3724396E00D03A6A39C0B8
:101170003BF084DF1200E824F76AF736970FF66E2B
:10118000110EF722000EF86EFB6E0A00F550FA6E93
:101190000800F550F96E4C1154115C116411320EB7
:1011A0003C6E58DF3A6A330E3B6E68DF3A6A320EA5
:1011B0003B6E64DF3A6A280E3B6E60DF3A6A0C0EC3
:1011C0003B6E5CDF3A6A010E3B6E58DF010E376EF4
:1011D000386EB5DF03EF0CF036500C0A03E0060A58
:1011E0000AE00ED03A6A010E3B6E48DF010E376E00
:1011F000386EA5DF0BD0376A020E386EA0DF06D03E
:10120000010E3A6E36C03BF039DF00D01200090003
:10121000F55210E0F6CF2AF0F7CF2BF0F8CF2CF0F4
:10122000F5CF36F0D9DF2AC0F6FF2BC0F7FF2CC070
:10123000F8FFEDD712000F0E2A6E94928B929268EF
:1012400080500F0B2A6E2A500F081AE094928B825E
:101250002A50070803E10A0E016E85D02A500B08B8
:1012600003E1030E016E7FD02A500D0803E1020E48
:10127000016E79D02A500E0803E1010E016E73D081
:1012800094928B8294908B90926880500F0B2A6E70
:101290002A500F081AE094908B802A50070803E127
:1012A0000B0E016E60D02A500B0803E1060E016E92
:1012B0005AD02A500D0803E1050E016E54D02A5071
:1012C0000E0803E1040E016E4ED094908B8094942E
:1012D0008B94926880500F0B2A6E2A500F081AE0E8
:1012E00094948B842A50070803E10C0E016E3BD0C6
:1012F0002A500B0803E1090E016E35D02A500D0863
:1013000003E1080E016E2FD02A500E0803E1070EEC
:10131000016E29D094948B8495928C92926880501F
:101320000F0B2A6E2A500F081AE095928C822A50D1
:10133000070803E10D0E016E16D02A500B0803E1D9
:101340000E0E016E10D02A500D0803E1000E016E42
:101350000AD02A500E0803E10F0E016E04D09592B8
:101360008C82800E016E37EF0CF02D50016A2C5CE0
:1013700003E22CC000F00CD0006A080E2E6E2C3652
:1013800000362D50005CD8B0006E01362E2EF7D7F7
:10139000120001502AC02CF0640E2D6EE6DF00C052
:1013A0002AF00150300E07E12BA20CD02BB60AD048
:1013B0002BB8200E03D02B962B982B80012601C032
:1013C00036F00ADF2AC02CF00A0E2D6ECEDF00C0E8
:1013D0002AF00150300E06E12BB608D02BA006D023
:1013E0002BB8200E012601C036F0F6DE300E2A267C
:1013F0002AC036F0F1DE73EF0CF02C502E02F3CF42
:1014000001F0F4CF00F02F02F35000262D502E02F1
:10141000F3500020026E12008E0E006E2BC001F001
:101420002AC002F0036A015209E102C001F0026A17
:10143000080E005E015202E1006A08D0D89001BE99
:1014400004D0023601360006F9D7019E9AEF0DF05E
:101450002E50D8B471D0006E3250D8B46DD0002662
:1014600004E3810E002668E204D07F0E005E64E390
:1014700063E02FC036F03350361A2F8E338E315042
:101480003502F4CF38F030503402F4CF03F0F3CF0C
:1014900037F03502F3503826F4503722000E03227D
:1014A00031503402F3503826F4503722000E026ACD
:1014B000032202222F503502F3503726F450032224
:1014C000000E02222F503402F3500326F450022261
:1014D000000E016A012231503302F3503726F450D6
:1014E0000322000E0222012230503302F350032661
:1014F000F4500222000E01222F503302F350022634
:10150000F4500122002A01BE05D0373603360236D8
:1015100001360006000E37AE0AD0032A022201224D
:10152000015005E1025003E1035001E1002A36BEFB
:10153000018E36AE019E04D0006A016A026A036A17
:1015400012008E0E006E2A50005E2BC002F02CC0DE
:1015500001F0028E005209E0D890025202E10152DD
:1015600004E002320132002EF7D72BAE05D0011E67
:10157000021E012AD8B4022AB2EF0DF0EACF32F0EF
:10158000E9CF31F02B38F0092D6E2D26E20F2E6EAB
:10159000320F306E2B500F0B2E262E263026E90FE1
:1015A0002F6E2F262F262A380F0B2F2630262F3668
:1015B0003036301E30362A500F0B30262D36070EAF
:1015C0002C6E0A0E2F063026FDE32E062F26FDE395
:1015D0002D062E26FDE32C062D26FDE3EA6A2C0EB1
:1015E000E96E070E3114319CE926300EE95CD8B45F
:1015F000318CEF50006E08E131BC06D031B813D009
:1016000031B602D0200E03D031863198300E00263C
:10161000EACF2BF0E9CF2AF000C036F0DDDD2BC099
:10162000EAFF2AC0E9FFEE5031ACDFD71200B60E58
:10163000006E036A026A016A2E502F1030103110BA
:1016400002E1006A0DD0D89001BE09D02E362F36A7
:1016500030363136033602360136002EF4D7019E7D
:1016600072EF0EF02A50B6082A6E036A2BC02EF0D5
:101670002B8ED8902B322C322D3203320232013293
:1016800000322A2EF6D72EAE0BD0001E011E021EEF
:10169000031E002AD8B4012AD8B4022AD8B4032AD7
:1016A0008CEF0EF0D8B203D0EA6A3E0EE96E006A03
:1016B000016A026A036A3E6A3F6A406A416A3D50B3
:1016C0003C103B103A102CE0200E426ED89036367B
:1016D0003736383639363E363F36403641363D505D
:1016E000415C08E13C50405C05E13B503F5C02E15D
:1016F0003A503E5C0FE33A503E5E3B50D8A03B3C34
:101700003F5E3C50D8A03C3C405E3D50D8A03D3CA4
:10171000415ED8800036013602360336422ED6D7D7
:101720003EC0EFFF3FC0ECFF40C0ECFF41C0ECFF0C
:101730001200E9502E6E3B0E356E9A0E346ECA0EB4
:10174000336E326A0A0E306ED882EA6A2A0EE96E69
:101750002DC039F02CC038F02BC037F02AC036F03D
:1017600035C03DF034C03CF033C03BF032C03AF0FD
:1017700099DF015000520FE13050010A0CE02E5069
:101780000BE00F0B305C01E00CE22EBE0AD02EBC49
:1017900003D0200E02D02E6A300E002600C036F094
:1017A0001BDDD89235C039F034C038F033C037F083
:1017B00032C036F03D6A3C6A3B6A0A0E3A6E72DF0E
:1017C00003C035F002C034F001C033F000C032F085
:1017D000302EBAD7C5EF0EF0F86AD09EEA6AE96AF1
:1017E0000101886BFF0E0F01486FC29CC29E4951D8
:1017F000E00B1F09496F256BD16AD26A056A066A38
:101800009B8C0001CCD4C150C00B0309C16EC19E9A
:10181000C280C28EC282C2B2FED7C29E9F0E0F018C
:10182000486FC29CC29E4951E00B0F09496F080ED8
:10183000F66E100EF76E000EF86E0001E8DC0D0E6D
:10184000376E010E386E7BDC0E6A0D6A1F6A1E6AE7
:101850001D6A1C6A1DC01BF01CC01AF01BC019F0C9
:101860001AC018F019C017F018C016F0E4D401C05F
:1018700015F015508008D8B43ED11E520FE11F520A
:101880000DE10D0ED8800D542A6E000E0E542B6EF5
:101890002AC037F0010E386E52DC1DD01E2C0FD03E
:1018A0001F520DE10D0ED8800D542A6E000E0E54FD
:1018B0002B6E2AC037F0020E386E41DC0CD00F0EB2
:1018C000D8800D542A6E000E0E542B6E2AC037F0AD
:1018D000010E386E34DC155009082FE315C02AF0CC
:1018E0001B0E2B6E56D50DC000F00E50036E02E19C
:1018F000005210E0035003E1010E005C0FE00350C2
:1019000003E1020E005C0EE0035003E1030E005CF5
:101910000DE010D0176A15C016F00CD0196A15C06A
:1019200018F008D01B6A15C01AF004D01D6A15C043
:101930001CF000D00D2AD8B40E2A15500F08D8A4D8
:10194000D6D01E524BE11F5249E10C0ED8800D54E7
:101950002A6E000E0E542B6E2AC037F0020E386E1F
:101960009FEC08F01DC02DF01CC02CF0030E2F6E54
:10197000E80E2E6E42DD02C02BF001C02AF01BC023
:101980002DF01AC02CF02F6A640E2E6E36DD02C0C8
:1019900003F001502A2602502B2219C02DF018C046
:1019A0002CF02F6A0A0E2E6E28DD01502A260250D6
:1019B0002B2216502A24206E17502B20216E1D6AD0
:1019C0001C6A1DC01BF01CC01AF01BC019F01AC005
:1019D00018F019C017F018C016F084D01E2C46D08D
:1019E0001F5244E11DC02DF01CC02CF0030E2F6EC1
:1019F000E80E2E6E02DD02C02BF001C02AF01BC0E3
:101A00002DF01AC02CF02F6A640E2E6EF6DC02C088
:101A100003F001502A2602502B2219C02DF018C0C5
:101A20002CF02F6A0A0E2E6EE8DC01502A26025096
:101A30002B2216502A24226E17502B20236E1E0EA6
:101A4000F66E100EF76E000EF86E07EC09F01D6AC8
:101A50001C6A1DC01BF01CC01AF01BC019F01AC074
:101A600018F019C017F018C016F03CD01DC02DF0AA
:101A70001CC02CF0030E2F6EE80E2E6EBEDC02C0D2
:101A80002BF001C02AF01BC02DF01AC02CF02F6AD9
:101A9000640E2E6EB2DC02C003F001502A26025002
:101AA0002B2219C02DF018C02CF02F6A0A0E2E6EB2
:101AB000A4DC01502A2602502B2216502A24246E20
:101AC00017502B20256E1D6A1C6A1DC01BF01CC000
:101AD0001AF01BC019F01AC018F019C017F018C07E
:101AE00016F00AD00E6A0D6A1E2AD8B41F2A960E66
:101AF0003C6E2AEC08F0BAD62C0EF66E100EF76E7D
:101B0000000EF86E07EC09F0300E016EC250C30BE8
:101B10000110C26E270E006E002EFED700D0C282CA
:101B2000C2B2FED7C450106A0F6E10C02BF00FC0A7
:101B30002AF072D403C031F002C030F001C02FF09F
:101B400000C02EF0330E356E346E336E7F0E326E63
:101B50007FDC03C02DF002C02CF001C02BF000C0D0
:101B60002AF0EFD402C012F001C011F02150125C33
:101B700007E303E12050115C03E396948D8402D0C7
:101B800096948D94140E016EC250C30B0110C26E58
:101B9000270E006E002EFED700D0C282C2B2FED742
:101BA000C450106A0F6E10C014F00FC013F0050E71
:101BB000376E010E386E9FEC08F0480EF66E100E70
:101BC000F76E000EF86E07EC09F0050E376E010E89
:101BD000386E9FEC08F0200E366EECEC08F0100E1C
:101BE000E96E12C02BF011C02AF0C8DC060E376E69
:101BF000020E386E9FEC08F0200E366EECEC08F00A
:101C0000200E366EECEC08F0200E366EECEC08F090
:101C1000060E376E020E386E9FEC08F0100EE96E5D
:101C200014C02BF013C02AF0A9DC2550145C07E384
:101C300003E12450135C03E3929A898A02D0929ABA
:101C4000899A180E016EC250C30B0110C26E270E86
:101C5000006E002EFED700D0C282C2B2FED7C450A2
:101C6000106A0F6E296A286A10C027F00FC026F08C
:101C700029520EE128520CE127520AE126500508AC
:101C800007E3296A286A030E276EE80E266E4CD0F9
:101C9000295207E1285205E1275203E12650D208D4
:101CA00005E2296A286A276A266A3ED0BE0ED880D5
:101CB0002654006E000E2754016E000E2854026E4A
:101CC000000E2954036E2D6E02C02CF001C02BF0C3
:101CD00000C02AF0316E02C030F001C02FF000C009
:101CE0002EF0A5D403C031F002C030F001C02FF0B7
:101CF00000C02EF0660E356E346E760E336E810E99
:101D0000326E28EC0AF003C02DF002C02CF001C0A6
:101D10002BF000C02AF0A6D403C029F002C028F09E
:101D200001C027F000C026F029520AE1285208E13C
:101D3000275002080BE2FF0A03E12650E80806E2FA
:101D4000296A286A030E276EE80E266E0B0E376E80
:101D5000020E386E9FEC08F04E0EF66E100EF76E07
:101D6000000EF86E07EC09F00B0E376E020E386E9F
:101D70009FEC08F0410EE96E29C02DF028C02CF030
:101D800027C02BF026C02AF0D4D4295209E12852CA
:101D900007E12350275C07E303E12250265C03E3BD
:101DA000959E8C8E02D0959E8C9E640E3C6E2AEC85
:061DB00008F0AAD60300B2
:020000040001F9
:08FFF8009AF73DFF61F880F962
:00000001FF
;PIC18F47J53
;CRC=C3D1  CREATED="03-Jun.-16 17:53"
