:0410000041EF0DF0BF
:08100800F76A1C0FF66E100ED2
:10101000F722000EF86E0900F5501200313233410C
:1010200034353642373839432A302344F76A400F83
:10103000F66E100EF722000EF86E0900F550120041
:10104000111012190C2023234249454E56454E4992
:10105000444F232300000C52616E676F20646520AB
:1010600054656D703A0A00000C52616E676F20641F
:1010700065204C757A3A0A000C52616E676F2064E5
:1010800065205669656E746F3A0A00000C52616EF5
:10109000676F732D3E543A254C7520430A4C3A2510
:1010A0004C75204C6D20563A254C75000C54454D1E
:1010B00050202020202043204C555A0A5649454EA6
:1010C000202020202020202020206C6D00002020C7
:1010D00020200000202020200000EA6A480EE96E4F
:1010E000EF500EE00F0E016E006A002EFED7012EAB
:1010F000FBD78F0E006E002EFED70000EF2EF2D72A
:10110000120095948C9495928C92465202E18C90A8
:1011100001D08C80959047A803D095968C8602D0FC
:1011200095968C9647AA03D095988C8802D095986E
:101130008C9847AC03D0959A8C8A02D0959A8C9A59
:1011400047AE03D0959C8C8C02D0959C8C9C270E2E
:10115000006E002EFED700D095948C84010E486E50
:10116000BCDF95948C94010E486EB7DF47A003D086
:1011700095968C8602D095968C9647A203D095982A
:101180008C8802D095988C9847A403D0959A8C8A25
:1011900002D0959A8C9A47A603D0959C8C8C02D04D
:1011A000959C8C9C270E006E002EFED700D0959447
:1011B0008C84010E486E91DF95948C94010E486EDC
:1011C0008CDF1200010E445CFC0F13E2040FFEEFF3
:1011D00008F07F0E4324456E0CD0BF0E4324456EAD
:1011E00008D08F0E4324456E04D0CF0E4324456EA5
:1011F00000D0466A45C047F084DF1200E824F76A51
:10120000F7361D0FF66E120EF722000EF86EFB6E0B
:101210000A00F550FA6E0800F550F96ED211DA1195
:10122000E211EA11320E486E58DF466A330E476EFD
:1012300068DF466A320E476E64DF466A280E476EE4
:1012400060DF466A0C0E476E5CDF466A010E476E31
:1012500058DF010E436E446EB5DF5AEF0DF0425079
:101260000C0A03E0060A0AE00ED0466A010E476E39
:1012700048DF010E436E446EA5DF0BD0436A020EB9
:10128000446EA0DF06D0010E466E42C047F039DF43
:1012900000D012000900F55210E0F6CF36F0F7CF7B
:1012A00037F0F8CF38F0F5CF42F0D9DF36C0F6FF8F
:1012B00037C0F7FF38C0F8FFEDD712003750070BE3
:1012C000006E3730016E013201321F0E01160150DF
:1012D0003924E96E000E3A20EA6E016A012A002ADA
:1012E00001D00136002EFDD7385203E00150EF1235
:1012F00003D0011E0150EF161200356A0A0E486E27
:10130000ECDE0C6A0B6A0C52D8A4A7D00B50030871
:10131000D8A0A3D00CC003F00B5088DE366E376E19
:10132000386A0F0E3A6E890E396EC8DF36C037F054
:10133000386A0F0E3A6E920E396EC0DF9268805096
:10134000FF0A0F0B356E3552D8B46ED00CC003F0C7
:101350000B506CDE366E376E010E386E0F0E3A6E25
:10136000890E396EABDF36C037F0386A0F0E3A6E31
:10137000920E396EA3DFC80E486EAFDE3550010AFB
:1013800007E0030A15E0060A27E00C0A39E04CD012
:101390000B34366E0C34376E36363736FC0E361656
:1013A00037C003F0365030DE016E016E58D03CD0AD
:1013B0000B34366E0C34376E36363736FC0E361636
:1013C000010E3624016E000E3720036E01501CDE24
:1013D000016E016E44D028D00B34366E0C34376E5B
:1013E00036363736FC0E3616020E3624016E000EE7
:1013F0003720036E015008DE016E016E30D014D02C
:101400000B34366E0C34376E36363736FC0E3616E5
:10141000030E3624016E000E3720036E0150F4DDFA
:10142000016E016E1CD000D00CC003F00B50FEDD2D
:10143000366E376E010E386E0F0E3A6E890E396EAB
:101440003DDF36C037F0386A0F0E3A6E920E396EB5
:1014500035DF0B2AD8B40C2A56D7000E016E8EEF5A
:101460000DF03F504118800B436E3FAE05D03E1E3D
:101470003F1E3E2AD8B43F2A41AE05D0401E411E31
:10148000402AD8B4412A3E504002F3CF01F0F4CFB5
:1014900000F04102F35000263F504002F35000207C
:1014A000026E43AE05D0011E021E012AD8B4022AE4
:1014B000CBEF0AF03C6A3A6A0A0E3B6E396A386A28
:1014C0003650371004E1000E016E026EE6D03C503B
:1014D0003C2A036A3624E96E37500320EA6EEFCFC8
:1014E0003DF03D502D080DE1010E3A6E3C503C2A76
:1014F000036A3624E96E37500320EA6EEFCF3DF0E1
:101500000DD03D502B080AE13C503C2A036A36249A
:10151000E96E37500320EA6EEFCF3DF03D502F08C3
:10152000D8B0ADD03D503908D8A0A9D03D50300832
:1015300021E1036A3C503624E96E37500320EA6EFD
:10154000EF5078080AE0036A3C503624E96E3750C1
:101550000320EA6EEF5058080DE1100E3B6E3C2A56
:101560003C503C2A036A3624E96E37500320EA6E69
:10157000EFCF3DF03B500A0821E13D502F081DE21E
:101580003D5039081AE33F6A0A0E3E6E39C041F0F9
:1015900038C040F066D7300E3D5C0124386E000E36
:1015A0000220396E3C503C2A036A3624E96E3750DB
:1015B0000320EA6EEFCF3DF0E0D761D03B5010083A
:1015C0005EE13D50600806E23D507A0803E33D507D
:1015D000DF0B01D03D503D6E3D502F0803E23D50E2
:1015E000390806E23D5040084AE23D50460847E3CC
:1015F0003D502F0819E23D50390816E338343E6E4D
:1016000039343F6E3E363F363E363F363E363F3605
:10161000F00E3E16300E3D5C3E24016E000E3F2063
:1016200001C038F0396E16D038343E6E39343F6E12
:101630003E363F363E363F363E363F36F00E3E169D
:10164000410E3D5C0A0F3E24016E000E3F2001C09A
:1016500038F0396E3C503C2A036A3624E96E375024
:101660000320EA6EEF503D6E600806E23D507A08B6
:1016700003E33D50DF0B01D03D503D6EADD73B50F5
:101680000A0807E13A2C05D0381E391E382AD8B48A
:10169000392A38C001F039C002F012000900F6CF33
:1016A00037F0F7CF38F0F8CF39F0F5CF42F0D7DD8B
:1016B00037C0F6FF38C0F7FF39C0F8FF362EEED737
:1016C0001200EACF3EF0E9CF3DF03738F009396E2D
:1016D0003926E20F3A6E320F3C6E37500F0B3A2626
:1016E0003A263C26E90F3B6E3B263B2636380F0B4D
:1016F0003B263C263B363C363C1E3C3636500F0BD8
:101700003C263936070E386E0A0E3B063C26FDE3B2
:101710003A063B26FDE339063A26FDE3380639262C
:10172000FDE3EA6A380EE96E070E3D143D9CE9269A
:101730003C0EE95CD8B43D8CEF50006E08E13DBC36
:1017400006D03DB813D03DB602D0200E03D03D8662
:101750003D98300E0026EACF37F0E9CF36F000C0D2
:1017600042F07DDD37C0EAFF36C0E9FFEE503DAC08
:10177000DFD712008E0E006E37C001F036C002F0C7
:10178000036A015209E102C001F0026A080E005E1C
:10179000015202E1006A08D0D89001BE04D002369E
:1017A00001360006F9D7019E4AEF0EF03A50D8B440
:1017B00071D0006E3E50D8B46DD0002604E3810E87
:1017C000002668E204D07F0E005E64E363E03BC065
:1017D00042F03F50421A3B8E3F8E3D504102F4CFC3
:1017E00044F03C504002F4CF03F0F3CF43F0410209
:1017F000F3504426F4504322000E03223D50400291
:10180000F3504426F4504322000E026A03220222BF
:101810003B504102F3504326F4500322000E0222B3
:101820003B504002F3500326F4500222000E016A9E
:1018300001223D503F02F3504326F4500322000E94
:10184000022201223C503F02F3500326F4500222B0
:10185000000E01223B503F02F3500226F4500122B9
:10186000002A01BE05D04336033602360136000693
:10187000000E43AE0AD0032A02220122015005E1E4
:10188000025003E1035001E1002A42BE018E42AE44
:10189000019E04D0006A016A026A036A12008E0E79
:1018A000006E3650005E37C002F038C001F0028E84
:1018B000005209E0D890025202E1015204E00232E3
:1018C0000132002EF7D737AE05D0011E021E012AC5
:1018D000D8B4022A62EF0EF0B60E006E036A026AF6
:1018E000016A3A503B103C103D1002E1006A0DD0F5
:1018F000D89001BE09D03A363B363C363D360336E9
:1019000002360136002EF4D7019EE4EF0EF0365079
:10191000B608366E036A37C03AF0378ED890373241
:10192000383239320332023201320032362EF6D7E3
:101930003AAE0BD0001E011E021E031E002AD8B4B0
:10194000012AD8B4022AD8B4032AFEEF0EF0D8B286
:1019500003D0EA6A4A0EE96E006A016A026A036A03
:101960004A6A4B6A4C6A4D6A495048104710461003
:101970002CE0200E4E6ED890423643364436453623
:101980004A364B364C364D3649504D5C08E148508E
:101990004C5C05E147504B5C02E146504A5C0FE36A
:1019A00046504A5E4750D8A0473C4B5E4850D8A0AE
:1019B000483C4C5E4950D8A0493C4D5ED88000362A
:1019C0000136023603364E2ED6D74AC0EFFF4BC043
:1019D000ECFF4CC0ECFF4DC0ECFF1200E9503A6E3A
:1019E0003B0E416E9A0E406ECA0E3F6E3E6A0A0E64
:1019F0003C6ED882EA6A360EE96E39C045F038C0CE
:101A000044F037C043F036C042F041C049F040C016
:101A100048F03FC047F03EC046F099DF0150005209
:101A20000FE13C50010A0CE03A500BE00F0B3C5C1C
:101A300001E00CE23ABE0AD03ABC03D0200E02D03C
:101A40003A6A300E002600C042F009DCD89241C04C
:101A500045F040C044F03FC043F03EC042F0496A08
:101A6000486A476A0A0E466E72DF03C041F002C040
:101A700040F001C03FF000C03EF03C2EBAD773EFFB
:101A80000FF0F86AD09EEA6AE96A0101886BFF0EDE
:101A90000F01486FC29CC29E4951E00B1F09496F5C
:101AA000256BD16AD26A056A066A356A9B8C000189
:101AB00012EF09F0C150C00B0309C16EC19EC28074
:101AC000C28EC282C2B2FED7C29EEF0E0F01486F15
:101AD000C29CC29E4951E00B0709496F440EF66E45
:101AE000100EF76E000EF86E00014AEC09F0040EBD
:101AF000366EFA0E486E6DEC08F0362EFAD7560E9A
:101B0000F66E100EF76E000EF86E4AEC09F01A6AC7
:101B10001A500208D8A0A0D07DEF09F001C019F03A
:101B20001952D8B498D019502F081AE21950390810
:101B300017E31B0E0D24E96E000E0E20EA6E19C08D
:101B4000EFFF1B0E0D24E96E000E0E20EA6EEFCFA4
:101B500036F036C042F02FEC09F00D2AD8B40E2A28
:101B600019502308D8A477D01B0E0D24E96E000E5F
:101B70000E20EA6EEF6A1A5213E1376A1B0E366EB8
:101B800099DC02C030F001C02FF0680EF66E100E26
:101B9000F76E000EF86E4AEC09F00E6A0D6A5AD024
:101BA0001A2C13D0376A1B0E366E84DC02C032F05A
:101BB00001C031F0780EF66E100EF76E000EF86E62
:101BC0004AEC09F00E6A0D6A45D01A50020842E14B
:101BD000376A1B0E366E6EDC02C034F001C033F083
:101BE0008C0EF66E100EF76E000EF86E0B0E366E43
:101BF00055DD100EE96E30C037F02FC036F061DDD4
:101C00009A0EF66E100EF76E000EF86E050E366E1A
:101C100045DD100EE96E32C037F031C036F051DDCF
:101C2000A20EF66E100EF76E000EF86E060E366EF1
:101C300035DD100EE96E34C037F033C036F041DDCB
:101C4000040E366EFA0E486E6DEC08F0362EFAD79A
:101C50000E6A0D6A1A2A5CD7AC0EF66E100EF76E7D
:101C6000000EF86E4AEC09F0300E016EC250C30B44
:101C70000110C26E270E006E002EFED700D0C28269
:101C8000C2B2FED7C450106A0F6E10C037F00FC03A
:101C900036F070D503C03DF002C03CF001C03BF00F
:101CA00000C03AF0416A406A400E3F6E7F0E3E6EC1
:101CB0007DDD03C039F002C038F001C037F000C04C
:101CC00036F0EDD502C012F001C011F03050125CB8
:101CD00007E303E12F50115C03E393928A8202D061
:101CE00093928A92100E016EC250C30B0110C26E05
:101CF000270E006E002EFED700D0C282C2B2FED7E1
:101D0000C450106A0F6E10C014F00FC013F034509E
:101D1000145C07E303E13350135C03E393968A8674
:101D200002D093968A962C0E016EC250C30B0110FE
:101D3000C26E270E006E002EFED700D0C282C2B245
:101D4000FED7C450106A0F6E186A176A10C016F0DA
:101D50000FC015F018520EE117520CE116520AE1AD
:101D60001550050807E3186A176A030E166EE80E89
:101D7000156E4CD0185207E1175205E1165203E1D7
:101D80001550820805E2186A176A166A156A3ED06D
:101D9000820ED8801554006E000E1654016E000E8F
:101DA0001754026E000E1854036E396E02C038F0DC
:101DB00001C037F000C036F03D6E02C03CF001C0FB
:101DC0003BF000C03AF088D503C03DF002C03CF0C3
:101DD00001C03BF000C03AF07A0E416EA50E406E95
:101DE000750E3F6E810E3E6EE1DC03C039F002C01D
:101DF00038F001C037F000C036F089D503C018F0C4
:101E000002C017F001C016F000C015F0185209E129
:101E1000175207E13250165C07E303E13150155CBD
:101E200003E3959E8C8E02D0959E8C9E050E436E8C
:101E3000010E446EE2EC08F0CE0EF66E100EF76E58
:101E4000000EF86E4AEC09F0050E436E010E446E6A
:101E5000E2EC08F0200E426E2FEC09F0100EE96E55
:101E600012C037F011C036F02CDC060E436E020EA5
:101E7000446EE2EC08F0200E426E2FEC09F0200ECA
:101E8000426E2FEC09F0200E426E2FEC09F0060E88
:101E9000436E020E446EE2EC08F0100EE96E14C0C0
:101EA00037F013C036F00DDC0B0E436E020E446E9D
:101EB000E2EC08F0D40EF66E100EF76E000EF86E1F
:101EC0004AEC09F00B0E436E020E446EE2EC08F091
:101ED000410EE96E18C039F017C038F016C037F05F
:101EE00015C036F07BD5640E486E6DEC08F0BCD69C
:021EF0000300ED
:020000040001F9
:08FFF8009AF73DFF61F880F962
:00000001FF
;PIC18F47J53
;CRC=F592  CREATED="03-Jun.-16 16:02"
