:04100000E2EF2FF0FC
:08100800046ED8CF05F0E0CF23
:1010100006F00001E9CF0CF0EACF07F0E1CF08F0CD
:10102000E2CF09F0D9CF0AF0DACF0BF0F3CF12F00C
:10103000F4CF13F0FACF14F0FBCF15F000C00EF090
:1010400001C00FF002C010F003C011F0A0A82CEFF7
:1010500008F0A1B858EF10F00EC000F00FC001F07A
:1010600010C002F011C003F00CC0E9FF07C0EAFF96
:10107000078E08C0E1FF09C0E2FF0AC0D9FF0BC01C
:10108000DAFF12C0F3FF13C0F4FF14C0FAFF15C05B
:10109000FBFF045006C0E0FF05C0D8FF1000F76A50
:1010A000B20FF66E100EF722000EF86E0900F55022
:1010B0001200000302FFFFFFFFFFFFFFFFFFFFFF24
:1010C000FFFFF76AD60FF66E100EF722000EF86ECD
:1010D0000900F550120000FF02FFFFFFFFFFFFFFB6
:1010E000FFFFFFFFFFFFF76AFA0FF66E100EF72201
:1010F000000EF86E0900F550120040000B00400091
:1011000000000000000000000000000000000000DF
:1011100000000000000000000000F76A2E0FF66ECD
:10112000110EF722000EF86E0900F5501200400073
:10113000000040000000000000000000000000006F
:101140000000000000000000000000000000F76A3E
:10115000620FF66E110EF722000EF86E0900F550C0
:10116000120009024300020100803209040000015C
:1011700002020100052400100104240202052406D5
:1011800000010524010001070581030B00FA090491
:101190000100020A000000070502024000010705E5
:1011A000820240000100F76ABA0FF66E110EF722B4
:1011B000000EF86E0900F55012000200F76AD00F19
:1011C000F66E110EF722000EF86E0900F5501200AF
:1011D00012171B20FFFFFFFFF76AEC0FF66E110ED0
:1011E000F722000EF86E0900F550120012011001EE
:1011F0000200004005240B00000101020001F76A13
:10120000120FF66E120EF722000EF86E0900F5505E
:1012100012000403090408034300430053002003A1
:1012200043004300530020005500530042002000BB
:1012300074006F0020005500410052005400659278
:101240000F01369562A402D06294FCD700016AEFC8
:1012500010F0400E0D01016F06015C6B220E5CC6A2
:1012600003FDE8CF02FD880E0D01006F046B06013F
:101270005C6B220E5B6F400E5B250D01066F000E4E
:1012800006015C210D01076F000112000F0126A16C
:1012900004D00001DEDF0F012691629A000177EF92
:1012A00010F0636A629282EF10F00601689167BFE6
:1012B0006881679F6751100803E2000E016E24D019
:1012C00068A112D0036A6751F2CF69F6F29E00015D
:1012D000E6DE060169BFF28EFF0802E1000E01D0D2
:1012E000010E016E11D010D0036A6751F2CF69F67A
:1012F000F29E0001E6DE060169BFF28EFF0802E100
:10130000000E01D0010E016E00011200036A0601F9
:101310006651260FE96E0F0E0320EA6EEF6A66C66D
:1013200067F60001C2DF01521AE006016651080D9E
:10133000F350686BE96E0D0E6825EA6EEF6A665130
:10134000080DF350686B676F040E6727000E682363
:1013500067C6E9FF0D0E6825EA6EEF6A000112000C
:10136000010E0601656F65510F0807E365C666F655
:101370000001CCDF0601652BF6D700011200060143
:101380005F6B5E6B250E5D6F800E5C6F010EEA6E0B
:10139000370EE96E060EE26E5C0EE16E020E016E15
:1013A000E6CFEEFF012EFCD70101396B3A6B060147
:1013B0005C6B010EEA6E3B0EE96E060EE26E5C0E91
:1013C000E16EE6CFEEFF5C6B010EEA6E3C0EE96E5D
:1013D000060EE26E5C0EE16EE6CFEEFF080E5C6F6D
:1013E000010EEA6E3D0EE96E060EE26E5C0EE16ED7
:1013F000E6CFEEFF0101896B88913F6B3E6B876BF7
:101400001F908A6B000112000101346B336B0601DF
:101410005B6B5B5101080AE3036A5B51350FE96EB0
:10142000010E0320EA6EEF6A5B2BF3D70001A7DF02
:10143000196A010E1A6E186A120062961200636A27
:10144000626A9F0E0F01376F3D0E366F386B0001D9
:1014500087DFDADF160E0F01266F62A604D00001C7
:10146000ECDF0F01FAD765980001F3DE030E0101EE
:101470002E6F00018DEF10F00F01368562986582A6
:10148000000198EF10F0629CA3EF10F060C62FF1FE
:10149000120001012F690001120006015E6B0101BB
:1014A0003351341150E006015E513F08D8B002D0EC
:1014B000010149D01B50000A000105E0020A12E0B8
:1014C000010A1FE02CD032C103F001013151F2CFEB
:1014D00060F6F29E00013BDE060160BFF28E5F6F98
:1014E00000011DD032C103F001013151F2CF60F68D
:1014F000F29E000184DE060160BFF28E5F6F000184
:101500000ED032C103F001013151F2CF60F6F29EEC
:10151000000162DE060160BFF28E5F6F0001010113
:10152000312BD8B4322B3351D8B4340733070601EA
:101530005E515E2B620FE96EEA6AD8B0EA2A5FC696
:10154000EFFFADD701013351341109E106015E51BE
:101550004008D8A402D0010102D0186A01015EC679
:1015600060F6000193DF12000101326B316B1B6AE0
:101570002550010A000107E0030A0CE0010A0FE010
:10158000220A2CE054D00101346B120E336F030E8B
:101590001B6E52D00101346B430E336F4DD0020EDF
:1015A0001B6E036A24501C0FE96E000E0320EA6EC6
:1015B0000101326BEFCF31F132C103F03151F2CF83
:1015C0005DF6F29E00011BDE06015DBFF28E036A2E
:1015D000E8CF33F1010103C034F12ED0036A245067
:1015E000F2CF5DF6F29EEADD06015DBFF28E036A80
:1015F000E8CF31F1010103C032F1313D02D0325365
:1016000013E032C103F03151F2CF5DF6F29E0001DA
:101610009EDD06015DBFF28E036AE8CF33F1010162
:1016200003C034F109D004D0000133DF13D001012D
:1016300000012FDF0FD00101295208E1345303E1EB
:101640003351285C03E2346B28C033F1010E186E6D
:10165000000123DF6EEF0CF006015D5307E1040E7D
:1016600001012E6F00017CDEE7D00601050E0101AD
:101670002E6F0601666B220E656F800E65255F6F0B
:10168000000E6621606F010E5E6F5E510F08D8A0DC
:10169000D3D05EC666F6000139DE0601616B036ACF
:1016A0005E51F2CF65F6F29E00010BDD060165BFCB
:1016B000F28EFF085DE0040E616FD8905E35036A1C
:1016C000F2CF65F6F29E000128DD0900F5CF03F0A8
:1016D000060165BFF28E626F03C063F65E51080DAE
:1016E000F350666B656F010E6525016E000E662175
:1016F000036E01C0E9FF0D0E0324EA6E62C6EFFF20
:101700005E51080DF350666B656F020E6525016E24
:10171000000E6621036E01C0E9FF0D0E0324EA6E80
:1017200060C6ECFFED525FC6EFFFD8905E35036AEE
:10173000F2CF65F6F29E0001F0DC0900F5CF03F070
:10174000060165BFF28E5F2703506023880E646F29
:1017500063A101D0648163A301D064835E51080D4D
:10176000F350666BE96E0D0E6625EA6E64C6EFFFF8
:10177000036A5E51F2CF65F6F29E000190DC06012D
:1017800065BFF28EFF083BE061835E51080DF350A8
:10179000666B656F040E6527000E6623020E6525D5
:1017A000016E000E6621036E01C0E9FF0D0E0324D9
:1017B000EA6E60C6ECFFED525FC6EFFFD8905E3573
:1017C000036AF2CF65F6F29E00018DDC0900F5CFC9
:1017D00003F0060165BFF28E5F27035060235E5160
:1017E000080DF350666B656F040E6527000E6623C7
:1017F00065C6E9FF0D0E6625EA6E400EEF6E61517B
:10180000060802E10E0E616F036A5E51F2CF65F6C3
:10181000F29E000144DC060165BFF28E010801E082
:101820006189036A5E51260FE96E0F0E0320EA6E8E
:1018300061C6EFFF5E2B29D7000168EF0CF0235043
:10184000000A0DE0010A14E0020A1DE0060A25E084
:10185000030A2CE00E0A2CE0010A32E03ED01AC046
:1018600062F0636B020E0601606F00010FDE36D07E
:10187000242C07D0010E1A160601606B000106DE4B
:1018800001D007DE2BD0242C06D01A820601606B13
:101890000001FCDD01D0FDDD21D0020E186E24C058
:1018A00030F10601606B0001F1DD18D05DD616D075
:1018B00019C062F0010E0601606F0001E7DD0ED075
:1018C0002450010809E324C019F024C05DF6C4D6F1
:1018D0000601606B0001DADD01D0DBDDCFEF0DF03A
:1018E00019C05DF6235005E00A0A0BE0010A2CE05E
:1018F0003FD0626B636B020E0601606F0001C6DDB4
:1019000038D006015D531DE0010E5D5D036AF2CF24
:101910005EF6F29E000147DC06015EBFF28E016EAC
:10192000265C0FE2036A2650350FE96E010E032094
:10193000EA6EEFCF62F0010E606F0001A7DD03D009
:1019400006010001A6DD15D006015D530EE0036A15
:101950002650350FE96E010E0320EA6E24C0EFFF1A
:10196000606B000193DD03D00601000192DD01D020
:1019700090DDCFEF0DF006015E915DBF5E815D9F52
:101980005EA111D05D51080DF350606B5F6F040EC6
:101990005F27000E60235FC6E9FF0D0E6025EA6E2B
:1019A000880EEF6E09D05D51080DF350606BE96E43
:1019B0000D0E6025EA6EEF6A000141EF0DF00601A1
:1019C0005E915DBF5E815D9F5EA111D05D51080D8E
:1019D000F350606B5F6F040E5F27000E60235FC6DD
:1019E000E9FF0D0E6025EA6E840EEF6E0AD05D51A0
:1019F000080DF350606BE96E0D0E6025EA6E840EE3
:101A0000EF6E000149EF0DF006015E915DBF5E8152
:101A10005D9F5EA111D05D51080DF350616B606F49
:101A2000040E6027000E612360C6E9FF0D0E6125DC
:101A3000EA6EEFCF5FF60AD05D51080DF350616B8F
:101A4000E96E0D0E6125EA6EEFCF5FF65FAF02D053
:101A50005FB502D0000E01D0010E016E000153EF00
:101A60000DF026C067F621DC015228E02350010A60
:101A700005E0020A0BE0030A11E01FD026C05DF664
:101A80007AD70601606B000101DD18D026C05DF633
:101A900096D70601606B0001F9DC10D0626B636BB6
:101AA00026C05DF6B1D7015202E0010E626F020E50
:101AB0000601606F0001EADC01D0EBDCCFEF0DF036
:101AC000FE0E01012F6F00011200262C01D002D062
:101AD00026524FE123500BE0010A0FE0210A1EE0DD
:101AE000010A23E0030A34E0010A39E041D0010E83
:101AF00001018A6F0001E4DF3CD0EA6A620EE96E00
:101B0000010EE26E400EE16E080E016EE6CFEEFFB2
:101B1000012EFCD728C060F6B9DC2BD0020E0101E3
:101B20008A6F88810001CCDF24D0EA6A620EE96EF8
:101B3000010EE26E370EE16E070E016EE6CFEEFF8C
:101B4000012EFCD7070E0601606F00019FDC11D04B
:101B500024C089F10601606B000198DC0AD024C022
:101B60003FF125C03EF10601606B00018FDC01D022
:101B700090DCCFEF0DF0186A22507F0B07E0010ACE
:101B800007E0030A07E0230A07E008D058D607D089
:101B9000A7D605D066D703D098D701D07ADCEFEF6F
:101BA0000FF006015E51080DF350646BE96E0D0EE7
:101BB0006425EA6EEFCF60F65F51020806E160AD82
:101BC00002D05F6B02D0010E5F6F5F51030813E11B
:101BD000840E606F5E51080DF350646B636F040EEA
:101BE0006327000E642363C6E9FF0D0E6425EA6EC9
:101BF000840EEF6E07D05F2D03D0C80E606F02D049
:101C0000880E606FD8905E35036AF2CF63F6F29E5D
:101C100000018DEC08F00900F5CF03F0060163BF69
:101C2000F28E616F03C062F65E51080DF350646B73
:101C3000636F010E6325016E000E6421036E01C007
:101C4000E9FF0D0E0324EA6E61C6EFFF62A101D029
:101C5000608162A301D060835E51080DF350646B14
:101C6000E96E0D0E6425EA6E60C6EFFF00011200FA
:101C7000036A06016B51260FE96E0F0E0320EA6E10
:101C8000EF5212E06B51080DF3506D6B6C6F040E48
:101C90006C27000E6D236CC6E9FF0D0E6D25EA6EF4
:101CA000EFCF6EF66EAF02D0000E01D0010E016EC6
:101CB0000001120066C66BF6DBDF015265E006012B
:101CC0006651080DF3506C6B6B6F040E6B27000EA2
:101CD0006C23010E6B25016E000E6C21036E01C09A
:101CE000E9FF0D0E0324EA6E67C6EFFF6951020893
:101CF00017E16651080DF3506C6B6B6F040E6B2788
:101D0000000E6C236BC6E9FF0D0E6C25EA6EEFCF5B
:101D10006AF66AAD02D0696B02D0010E696F13D00A
:101D20006951040810E16651080DF3506C6BE96EBF
:101D30000D0E6C25EA6EEFCF6AF66AAD03D0010E88
:101D4000696F01D0696B692D03D0C80E6A6F02D02C
:101D5000880E6A6F68A101D06A8168A301D06A8386
:101D60006651080DF3506C6B6B6F040E6B27000E01
:101D70006C236BC6E9FF0D0E6C25EA6E6AC6EFFF99
:101D8000010E016E04D00001000E016E060100017B
:101D9000120001018A51010A000103E0030A16E062
:101DA0002CD0010EEA6E400EE96EE26A220EE16E60
:101DB000080E016EE6CFEEFF012EFCD70601606B28
:101DC000000146EC0AF001018A6B19D0010EEA6E9F
:101DD000370EE96EE26A220EE16E070E016EE6CF63
:101DE000EEFF012EFCD701018A6B0601606B00013A
:101DF00046EC0AF0010103D0000101018A6B0001E9
:101E000037EF0FF006015E51080DF350606B5F6F06
:101E1000010E5F25016E000E6021036E01C0E9FF17
:101E20000D0E0324EA6E036AEFCF01F003C002F047
:101E300000012BEF0FF01F90020E06015E6F5F6F27
:101E40000001AFDE30EF0FF01F80216A020E0601A5
:101E50005E6F0001D7D701C020F0205201E1EBD71F
:101E60003EEF0FF006015D5304E1000192D706D06A
:101E700006015D51020803E10001E6D706010001F9
:101E800012005EC638FF06015E5305E0040E010134
:101E90002E6F04D00601020E01012E6F000156EFD5
:101EA0000FF0196A186A30C15EF6EBD7C7EF0FF072
:101EB0005EC66BF6DDDE01523EE006015E51080DA6
:101EC000F350676B666F040E6627000E6723020EE1
:101ED0006625016E000E6721036E01C0E9FF0D0E3D
:101EE0000324EA6EECCF65F6ED52EFCF64F665C6DB
:101EF000EAFF64C6E9FF60C6E2FF5FC6E1FF62C6B3
:101F000002F061C601F0015202E0022A02D0025240
:101F100006E0E6CFEEFF012EFCD7022EFAD75EC612
:101F200066F662C668F661C667F663C669F60001C2
:101F3000C1DE015002D0000E016E12000101875374
:101F400012E0020E06015E6F010E606F480E5F6FB9
:101F5000626B87C161F6020E636F0001A9DF015257
:101F600003E00101876B00011200E8DFCEEF0FF004
:101F700006015D530EE1182C05D000014DEC0AF06E
:101F800006D006011850020803E100018AD70601B5
:101F900006D05D51020803E10001E7D70601000108
:101FA000120001012D3106015B6F5B335B331F0EA5
:101FB0005B1701012D5355E10D0100513C0B06014A
:101FC0005C6F430E0D01001706015C51340829E1D6
:101FD0000D010451800B01E0046B0001CCD5659824
:101FE00001012F3D08D006015E6B030E5F6F0001FB
:101FF000D8DD14D0010106015E6B020E5F6F000197
:10200000D0DD01012F51FE080AE00601666B686B06
:102010002FC167F6040E696F00014CDE01011ED06E
:1020200006015C5104081BE15D6B00011BDF06012A
:102030005E6B020E5F6F0001B4DD01012F51FE08DF
:102040000DE02F3D01D00AD00601666B686B2FC1F1
:1020500067F6010E696F00012DDE0101060125D032
:1020600001012D51040814E12F6906015D6B000187
:102070007FDF01012F3D01D00AD00601666B686B3E
:102080002FC167F6020E696F000114DE01010CD04A
:102090002DB506D05BC65DF60001E4DE05D001017A
:1020A0005BC65DF6000164DF06010001B3EF10F0CE
:1020B000A19801012E53D8B460D06252D8B45DD03B
:1020C00062A409D00F0136B502D0010104D000018D
:1020D0001FEF09F0010165B250D062AA09D00F01CB
:1020E00036BB02D0010104D0000146EF09F0010126
:1020F00062A209D00F0136B302D0010104D0000161
:1021000051EF09F0010162A009D00F0136B102D0F0
:10211000010104D000011FEF0AF0010162A809D0FB
:102120000F0136B902D0010104D000013CEF0AF0E2
:10213000010162AC09D00F0136BD02D0010104D00B
:10214000000143EF0AF0010106015A6B62A60DD0AF
:102150000F0136B702D0060108D064CF2DF100017F
:102160001DEC0AF01ED703D0060106D000010601BF
:102170005A515A2B0308EAE2010100012CEF08F042
:102180000D0A2D2D25732D2D00000D0A0D0A20207E
:1021900020202020202020000D0A0D0A2D2D464150
:1021A000542053746174732D2D0D0A0046697273A7
:1021B0007420464154207374617274732061743AC0
:1021C000203078256C580D0A00004461746120535A
:1021D00074617274732041743A203078256C580D04
:1021E0000A00526F6F74204469726563746F72796C
:1021F0002049732041743A203078256C580D0A002C
:1022000042797465732050657220436C75737465F0
:10221000723A203078256C580D0A00000D0A0D0A1C
:102220002D2D000020496E666F2D2D000D0A417482
:1022300074726962757465733A20307825580000AD
:102240000D0A437265617465643A20000D0A4D6F92
:102250006469666965643A2000000D0A537461720E
:1022600074696E6720636C75737465723A20256CAF
:1022700058000D0A5374617274696E67206164645A
:10228000726573733A20256C58000D0A53697A659C
:102290003A20256C752042797465730D0A000D0A89
:1022A0004D616B696E672066696C65202725732711
:1022B0003A2000004572726F722063726561746922
:1022C0006E672066696C6500436F756C64206E6F85
:1022D0007420696E697420746865204D4D432F53D6
:1022E00044212121210020256C64200A0D00202595
:1022F00058200A0D000020253458200A0D00202502
:102300006C58200A0D00656A0F01366B080E396F94
:10231000945030090401946E01012E6B176AF2BECD
:10232000178EF29E000104EC0AF017BEF28E9AEFAF
:1023300011F0E9D7C6EF11F0176AF2BE178EF29EC0
:1023400004EC0AF017BEF28E656A140E0F01396FA5
:10235000366B6586010E01012E6F0001B3EF11F09F
:1023600065B601D0E9D701012E2D0DD065BA0BD08D
:10237000626A0F01366BA088C00EF212110E366F22
:10238000020E01012E6F00011200D3D7E9DF010117
:102390002E510208D8B402D00001F8D700014EEF48
:1023A00030F01950016E50EF30F006014E51080820
:1023B00004E04F6F4D374F2FFDD78A9C4EC64FF626
:1023C0004DAF8A9A4DBF8A8A4D378A8C040E506F62
:1023D000502FFED7013681AE019081BE01808A9CCC
:1023E000030E506F502FFED74F2FEAD70001120077
:1023F00006014D69080E4E6F0001D7DF8A88120072
:10240000040EEA6EC10EE96EEF500EE00F0E016E83
:10241000006A002EFED7012EFBD78F0E006E002E15
:10242000FED70000EF2EF2D712008A9812000601A4
:10243000536B506B4F51505D1DE24DC6E9FF4EC6C8
:10244000EAFFEFCF52F6516B515107080CE3D890D9
:10245000533752515319800B02E0090E531BD89089
:102460005237512BF1D7539F5051502B4D2BD8B48D
:102470004E2BE0D7D880533753C601F0000159EFF7
:1024800012F0060142514009476F46C648F645C65C
:1024900049F644C64AF643C64BF6010188A30DD05F
:1024A000060E06014E6F470E4D6F050E4F6F000171
:1024B000BED701C04CF604D0010106014C690001F1
:1024C00047C64DF6080E06014E6F00016EDF48C686
:1024D0004DF6080E06014E6F000167DF49C64DF646
:1024E000080E06014E6F000160DF4AC64DF6080E69
:1024F00006014E6F000159DF4BC64DF6080E06016E
:102500004E6F000152DF4CC64DF6080E06014E6FAD
:1025100000014BDF000E016E12000601426B4369A1
:10252000435311E04D69080E4E6F00013EDF01502C
:1025300001C042F60601423D01D003D042C601F07F
:1025400004D04307EDD7800E016E00011200060192
:10255000426B466B456B446B436B000192DFDDDFE2
:10256000015013EF14F0010E0601426F466B456BEC
:10257000446B436B000185DFD0DF015029EF14F07D
:10258000370E0601426F466B456B446B436B00018F
:1025900078DFC3DF01503BEF14F0290E0601426FD4
:1025A000466B456B446B436B00016BDFB6DF01503C
:1025B0003EEF14F0100E0601426FC4C446F6C3C4C9
:1025C00045F6C2C444F6C1C443F600015ADFA5DF94
:1025D000015055EF14F03B0E0601426F466B456B00
:1025E000446BC1C443F600014CDF01018893040130
:1025F000C1A103D001018883040100018EDF0150D5
:1026000067EF14F0110E0601426F41C646F640C650
:1026100045F63FC644F63EC643F6000132DF7DDF95
:10262000015065EF13F079DF01C03FF606013E511E
:102630003F5D03E1000E016E02D03FC601F00001D4
:1026400074EF13F00601496B486B456B4451455DCF
:1026500029E242C6E9FF43C6EAFFEFCF47F6466BE1
:102660004651070818E3D890483749374751481969
:102670004A6F49514B6F000B006E4B51800B036E3C
:102680000050031004E0210E481B100E491BD89087
:102690004737462BE5D7499F4551452B422BD8B4A8
:1026A000432BD4D7D8804837493748C601F049C6AC
:1026B00002F000011200B9DE36C641F635C640F61A
:1026C00034C63FF633C63EF69DD701C03BF6060141
:1026D0003B5306E000018CDE06013BC601F070D0E2
:1026E000FE0E3E6F00019FD701C03BF606013B5333
:1026F00006E000017DDE06013BC601F061D03D6BC6
:102700003C6B3D51385D18E303E137513C5D14E209
:1027100039513C25E96E3A513D21EA6E4D69080E6A
:102720004E6F000142DE015001C0EFFF010E0601B5
:102730003C27000E3D23E5D7010188A32FD00601D9
:102740004D69080E4E6F000130DE015001C03EF6AB
:1027500006014D69080E4E6F000127DE015001C0D1
:102760003FF63EC641F601C040F6010E0601436F3A
:10277000910E426F446B000165DF02C003F001500F
:102780000601405D03E10350415D06E0000130DEDB
:10279000080E016E060114D00ED0010106014D692C
:1027A000080E4E6F000101DE06014D69080E4E6FE6
:1027B0000001FBDD060100011BDE000E016E0601BB
:1027C0000001F7EF13F00101889594C336F693C327
:1027D00035F692C334F691C333F6020E0601386F14
:1027E000376B010E3A6F910E396F000164D70150BB
:1027F0001200010188830301946B936B926B916BC0
:10280000939C939A9398938E0001F2DD0F0E04012E
:10281000C16F0001F5DD0401BF6B010EC16F000146
:10282000EFDD03DE94D601C0C0F4E2DD0401BF2B6E
:10283000BF3D06D00001DCDD0401C0C401F05AD068
:10284000C0A1EBD7BF6B010EC16F0001D9DDEDDD7B
:102850008AD601C0C0F4CCDD0401BF2BBF3D06D039
:102860000001C6DD0401C0C401F044D0C0B1EBD703
:102870000001DBDD85D601C0C0F48FD601C0C0F4F5
:10288000B7DD0401C051040804E10101888703D0C9
:102890000401010188970001C8DD0401C46BC36B0A
:1028A000020EC26FC16B000185D601C0C0F40401E5
:1028B000C05306E000019CDD0401C0C401F01AD041
:1028C000000196DDB2DD0401C16B000184D601C0B8
:1028D000C0F40401C05306E000018ADD0401C0C455
:1028E00001F008D0000184DD6EDF01C0C0F40401F6
:1028F000C0C401F0000126EF16F0180E0601426F69
:1029000041C646F640C645F63FC644F63EC643F6C7
:102910000001B7DD02DE015098EF14F086DD36C607
:1029200041F635C640F634C63FF633C63EF6E5D727
:1029300001C03BF606013B5306E0000159DD0601EC
:102940003BC601F063D0FE0E4D6F080E4E6F0001C6
:102950002CDD06013D6B3C6B3D51385D18E303E116
:1029600037513C5D14E239513C25E96E3A513D2125
:10297000EA6EEFCF3EF63EC64DF6080E4E6F0001F2
:1029800014DD010E06013C27000E3D23E5D70101B1
:1029900088A315D03AC643F639C642F637C644F680
:1029A000000150DE02C03FF601C03EF601C04DF608
:1029B000080E06014E6F0001F8DC0DD00101060182
:1029C0004D69080E4E6F0001F0DC06014D69080EDE
:1029D0004E6F0001EADCA1DD01C03BF606013B5170
:1029E0000A0B06E0000104DD06013BC601F00ED033
:1029F0004D69080E4E6F0001D8DC0150D8A402D0FA
:102A00000601F6D7F5DC000E016E060100011FEF8E
:102A100015F0010188A516D0889594C336F693C3A6
:102A200035F692C334F691C333F6020E0601386FC1
:102A3000376B010E3A6F910E396F00016FD701505D
:102A400003D00101000E016E000152EF15F00601E6
:102A50002E6B2B51010B016E026A036A2A512A5D0B
:102A60002F6F01502B59306F02502C59316F03508A
:102A70002D59326F2F510301915D0FE10601305145
:102A80000301925D0AE1060131510301935D05E105
:102A9000060132510301945D1CE0010188A50CD0B0
:102AA0000001B7D701C02EF606012E5303E02EC653
:102AB00001F012D00101889532C694F331C693F328
:102AC00030C692F32FC691F300017DDE01C02EF6D1
:102AD000030106012EC601F00001120014C62DF6F6
:102AE00013C62CF612C62BF611C62AF6B0DF01C0AB
:102AF00017F60601175303E017C601F015D012515F
:102B0000010B1B6F1C6B1D6B910E1125E96E010EE5
:102B10001B21EA6EEFCF1EF616C6EAFF15C6E9FFC7
:102B20001EC6EFFF000E016E0001D3EF15F0060187
:102B3000056B046B0551005D42E305E10501FF51A2
:102B40000601045D3CE20501FEC503F0FDC502F08F
:102B5000FCC501F0FBC500F0010EFB27D8B0FC2B33
:102B6000D8B4FD2BD8B4FE2B03C009F602C008F67A
:102B700001C007F600C006F6060102C603F00151C7
:102B8000012BD8B4022B0A6F03C00BF609C614F64A
:102B900002C013F601C012F600C011F603C016F60B
:102BA000156F00019BD701C003F60601035303E034
:102BB00003C601F006D0042BD8B4052BBBD7000EFA
:102BC000016E000112000401BF51C103F3CF01F0F7
:102BD000F4CF00F0C203F3500026C051C103F350FC
:102BE0000020026E000112000601206B216B010E15
:102BF000226FDA6AD96A060E256F180E246F060E48
:102C0000EA6E1C0EE96E25C6E2FF24C6E1FF22C66D
:102C100023F6D890E550EE02F3502023F450212300
:102C2000232FF7D720C6DEFF21C620F6216BD8B0B0
:102C3000212B242BD8B4252B222B22510508DFE190
:102C4000000112000401AA6B0001D3D50150040158
:102C5000AA270501FE6BFD6BFC6B0B0EFB6F0601DB
:102C6000006B020E0501FF6F040E0601026FAD0E30
:102C7000016F00015CDF01500401AA270501FE6B12
:102C8000FD6BFC6B0D0EFB6F0601006B010E050169
:102C9000FF6F040E0601026FAC0E016F000147DFEB
:102CA00001500401AA270501FE6BFD6BFC6B0E0EA3
:102CB000FB6F0601006B020E0501FF6F040E06019B
:102CC000026FAF0E016F000132DF01500401AA272D
:102CD0000501FE6BFD6BFC6B100EFB6F0601006BBC
:102CE000010E0501FF6F040E0601026FAB0E016FAE
:102CF00000011DDF01500401AA270501FE6BFD6BD9
:102D0000FC6B130EFB6F0601006B020E0501FF6FDB
:102D1000040E0601026FB10E016F000108DF0150C1
:102D20000401AA270501FE6BFD6BFC6B240EFB6FF3
:102D30000601006B040E0501FF6F0601026FBB0E5A
:102D4000016F0001F4DE01500401AA270501FE6BAA
:102D5000FD6BFC6B1C0EFB6F0601006B040E050186
:102D6000FF6F0601026FB30E016F0001E0DE01503C
:102D70000401AA270501FE6BFD6BFC6B200EFB6FA7
:102D80000601006B040E0501FF6F0601026FB70E0E
:102D9000016F0001CCDE01500401AA270501FE6B82
:102DA000FD6B030EFC6FEC0EFB6F0601006B040E57
:102DB0000501FF6F030E0601026FA10E016F0001F6
:102DC000B6DE01500401AA27AA5303E0FF0E016EEC
:102DD0006DD0C06BACC4BFF4AEC4C2F4ADC4C1F41A
:102DE0000001F1DE02C096F301C095F3ADC400F01E
:102DF000AEC401F0026A036A03C0C2F402C0C1F4A7
:102E0000AEC4C0F4ADC4BFF4BEC41BF6BDC41AF654
:102E1000BCC419F6BBC418F603C01FF602C01EF6E8
:102E2000AEC41DF6ADC41CF6DFDE03C0A0F302C0C5
:102E30009FF301C09EF300C09DF3B0C4C0F4AFC4C3
:102E4000BFF4AEC4C2F4ADC4C1F4BDDE02C098F399
:102E500001C097F306011B6B1A6B196BABC418F614
:102E6000A0C31FF69FC31EF69EC31DF69DC31CF68E
:102E70000001BADE005003019725A56F015098218B
:102E8000A66F000E0220A76F000E0320A86F9551B9
:102E9000A525996F9651A6219A6F000EA7219B6FC9
:102EA000000EA8219C6F000E016E0401000156EF78
:102EB00030F00401B391A0B8B381A098010187510B
:102EC0003E0802E23E0E876F8751872B036A480F48
:102ED000E96E010E0320EA6EB2C4EFFF0401B3A154
:102EE00001D0A088000178EF17F0B1C4B2F4E1D7A7
:102EF000176AF2BE178EF29E9EEC0FF017BEF28E8E
:102F00008EEF17F03F0ED8800101875503E10001D5
:102F1000F9D70101B0C4B1F40001E7D712000900EC
:102F2000F55210E0F6CFACF4F7CFADF4F8CFAEF435
:102F3000F5CFB0F4E7DFACC4F6FFADC4F7FFAEC425
:102F4000F8FFEDD712000900F6CFADF4F7CFAEF4DD
:102F5000F8CFAFF4F5CFB0F4D5DFADC4F6FFAEC413
:102F6000F7FFAFC4F8FF0401AC2F01D002D000017D
:102F7000EAD700011200EF520FE0EACFADF4E9CF3B
:102F8000ACF4EFCFB0F4BEDFADC4EAFFACC4E9FFF0
:102F9000E92AD8B4EA2AEFD7BCEF2FF0D9C5DBF580
:102FA000D8C5DAF5DBC503F00501DAC5E9FFDBC5F5
:102FB000EAFFEF5206E0DA2BD8B4DB2B0001F2D7A0
:102FC0000501D851DA5D006ED951DB59036E00C09E
:102FD00001F0000112000501D76BD66BD6510A082B
:102FE0003FE3D651CE25D86F000ECF21D96F000E0A
:102FF000D021DA6F000ED121DB6FFE6FDAC5FDF54F
:10300000D9C5FCF5D8C5FBF50601006B010E05011D
:10301000FF6F050E0601026FD50E016F000187DDFF
:10302000015203E0FF0E016E73D00501D551200857
:1030300014E0036AD751D225E96ED3510320EA6E1A
:10304000D551400806E2D5515A0803E3D55120096D
:1030500001D0D551EF6E010ED727010ED627BED76E
:10306000036AD751D225E96ED3510320EA6EEF6A85
:10307000D451100842E0D3C5D9F5D2C5D8F5000126
:103080008DDF01500308D8A002D0050136D0D3C58A
:10309000D9F5D2C5D8F582DF01C0D7F5D7C5D6F5A9
:1030A000030E0501D75DD65D1FE01EE3036AD6510E
:1030B000D225016ED351032201C0D8F503C0D9F542
:1030C000010ED65D036AD225E96ED3510320EA6E64
:1030D000EFCFDAF5D9C5EAFF01C0E9FFDAC5EFFFA6
:1030E000D6070001DDD70501036AD651D225E96E66
:1030F000D3510320EA6E2E0EEF6E010ED725036A20
:10310000D225E96ED3510320EA6EEF6A000E016EFC
:10311000000111EF1BF0D8B204D0050EEA6EEE0EDE
:10312000E96E006A016A026A036A0501EE6BEF6BE1
:10313000F06BF16BED51EC11EB11EA112CE0200E6C
:10314000F26FD890E637E737E837E937EE37EF37F1
:10315000F037F137ED51F15D08E1EC51F05D05E13B
:10316000EB51EF5D02E1EA51EE5D0FE3EA51EE5FF4
:10317000EB51D8A0EB3DEF5FEC51D8A0EC3DF05FF8
:10318000ED51D8A0ED3DF15FD88000360136023612
:103190000336F22FD6D7EEC5EFFFEFC5ECFFF0C533
:1031A000ECFFF1C5ECFF000112000301A551050180
:1031B000DE5DE26F0301A6510501DF59E36F0301F4
:1031C000A7510501E059E46F0301A8510501E15938
:1031D000E56FD892E96FE4C5E8F5E3C5E7F5E2C528
:1031E000E6F5ED6BEC6B96C3EBF595C3EAF50001E4
:1031F00092DF03C0E5F502C0E4F501C0E3F500C0CD
:10320000E2F5020E05010024006E000E0120016EA1
:10321000000E0220026E000E0320036E0001120059
:103220000501DF6BDE6BDD6B010EDC6FE36BE26BC8
:10323000E16BE06BDAC5E9FFDBC5EAFFEFCF00F039
:10324000ECCF01F0ECCF02F0ECCF03F00050E05DEA
:1032500009E10150E15D06E10250E25D03E1035046
:10326000E35D3AE0010EDC27000EDD23DE23DF23E1
:10327000DC35E56FDD35E66FDE35E76FDF35E86FAE
:10328000E537E637E737E837FC0EE51703019751D6
:103290000501E527030198510501E623000EE72308
:1032A000E823E8C5FEF5E7C5FDF5E6C5FCF5E5C58F
:1032B000FBF50601006B040E0501FF6F050E06010C
:1032C000026FE00E016F000132DC015203E0FF0EDD
:1032D000016E10D00501AED7DAC5E9FFDBC5EAFF04
:1032E000DCC5EFFFDDC5ECFFDEC5ECFFDFC5ECFFA5
:1032F000000E016E00013FEF1AF0020E0601105D94
:10330000006E000E1159016E000E1259026E000E71
:103310001359036E176F02C016F601C015F600C0F0
:1033200014F61B6B1A6B96C319F695C318F61F6F2C
:1033300002C01EF601C01DF600C01CF6000154DCE0
:103340000301A5510026A6510122A7510222A8512E
:10335000032200011200D5C503F00501D4C5E9FF21
:10336000D5C5EAFFEFCFDAF5ECCFDBF5ECCFDCF536
:10337000ECCFDDF5DD510301A85D15E311E1050199
:10338000DC510301A75D0FE30BE10501DB510301F4
:10339000A65D09E305E10501DA510301A55D03E33B
:1033A000000E016EC7D0D5C503F00501D4C5E9FFF5
:1033B000D5C5EAFFEFCFDAF5ECCFDBF5ECCFDCF5E6
:1033C000ECCFDDF5EACFDFF5E9CFDEF5D882050EEB
:1033D000EA6EE00EE96EDDC5E9F5DCC5E8F5DBC5B2
:1033E000E7F5DAC5E6F5ED6BEC6B96C3EBF595C347
:1033F000EAF5000190DEE0C500F0E1C501F0E2C5AC
:1034000002F0E3C503F0DFC5EAFFDEC5E9FFE3C56F
:10341000DDF5E2C5DCF5E1C5DBF5E0C5DAF5050172
:10342000DA536CE1DB536AE1DC5368E1DD5366E1BA
:10343000D5C503F0D4C5E9FFD5C5EAFFEFCFDAF56E
:10344000ECCFDBF5ECCFDCF5ECCFDDF5DDC5E1F560
:10345000DCC5E0F5DBC5DFF5DAC5DEF50001A5DE8C
:1034600003C0D9F502C0D8F501C0D7F500C0D6F524
:10347000050E0501DB6FD60EDA6F0001D1D60150C3
:10348000FF0805E1FF0E016E030154D00001D5C510
:1034900003F0D4C5DAF5D5C5DBF5D9C513F6D8C523
:1034A00012F6D7C511F6D6C510F6000126DF03C007
:1034B000DFF502C0DEF501C0DDF500C0DCF5010E70
:1034C0000301955D006E000E9659036E00500501D4
:1034D000DC25006E03500120016E000E0220026EFA
:1034E000000EDF21DBC5EAFFDAC5E9FF00C0EFFF10
:1034F00001C0ECFF02C0ECFFEC6E19D0D4C5E9FFAF
:10350000D5C5EAFF010EEF5C006E000EEC58016EAF
:10351000000EEC58026E000EEC58ED52ED52ED52DA
:1035200000C0EFFF01C0ECFF02C0ECFFEC6E000E2C
:10353000016E03010001B6EF1AF00501CEC5E9FFE7
:10354000CFC5EAFFEFCFD0F5ECCFD1F5ECCFD2F578
:10355000ECCFD3F51F0ED05F000ED15BD25BD35BF7
:10356000050ED56FD00ED46F0001F5D60150FF08BF
:1035700003E1FF0E016E0FD00501CEC5E9FFCFC5F7
:10358000EAFFD0C5EFFFD1C5ECFFD2C5ECFFD3C534
:10359000ECFF000E016E000121EF1BF00501C76B6F
:1035A000C3C5CDF5C2C5CCF5C1C5CBF5C0C5CAF5FF
:1035B000150ECA5DCE6F000ECB59CF6F000ECC59E1
:1035C000D06F000ECD59D16FFE6FD0C5FDF5CFC5C0
:1035D000FCF5CEC5FBF50601006B010E0501FF6F82
:1035E000050E0601026FC90E016F000197EC15F080
:1035F000015203E0FF0E016E97D00501C9510F087B
:103600001AE0CDC5D1F5CCC5D0F5CBC5CFF5CAC52F
:10361000CEF5C5C5D3F5C4C5D2F5C9C5D4F50001ED
:10362000DAD40150FF0803E1FF0E016E7DD0000ED9
:10363000016E7AD00501050ECF6FCA0ECE6F000164
:103640007CD70150FF0803E1FF0E016E6DD0010E23
:103650000501C66FC6511F0840E3C6510B0803E1C0
:103660000E0EC66F05D0C6511A0802E11C0EC66FB9
:10367000C651CA25CE6F000ECB21CF6F000ECC21D4
:10368000D06F000ECD21D16F036AC751C425016EE2
:10369000C551032201C0D2F503C0D3F5D1C5FEF553
:1036A000D0C5FDF5CFC5FCF5CEC5FBF50601006B19
:1036B000010E0501FF6F03C002F601C001F6000113
:1036C00097EC15F0015203E0FF0E016E2DD0020EB3
:1036D0000501C627010EC727BDD7CDC5FEF5CCC550
:1036E000FDF5CBC5FCF5CAC5FBF50601006B010E67
:1036F0000501FF6F050E0601026FC80E016F000184
:1037000097EC15F0015203E0FF0E016E0DD005019C
:10371000C8AD91D7036AC751C425E96EC5510320CE
:10372000EA6EEF6A000E016E000199EF24F00501C8
:10373000C0C5E9FFC1C5EAFFEFCFC4F5C3C503F0BB
:10374000C2C5E9FFC3C5EAFFEF50C45D15E1C1C5BD
:1037500003F0C0C5E9FF03C0EAFFEF5203E1000E2A
:10376000016E1FD0C1C503F0C051C02BD8B4C12B0E
:10377000C22BD8B4C32BDCD7C1C503F0C0C5E9FF49
:10378000C1C5EAFFEFCFC4F5C3C503F0C2C5E9FF69
:10379000C3C5EAFFEF50C45D02E2FF0E01D0010E87
:1037A000016E00011200DAC503F00501D9C5E9FF79
:1037B000DAC5EAFFEFCFDBF5ECCFDCF5ECCFDDF5DA
:1037C000ECCFDEF5DB37DC37DD37DE37DB37DC37F8
:1037D000DD37DE37FC0EDB17030197510501DB27D0
:1037E000030198510501DC23000EDD23DE23DEC535
:1037F000FEF5DDC5FDF5DCC5FCF5DBC5FBF5060119
:10380000006B040E0501FF6FDAC502F6D9C501F69B
:10381000000197EC15F0015203E0FF0E016E02D09B
:10382000000E016E120027C62DF626C62CF625C600
:103830002BF624C62AF627EC15F001C029F606015E
:10384000295303E029C601F012D02551010B2B6F3B
:103850002C6B2D6B910E2425E96E010E2B21EA6E47
:1038600028C6EFFF01018885000E016E06010001E8
:1038700073EF1CF006011E6B1D6B1E51195D3FE3BB
:1038800003E118511D5D3BE217C603F016C602F0B6
:1038900015C601F014C600F0010E1427D8B0152B80
:1038A000D8B4162BD8B4172B03C022F602C021F6C9
:1038B00001C020F600C01FF61BC603F01A511A2BD8
:1038C000D8B41B2BE96E03C0EAFFEFCF23F622C664
:1038D00027F602C026F601C025F600C024F623C64E
:1038E00028F60001A0D701C01CF606011C5303E016
:1038F0001CC601F006D01D2BD8B41E2BBED7000E5F
:10390000016E000112000501E535EE6FE635EF6F3F
:10391000E735F06FE835F16FEE37EF37F037F13715
:10392000FC0EEE17030197510501EE270301985194
:103930000501EF23000EF023F123F1C517F6F0C5C2
:1039400016F6EFC515F6EEC514F60601196B040E52
:10395000186F050E1B6FE90E1A6F00018BDF015205
:1039600003E0FF0E016E02D0000E016E1200C7C50B
:10397000CBF5C6C5CAF5C5C5C9F5C4C5C8F5CBC51F
:10398000CFF5CAC5CEF5C9C5CDF5C8C5CCF5050E70
:103990000501DA6FCC0ED96F000105DF0150FF0879
:1039A00003E1FF0E016E35D0CBC5E8F5CAC5E7F5DA
:1039B000C9C5E6F5C8C5E5F50501EC6BEB6BEA6B2F
:1039C000E96B0001A0DF0150FF0803E1FF0E016E6B
:1039D00020D0CFC5CBF5CEC5CAF5CDC5C9F5CCC570
:1039E000C8F50501C83D01D002D00001D0D7C93DBE
:1039F00001D002D00001CBD7CA3D01D002D00001D6
:103A0000C6D7CB510F08D8B402D00001C0D7000EE2
:103A1000016E000140EF26F0040E0501CE25016E77
:103A2000000ECF21036E01C0D0F5D16F140ECE254C
:103A3000E96E000ECF21EA6EEFCF00F0ECCF01F07F
:103A4000ECCF02F0ECCF03F0D1C5EAFFD0C5E9FF1F
:103A500000C0EFFF01C0ECFF02C0ECFF03C0ECFFB1
:103A6000100ECE25E96E000ECF21EA6EEFCF00F0EA
:103A7000ECCF01F0ECCF02F0ECCF03F0CFC5EAFFC2
:103A8000CEC5E9FF00C0EFFF01C0ECFF02C0ECFFB4
:103A900003C0ECFF0001FAEF21F00501E5C5E9FFE5
:103AA000E6C5EAFFEFCFF7F5ECCFF8F5ECCFF9F587
:103AB000ECCFFAF5F737F837F937FA37F737F83741
:103AC000F937FA37FC0EF717030197510501F7256F
:103AD000EF6F030198510501F821F06F000EF921F5
:103AE000F16F000EFA21F26FF66BF56BF46BF36B6E
:103AF000F6510301A05DD8A08DD016E10501F55166
:103B000003019F5DD8A086D00FE10501F4510301A8
:103B10009E5DD8A07FD008E19D510501F35DD8A03E
:103B200002D0030177D003010501F351EF25F76FB0
:103B3000F451F021F86FF551F121F96FF651F221AE
:103B4000FA6FFE6FF9C5FDF5F8C5FCF5F7C5FBF595
:103B50000601006B040E0501FF6F050E0601026FE2
:103B6000E70E016F000197EC15F0015203E0FF0E24
:103B7000016E53D0EAC5EEF5E9C5EDF5E8C5ECF503
:103B8000E7C5EBF50501EB533DE1EC533BE1ED53AC
:103B900039E1EE5337E1F351EF27F451F023F551BA
:103BA000F123F651F223E5C5E9FFE6C5EAFF03017B
:103BB00097510501EF5DF96F030198510501F05927
:103BC000FA6F000EF159FB6F000EF259FC6FFC31D9
:103BD000036EFB31026EFA31016EF931006E033271
:103BE0000232013200323F0E031600C0EFFF01C067
:103BF000ECFF02C0ECFF03C0ECFF000E016E000101
:103C00000CD00501040EF327000EF423F523F62350
:103C10006FD70301FF0E016E00011200E8C513F615
:103C2000E7C512F6E6C511F6E5C510F67DEC19F00C
:103C300003C00FF602C00EF601C00DF600C00CF670
:103C40000601096B09511F080BE3036A0951E90FCB
:103C5000E96E050E0320EA6EEF6A010E0927F2D71E
:103C60000B6B0A6B0B510301965D32E308E1955132
:103C700006010A5DD8A002D003012AD00301060183
:103C80000A510C25106F0B510D21116F000E0E21E2
:103C9000126F000E0F21136F176F12C616F611C6A2
:103CA00015F610C614F6196B200E186F050E1B6F53
:103CB000E90E1A6F0001DEDD015203E0FF0E016E16
:103CC0000AD0200E06010A27000E0B23CBD70301D2
:103CD000000E016E00011200040E0501D125E96EEF
:103CE000000ED221EA6EEFCFD4F5ECCFD5F5ECCFB4
:103CF000D6F5ECCFD7F51F0ED417D56BD66BD76B97
:103D0000D453D8A46CD0D5536AE1D65368E1D753C5
:103D100066E1040ED125E96E000ED221EA6EEFCFE6
:103D2000D4F5ECCFD5F5ECCFD6F5ECCFD7F5140E16
:103D3000D125E96E000ED221EA6EEFCF00F0ECCF74
:103D400001F0ECCF02F0ECCF03F00050D45D09E1BC
:103D50000150D55D06E10250D65D03E10350D75D09
:103D60003EE0040ED125E96E000ED221EA6EEFCFBF
:103D7000D4F5ECCFD5F5ECCFD6F5ECCFD7F5200EBA
:103D8000D45F000ED55BD65BD75B1A0ED125016ED2
:103D9000000ED221036E01C0D8F5D96FD7C517F632
:103DA000D6C516F6D5C515F6D4C514F60601196B99
:103DB000200E186F03C01BF601C01AF600015ADD71
:103DC00001520EE0190E0501D125E96E000ED22137
:103DD000EA6EEF504009EF6EFF0E016E25D0000134
:103DE000040E0501D125E96E000ED221EA6EEFCF57
:103DF000D4F5ECCFD5F5ECCFD6F5ECCFD7F51F0E3B
:103E0000D417D56BD66BD76B1A0ED425016E000E66
:103E1000D521036E0150D125E96ED2510320EA6EFF
:103E2000D3C5EFFF000E016E000116EF21F0D4C5DF
:103E300003F00501D3C5E9FFD4C5EAFFEFCFD9F5FB
:103E4000ECCFDAF5ECCFDBF5ECCFDCF5010ED927C2
:103E5000000EDA23DB23DC23EACFDEF5E9CFDDF544
:103E6000D882050EEA6EDF0EE96EDCC5E9F5DBC52A
:103E7000E8F5DAC5E7F5D9C5E6F5ED6BEC6B96C369
:103E8000EBF595C3EAF500018BEC18F0DFC500F007
:103E9000E0C501F0E1C502F0E2C503F0DEC5EAFFCE
:103EA000DDC5E9FFE2C5DCF5E1C5DBF5E0C5DAF526
:103EB000DFC5D9F50501D953D8A46BD0DA5369E130
:103EC000DB5367E1DC5365E1D4C503F0D3C5E9FFFB
:103ED000D4C5EAFFEFCFD9F5ECCFDAF5ECCFDBF5BF
:103EE000ECCFDCF5DCC5E1F5DBC5E0F5DAC5DFF5E7
:103EF000D9C5DEF50001D5EC18F003C0D8F502C035
:103F0000D7F501C0D6F500C0D5F5050E0501DA6F6D
:103F1000D50ED96F000147DC0150FF0803E1FF0E09
:103F2000016E54D00501D53D07D0D63D05D0D73D13
:103F300003D0D83D01D009D0D53D0CD0D63D0AD014
:103F4000D73D08D0D8510F0805E1FF0E016E0001E2
:103F50003DD00501D4C503F0D3C5D9F5D4C5DAF5F4
:103F6000D8C513F6D7C512F6D6C511F6D5C510F6C5
:103F700000017DEC19F0DAC5EAFFD9C5E9FF00C000
:103F8000EFFF01C0ECFF02C0ECFF03C0ECFF1CD050
:103F90000501D3C5E9FFD4C5EAFF010EEF24006E89
:103FA000000EEC20016E000EEC20026E000EEC20E4
:103FB000036EED52ED52ED5200C0EFFF01C0ECFF79
:103FC00002C0ECFFEC6E0001000E016E1200DAC5BB
:103FD000E0F5D9C5DFF5D8C5DEF5D7C5DDF5E0C517
:103FE000E4F5DFC5E3F5DEC5E2F5DDC5E1F5050E77
:103FF0000501E66FE10EE56F00014FDD0150FF089E
:1040000003E1FF0E016E5BD0E0C5E8F5DFC5E7F523
:10401000DEC5E6F5DDC5E5F5E4C5ECF5E3C5EBF594
:10402000E2C5EAF5E1C5E9F56EDC0150FF0803E100
:10403000FF0E016E44D0E4C5E8F5E3C5E7F5E2C53F
:10404000E6F5E1C5E5F50F0E0501EC6FEB69EA69F0
:10405000E969000158DC0150FF0803E1FF0E016E21
:104060002ED0E4C5E8F5E3C5E7F5E2C5E6F5E1C520
:10407000E5F5D4DD0150FF0803E1FF0E016E1FD00E
:10408000DCC503F0DBC5E5F5DCC5E6F5E4C513F6F4
:10409000E3C512F6E2C511F6E1C510F600017DECAC
:1040A00019F0E6C5EAFFE5C5E9FF00C0EFFF01C072
:1040B000ECFF02C0ECFF03C0ECFF000E016E12002B
:1040C000190E0501CF25E96E000ED021EA6EEFB280
:1040D00008D0190ECF25E96E000ED021EA6EEFA4AC
:1040E00066D1180ECF25E96E000ED021EA6EEF5290
:1040F000D8A45DD1040ECF25E96E000ED021EA6E62
:10410000EFCFD1F5ECCFD2F5ECCFD3F5ECCFD4F5A2
:10411000D45103019C5DD8A081D016E10501D35193
:1041200003019B5DD8A07AD00FE10501D2510301B4
:104130009A5DD8A073D008E199510501D15DD8A04E
:1041400002D003016BD00301030E0501E66FA10E3F
:10415000E56F0001A2DC0150FF0803E1FF0E016ED4
:1041600029D1A4C3E8F5A3C3E7F5A2C3E6F5A1C32B
:10417000E5F50F0E0501EC6FEB69EA69E9690001ED
:1041800083EC1CF00150FF0803E1FF0E016E12D119
:10419000A4C3E8F5A3C3E7F5A2C3E6F5A1C3E5F51B
:1041A0003DDD0150FF0803E1FF0E016E03D1040E57
:1041B0000501CF25016E000ED021036E01C0D1F59F
:1041C000D26F140ECF25016E000ED021036E01C0F8
:1041D000D3F5D46FA4C313F6A3C312F6A2C311F68A
:1041E000A1C310F600017DEC19F0D4C5EAFFD3C5D8
:1041F000E9FF00C0EFFF01C0ECFF02C0ECFF03C00D
:10420000ECFFD2C5EAFFD1C5E9FF00C0EFFF01C056
:10421000ECFF02C0ECFF03C0ECFF0301D0C5D2F5F8
:10422000CFC5D1F5CEC5D3F5000156D50150FF0855
:1042300003E1FF0E016EBED0040E0501CF25016E15
:10424000000ED021036E01C0D1F5D26FD46F01C032
:10425000D3F50001ECDD0150FF08D8A486D0040E90
:104260000501CF25E96E000ED021EA6EEFCFD1F522
:10427000ECCFD2F5ECCFD3F5ECCFD4F5200ED15F57
:10428000000ED25BD35BD45B010ED127000ED2238C
:10429000D323D4231A0ECF25016E000ED021036E36
:1042A00001C0D5F5D66FD4C517F6D3C516F6D2C55D
:1042B00015F6D1C514F60601196B200E186F03C050
:1042C0001BF601C01AF600013AEC1CF001520EE098
:1042D000190E0501CF25E96E000ED021EA6EEF50D0
:1042E0004009EF6EFF0E016E000164D0040E05015F
:1042F000CF25E96E000ED021EA6EEFCFD1F5ECCFDD
:10430000D2F5ECCFD3F5ECCFD4F5D4C5E1F5D3C5D8
:10431000E0F5D2C5DFF5D1C5DEF50001D5EC18F02A
:1043200003C0D4F502C0D3F501C0D2F500C0D1F569
:10433000040E0501CF25016E000ED021036E01C0D1
:10434000D5F5D66FD4C5DAF502C0D9F5D2C5D8F502
:1043500000C0D7F5DC6F01C0DBF5000138DE01508D
:10436000FF0803E1FF0E016E25D0100E0501CF25D9
:10437000E96E000ED021EA6E010EEF24006E000EF1
:10438000EC20016E000EEC20026E000EEC20ED52CF
:10439000ED52ED5200C0EFFF01C0ECFF02C0ECFF98
:1043A000EC6ECEC501F0000105D004D00501FF0E72
:1043B000016E000167EF22F0C5C503F00501C4C519
:1043C000E9FFC5C5EAFFEFCFCEF5ECCFCFF5ECCFD7
:1043D000D0F5ECCFD1F5CE5311E1CF530FE1D0534F
:1043E0000DE1D1530BE1C3C5CFF5C2C5CEF5000138
:1043F0000CEF1DF0000E016EF9D10501190EC2255A
:10440000E96E000EC321EA6EEFB208D0190EC22584
:10441000E96E000EC321EA6EEFA466D0100EC2252D
:10442000E96E000EC321EA6EEFCFCEF5ECCFCFF5EB
:10443000ECCFD0F5ECCFD1F5C4C5E9FFC5C5EAFF97
:10444000EFCF00F0ECCF01F0ECCF02F0ECCF03F0B7
:10445000D151035C49E30BE1D051025C45E307E134
:10446000CF51015C41E303E10050CE5D3DE2100E0F
:10447000C225E96E000EC321EA6EEFCFCEF5ECCF78
:10448000CFF5ECCFD0F5ECCFD1F5C4C5E9FFC5C56C
:10449000EAFFEFCF00F0ECCF01F0ECCF02F0ECCF71
:1044A00003F0D151035C1BE30BE1D051025C17E335
:1044B00007E1CF51015C13E303E10050CE5D0FE251
:1044C000CE6BC3C5D0F5C2C5CFF50001F9D50150FB
:1044D000FF0803E1FF0E016E89D10501C8D7000E68
:1044E000016E000183D10501C5C503F0C4C5E9FF14
:1044F000C5C5EAFFEFCFCEF5ECCFCFF5ECCFD0F5C9
:10450000ECCFD1F5EACFD3F5E9CFD2F5D892D1C52A
:10451000E9F5D0C5E8F5CFC5E7F5CEC5E6F5ED6B15
:10452000EC6B96C3EBF595C3EAF500018BEC18F044
:10453000D3C5EAFFD2C5E9FF03C0CDF502C0CCF573
:1045400001C0CBF500C0CAF5140E0501C225E96E05
:10455000000EC321EA6EEFCFCEF5ECCFCFF5ECCF56
:10456000D0F5ECCFD1F5D1C5E1F5D0C5E0F5CFC59B
:10457000DFF5CEC5DEF50001D5EC18F003C0C9F5B6
:1045800002C0C8F501C0C7F500C0C6F50501CA5391
:1045900006E1CB5304E1CC5302E1CD5314E0050E08
:1045A000DA6FC60ED96F0001D3EC1BF0015203E0A5
:1045B000FF0E016E1BD1010E0501CA5F000ECB5B21
:1045C000CC5BCD5BE4D7040EC225016E000EC32187
:1045D000036E01C0CEF5CF6FC9C513F6C8C512F67C
:1045E000C7C511F6C6C510F600017DEC19F0CFC5A0
:1045F000EAFFCEC5E9FF00C0EFFF01C0ECFF02C03B
:10460000ECFF03C0ECFF040E0501C225016E000E95
:10461000C32101C0CEF5CF6FEA6E01C0E9FFEFCF35
:10462000D0F5ECCFD1F5ECCFD2F5ECCFD3F5C5C5B5
:1046300003F0C4C5E9FFC5C5EAFFEFCFD4F5ECCF61
:10464000D5F5ECCFD6F5ECCFD7F5EACFD9F5E9CF54
:10465000D8F5D882050EEA6EDA0EE96ED7C5E9F50F
:10466000D6C5E8F5D5C5E7F5D4C5E6F5ED6BEC6B39
:1046700096C3EBF595C3EAF500018BEC18F0DAC5AB
:1046800000F0DBC501F0DCC502F0DDC503F0D9C5E3
:10469000EAFFD8C5E9FF0501D0510026D15101221A
:1046A000D2510222D3510322CFC5EAFFCEC5E9FF82
:1046B00000C0EFFF01C0ECFF02C0ECFF03C0ECFF45
:1046C000190EC225E96E000EC321EA6EEFA06DD06F
:1046D000100EC225E96E000EC321EA6EEFCFD0F5B1
:1046E000ECCFD1F5ECCFD2F5ECCFD3F5C4C5E9FFD3
:1046F000C5C5EAFFEFCF00F0ECCF01F0ECCF02F040
:10470000ECCF03F00050D05D006E0150D159016E26
:104710000250D259026E0350D359C3C5EAFFC2C535
:10472000E9FF00C0EFFF01C0ECFF02C0ECFFEC6E40
:10473000040EC225E96E000EC321EA6EEFCFCEF55E
:10474000ECCFCFF5ECCFD0F5ECCFD1F51A0EC225DA
:10475000016E000EC321036E01C0D2F5D36FD1C527
:10476000FEF5D0C5FDF5CFC5FCF5CEC5FBF50601C0
:10477000006B200E0501FF6F03C002F601C001F6B9
:10478000000197EC15F001520EE0190E0501C2254B
:10479000E96E000EC321EA6EEF502009EF6EFF0EA6
:1047A000016E000123D020D00501100EC225016E3C
:1047B000000EC32101C0CEF5C4C5E9FFC5C5EAFF9F
:1047C000EFCF00F0ECCF01F0ECCF02F0ECCF03F034
:1047D000EA6ECEC5E9FF00C0EFFF01C0ECFF02C0EA
:1047E000ECFF03C0ECFF0001000E016E8AEF26F023
:1047F0000501C0C5E9FFC1C5EAFFEFCFC2F5ECCFA7
:10480000C3F5ECCFC4F5ECCFC5F51F0EC227000EE3
:10481000C323C423C523050ED46FC20ED36F00017A
:1048200017EC1FF00150FF0803E1FF0E016E10D0DE
:104830000501C0C5E9FFC1C5EAFFC2C5EFFFC3C599
:10484000ECFFC4C5ECFFC5C5ECFF000E016E000116
:10485000120005019B6B140E9725E96E000E98213E
:10486000EA6EEFCF9CF5ECCF9DF5ECCF9EF5ECCF4B
:104870009FF59FC5FEF59EC5FDF59DC5FCF59CC544
:10488000FBF50601006B010E0501FF6F050E060129
:10489000026F9A0E016F000197EC15F001500501AF
:1048A0009B270B0E9C25C06F000E9D21C16F000E33
:1048B0009E21C26F000E9F21C36FFE6FC2C5FDF522
:1048C000C1C5FCF5C0C5FBF50601006B010E050175
:1048D000FF6F050E0601026F990E016F000197EC44
:1048E00015F0015005019B279B530CE0190E9725ED
:1048F000E96E000E9821EA6EEF502009EF6EFF0E70
:10490000016E37D39A51E508D8B414D39651995D06
:10491000D8A410D39FC5C3F59EC5C2F59DC5C1F5EA
:104920009CC5C0F5050EC56FA00EC46F0001CEEF8B
:104930001AF00150FF0805E1FF0E016E050119D3C1
:10494000000195C5C1F594C5C0F5050E0501C36FFD
:10495000A00EC26F000197EC1BF00152D8A4EBD25D
:104960000C0E05019725016E000E9821036E01C003
:10497000C0F5C16F140E9725E96E000E9821EA6EFE
:10498000EFCF00F0ECCF01F0ECCF02F0ECCF03F072
:10499000C1C5EAFFC0C5E9FF00C0EFFF01C0ECFFE1
:1049A00002C0ECFF03C0ECFF1C0E9C25C06F000E84
:1049B0009D21C16F000E9E21C26F000E9F21C36F0B
:1049C000100E9725016E000E9821036E01C0C4F5EC
:1049D000C56FC3C5FEF5C2C5FDF5C1C5FCF5C0C5B3
:1049E000FBF50601006B040E0501FF6F03C002F624
:1049F00001C001F6000197EC15F0015005019B275D
:104A0000140E9C25C06F000E9D21C16F000E9E21CB
:104A1000C26F000E9F21C36F140E9725016E000E0A
:104A20009821036E01C0C4F5C56F020EC427000EA5
:104A3000C523C3C5FEF5C2C5FDF5C1C5FCF5C0C59E
:104A4000FBF50601006B020E0501FF6FC5C502F6FE
:104A5000C4C501F6000197EC15F0015005019B2734
:104A60001A0E9C25C06F000E9D21C16F000E9E2165
:104A7000C26F000E9F21C36F140E9725016E000EAA
:104A80009821036E01C0C4F5C56FC3C5FEF5C2C54C
:104A9000FDF5C1C5FCF5C0C5FBF50601006B020EB6
:104AA0000501FF6F03C002F601C001F6000197EC9B
:104AB00015F0015005019B279B530CE0190E97251B
:104AC000E96E000E9821EA6EEF502009EF6EFF0E9E
:104AD000016E4FD2140E9725016E000E9821036EC1
:104AE00001C0C0F5C16F140E9725E96E000E982124
:104AF000EA6EEFCFC2F5ECCFC3F5ECCFC4F5ECCF47
:104B0000C5F5C5C513F6C4C512F6C3C511F6C2C5B1
:104B100010F600017DEC19F0C1C5EAFFC0C5E9FF40
:104B200000C0EFFF01C0ECFF02C0ECFF03C0ECFFD0
:104B3000080E05019725E96E000E9821EA6E9CC5C6
:104B4000EFFF9DC5ECFF9EC5ECFF9FC5ECFF100E6F
:104B50009725E96E000E9821EA6EEFCF00F0ECCFBA
:104B600001F0ECCF02F0ECCF03F098C5EAFF97C557
:104B7000E9FF00C0EFFF01C0ECFF02C0ECFF03C083
:104B8000ECFF96512008D8A4CAD1180E9725E96EDB
:104B9000000E9821EA6EEF6A190E9725E96E000E55
:104BA0009821EA6EEFA284D0100E9725E96E000ED0
:104BB0009821EA6EEE52EE52EC6AED52EF6AED5237
:104BC000EF6AED52EF6A000E98C5EAFF97C5E9FF5C
:104BD00000C0EFFF97C5ECFF02C0ECFF98C5ECFFEB
:104BE000140E9725E96E000E9821EA6EEFCFC0F5FE
:104BF000ECCFC1F5ECCFC2F5ECCFC3F503019C516E
:104C00000501C35D44E311E103019B510501C25D50
:104C10003EE30BE103019A510501C15D38E305E173
:104C2000030199510501C05D32E3140E9725E96E29
:104C3000000E9821EA6EEFCFC0F5ECCFC1F5ECCFB6
:104C4000C2F5ECCFC3F5C3C5E1F5C2C5E0F5C1C5FA
:104C5000DFF5C0C5DEF50001D5EC18F003C0C3F5E3
:104C600002C0C2F501C0C1F500C0C0F503C0C7F560
:104C700002C0C6F501C0C5F500C0C4F5B7EF1CF011
:104C80000150FF0805E1FF0E016E050172D1000120
:104C9000040E05019725E96E000E9821EA6EEE528A
:104CA000EE52EC6AED52EF6AED52EF6AED52EF6AA6
:104CB000190E9725E96E000E9821EA6EEFA4C7D071
:104CC000100E9725E96E000E9821EA6EEFCFC0F521
:104CD000ECCFC1F5ECCFC2F5ECCFC3F5C05307E183
:104CE000C15305E1C25303E1C353D8B4B0D0100E91
:104CF0009725016E000E9821036E01C0C0F5C16FAB
:104D000098C5C3F597C5C2F5C56F01C0C4F50001CC
:104D1000DCEF21F001C09BF5040E05019725E96E3B
:104D2000000E9821EA6EEFCFC0F5ECCFC1F5ECCFC5
:104D3000C2F5ECCFC3F51F0EC017C16BC26BC36BBE
:104D4000C0533BE1C15339E1C25337E1C35335E1AD
:104D5000040E9725E96E000E9821EA6EEFCFC0F59C
:104D6000ECCFC1F5ECCFC2F5ECCFC3F5200EC05FA0
:104D7000000EC15BC25BC35B1A0E9725016E000E6D
:104D80009821036E01C0C4F5C56FC3C5FEF5C2C549
:104D9000FDF5C1C5FCF5C0C5FBF50601006B200E95
:104DA0000501FF6F03C002F601C001F6000197EC98
:104DB00015F0015005019B274AD0040E9725E96E96
:104DC000000E9821EA6EEFCFC0F5ECCFC1F5ECCF25
:104DD000C2F5ECCFC3F5040E9725E96E000E9821BD
:104DE000EA6EEFCFC4F5ECCFC5F5ECCFC6F5ECCF4E
:104DF000C7F5C4511F0B006E016A026A036A0050B6
:104E0000C05F0150C15B0250C25B0350C35B1A0E0E
:104E10009725016E000E9821036E01C0C4F5C56F81
:104E2000C3C5FEF5C2C5FDF5C1C5FCF5C0C5FBF5A2
:104E30000601006B200E0501FF6F03C002F601C0E2
:104E400001F6000197EC15F0015005019B27190EA2
:104E50009725E96E000E9821EA6EEFA051D0040E5E
:104E60009725016E000E9821036E01C0C0F5C16F39
:104E7000140E9725E96E000E9821EA6EEFCF00F030
:104E8000ECCF01F0ECCF02F0ECCF03F0C1C5EAFFAC
:104E9000C0C5E9FF00C0EFFF01C0ECFF02C0ECFF9E
:104EA00003C0ECFF040E9725E96E000E9821EA6E10
:104EB000EFCFC0F5ECCFC1F5ECCFC2F5ECCFC3F529
:104EC0001A0E9725016E000E9821036E01C0C4F5DD
:104ED000C56FC3C5FEF5C2C5FDF5C1C5FCF5C0C5AE
:104EE000FBF50601006B200E0501FF6F03C002F603
:104EF00001C001F6000197EC15F001C09BF505011A
:104F00009B530CE0190E9725E96E000E9821EA6E6E
:104F1000EF502009EF6EFF0E016E2BD008D0180E57
:104F20009725E96E000E9821EA6E010EEF6E000ED5
:104F3000016E1FD00001050E0501C16F9C0EC06FF0
:104F4000000156DC0150FF0805E1FF0E016E05016E
:104F500010D0000105019A53D8A48BD4190E9725BF
:104F6000E96E000E9821EA6EEF508009EF6EFF0E99
:104F7000016E00011200010E0501376F926B335173
:104F8000E96E3451EA6EEF50720A000105E0050A3D
:104F900007E0160A09E00DD0010E0501716F0DD072
:104FA000020E0501716F09D0040E0501716F05D065
:104FB0000001FF0E016E20D10501010E3325E96EBF
:104FC000000E3421EA6EEF50620801E17187A8C338
:104FD00067F5A7C366F5A6C365F5A5C364F567C500
:104FE0006FF566C56EF565C56DF564C56CF5036A4C
:104FF00037513125E96E32510320EA6EEF520EE04F
:10500000036A37513125E96E32510320EA6EEF50C1
:105010002F0801E1922B010E3727E9D7010E376FD8
:10502000925367E0936B036A37513125E96E325131
:105030000320EA6EEF502F0829E0036A375131252B
:10504000E96E32510320EA6EEF5205E1FF0E016E68
:105050000001D2D00501036A9351380F016E050E8D
:10506000032203C095F5036A37513125E96E3251A9
:105070000320EA6EEFCF96F595C5EAFF01C0E9FF80
:1050800096C5EFFF010E37279327CDD7010E37279F
:10509000036A9351380FE96E050E0320EA6EEF6A3A
:1050A000050E956F380E946F100E966F050E986F63
:1050B000580E976F000129EC24F0015216E005010B
:1050C000718F36C503F035C5E9FF36C5EAFF050E19
:1050D000E26E580EE16E3A0E016EE6CFEEFF012E43
:1050E000FCD7FF0E016E000187D0010E0501925F13
:1050F00097D7036A37513125E96E32510320EA6EA2
:10510000EF5215E136C503F035C5E9FF36C5EAFFB4
:10511000050EE26E580EE16E3A0E016EE6CFEEFF1E
:10512000012EFCD7000E016E000166D00501936BC5
:10513000036A37513125E96E32510320EA6EEF528E
:105140001BE0036A9351380F016E050E032203C062
:1051500095F5036A37513125E96E32510320EA6E25
:10516000EFCF96F595C5EAFF01C0E9FF96C5EFFFC1
:10517000010E37279327DCD7036A9351380FE96E66
:10518000050E0320EA6EEF6A050E956F380E946FD8
:10519000200E966F050E986F580E976F000129EC40
:1051A00024F0015216E00501718F36C503F035C5B4
:1051B000E9FF36C5EAFF050EE26E580EE16E3A0EC3
:1051C000016EE6CFEEFF012EFCD7FF0E016E00014F
:1051D00013D036C503F0050135C5E9FF36C5EAFF32
:1051E000050EE26E580EE16E3A0E016EE6CFEEFF4E
:1051F000012EFCD7000E016E0001F0EF2EF005012C
:10520000356B346B32C503F031C5E9FF32C5EAFFB7
:105210003351EF5C04E132C535F531C534F532C5A3
:1052200003F031C5E9FF32C5EAFFEF5205E134C5AD
:1052300001F035C502F004D0312BD8B4322BE2D7BF
:10524000000106EF2FF005016F6B036A6F516D25AA
:10525000E96E6E510320EA6EEF522DE06F511F0888
:105260002AE3036A6F516D25E96E6E510320EA6EE1
:10527000EFCF70F57051220818E070512A0815E040
:1052800070512F0812E070513A080FE070513C083D
:105290000CE070513D0803E270513F0806E2705186
:1052A0005C0803E070517C0803E1FF0E016E05D03D
:1052B000010E6F27CAD7000E016E000173EF2DF0AB
:1052C000A1C503F00501A0C5E9FFA1C5EAFFA251F0
:1052D000EF5C12E0A1C503F0A0C5E9FFA1C5EAFF9C
:1052E000EF5204E1000E016E026E0AD0A02BD8B47A
:1052F000A12B0001E5D70501A0C501F0A1C502F071
:1053000000011200AAC3EAFFA9C3E9FF0501ACC569
:10531000EFFFE92AD8B4EA2AEF6A0301A92BD8B42F
:10532000AA2B0001D6EF29F0E9500501A46F3B0E2E
:10533000AB6F9A0EAA6FCA0EA96FA86B0A0EA66F62
:10534000D882050EEA6EA00EE96EA3C5E9F5A2C5E6
:10535000E8F5A1C5E7F5A0C5E6F5ABC5EDF5AAC52D
:10536000ECF5A9C5EBF5A8C5EAF500018BEC18F042
:105370000150005213E10501A651010AD8A402D040
:1053800000010CD0A4510CE00F0BA65D01E00FE270
:10539000A4BF0DD0A4BD04D0200E03D00501A46B82
:1053A000300E002600C0ACF50001ACD70501D89244
:1053B000ABC5E9F5AAC5E8F5A9C5E7F5A8C5E6F5C1
:1053C000ED6BEC6BEB6B0A0EEA6F00018BEC18F0E7
:1053D00003C0ABF502C0AAF501C0A9F500C0A8F54D
:1053E0000501A62FADD7000149EF2BF0200E0501D6
:1053F000756F766F776F786F796F7A6F7B6F7C6F71
:105400007D6F7E6F7F6F806B816F826F836F846F24
:10541000856F866F876F886F896F8A6F8B6F8C6BD4
:105420008D6F8E6F8F6F906F916F926F936B966B86
:10543000976B9B6B9A6B996B986B72C5A1F571C555
:10544000A0F52E0EA26F00013BDF01C095F505010E
:1054500095534AE19751070846E3036A965171252F
:10546000E96E72510320EA6EEF523DE0036A9751F4
:10547000750F016E050E032201C0A0F503C0A1F552
:10548000036A96517125E96E72510320EA6EEFCFDF
:10549000A2F5A251600806E2A2517A0803E3A251E4
:1054A000DF0B01D0A251A1C5EAFFA0C5E9FFEF6E55
:1054B000010E97279627036A96517125E96E72515E
:1054C0000320EA6EEF502E080AE0036A9651712518
:1054D000E96E72510320EA6EEF50200803E1010EDD
:1054E0009627E9D7B7D75BD0010E715D006E000E2D
:1054F00072590050955F97510A0851E3036A96511B
:105500007125E96E72510320EA6EEF5248E0036A9A
:105510009751750F016E050E032201C0A0F503C05F
:10552000A1F5036A96517125E96E72510320EA6E66
:10553000EFCFA2F5A251600806E2A2517A0803E378
:10554000A251DF0B01D0A251A1C5EAFFA0C5E9FF1E
:10555000EF6E010E97279627036A96517125E96E23
:1055600072510320EA6EEF502E080AE0036A96514A
:105570007125E96E72510320EA6EEF50200803E1B5
:10558000010E9627E9D79551965D03E1080E976FB6
:1055900005D09751080802E195C596F5ACD770C5BE
:1055A0009FF56FC59EF56EC59DF56DC59CF50B0EFF
:1055B0009C25A06F000E9D21A16F000E9E21A26F61
:1055C000000E9F21A36FFE6FA2C5FDF5A1C5FCF5DE
:1055D000A0C5FBF50601006B010E0501FF6F050E6E
:1055E0000601026F940E016F000197EC15F0015255
:1055F00003E0FF0E016E3DD105019453D8B40CD1E8
:105600009451200804E094511008D8A4A9D09FC553
:10561000FEF59EC5FDF59DC5FCF59CC5FBF5060197
:10562000006B0B0E0501FF6F050E0601026F810E68
:10563000016F000197EC15F0015203E0FF0E016EBF
:1056400018D105018C6B050EC16F810EC06F050E60
:10565000C36F750EC26F000197EC1BF00152D8A406
:1056600080D0010E05019827000E99239A239B23D1
:10567000050E0301AA6F8D0EA96F410EE96E9BC541
:10568000A3F59AC5A2F599C5A1F598C5A0F50001A5
:105690004BD60501966B050EA16F750EA06F200EFF
:1056A000A26F00010DDE01C097F5050197530DE1D2
:1056B000050ED96F8D0ED86F0001CEEC17F0070ED6
:1056C000D88001540501976F02D0770E975F0A0EBC
:1056D000946F9B5307E19A5305E1995303E1945169
:1056E000985D07E3010E975F94510A0DF3CF94F58F
:1056F000F0D7036A9751750FE96E050E0320EA6E25
:105700007E0EEF6E010E9727036A96518D0FE96E9C
:10571000050E0320EA6EEF521BE0036A9751750FE6
:10572000016E050E032203C0A1F5036A96518D0F89
:10573000E96E050E0320EA6EEFCFA2F5A1C5EAFFE0
:1057400001C0E9FFA2C5EFFF010E97279627DCD71E
:1057500070C59FF56FC59EF56EC59DF56DC59CF531
:105760000001050E0501C16F9C0EC06F0001F8EC31
:1057700023F00150FF0828E19FC5E1F59EC5E0F543
:105780009DC5DFF59CC5DEF5D5EC18F003C0A3F58B
:1057900002C0A2F501C0A1F500C0A0F503C0DAF572
:1057A00002C0D9F501C0D8F500C0D7F5050E050136
:1057B000DC6F9C0EDB6F0001E7EC1FF00150FF086F
:1057C00003E1FF0E016E55D00B0E05019C25A06F65
:1057D000000E9D21A16F000E9E21A26F000E9F2141
:1057E000A36FFE6FA2C5FDF5A1C5FCF5A0C5FBF535
:1057F0000601006B010E0501FF6F050E0601026F29
:10580000940E016F000197EC15F0015203E0FF0EBA
:10581000016E2FD0F1D605019F6B9E6B9D6B9C6B2B
:105820009F5325E19E5323E19D5321E19C510B0899
:105830001EE373519C25016E74519D21036E01C0BE
:10584000A0F5A16F750E9C25E96E050E9D21EA6EEF
:10585000EFCFA2F503C0EAFF01C0E9FFA2C5EFFF49
:10586000010E9C27000E9D239E239F23D9D7000E57
:10587000016E00018CEF2DF00501706B0B0E6F6F48
:105880006F5318E070A102D0800E01D0000E716F2E
:10589000D890703171276EC503F06D516D2BD8B45F
:1058A0006E2BE96E03C0EAFFEF507125706F010E99
:1058B0006F5FE6D770C501F0000199EF2DF005018B
:1058C0006DC5E9FF6EC5EAFFEFCF70F5ECCF71F55E
:1058D000ECCF72F5ECCF73F573C5FEF572C5FDF52F
:1058E00071C5FCF570C5FBF50601006B010E0501E5
:1058F000FF6F050E0601026F6F0E016F000197EC3E
:1059000015F0015203E0FF0E016E66D005016F53E2
:1059100054E01F0E7027000E712372237323050EAF
:10592000D46F700ED36F000117EC1FF00150FF0809
:1059300028E173C5E1F572C5E0F571C5DFF570C505
:10594000DEF5D5EC18F003C077F502C076F501C09E
:1059500075F500C074F503C0DAF502C0D9F501C0D1
:10596000D8F500C0D7F5050E0501DC6F700EDB6FB2
:105970000001E7EC1FF00150FF0803E1FF0E016E8C
:105980002BD073C5FEF572C5FDF571C5FCF570C56C
:10599000FBF50601006B010E0501FF6F050E060108
:1059A000026F6F0E016F000197EC15F0015203E0DA
:1059B000FF0E016E11D0AAD705016DC5E9FF6EC5B6
:1059C000EAFF70C5EFFF71C5ECFF72C5ECFF73C550
:1059D000ECFF000E016E0001120005016D516E1901
:1059E000800B706F6DAF02D06D1F6D2B6EAF02D04C
:1059F0006E1F6E2B6E51016A6D5D03E26DC500F086
:105A00000CD0006A080E6F6F6D3700366E51005C67
:105A1000D8B0006E01366F2FF7D770AF02D0011EDD
:105A2000012A0001120070C571F5050171510C08C1
:105A30004DE37151040817E3D8907135010F036AE3
:105A40006D25E96E6E510320EA6E6FC5EFFFD890A9
:105A50007135020F036A6D25E96E6E510320EA6EFF
:105A60006FC5EFFF30D071510A0817E3D890713538
:105A7000040F036A6D25E96E6E510320EA6E6FC54F
:105A8000EFFFD8907135050F036A6D25E96E6E51F1
:105A90000320EA6E6FC5EFFF16D0D8907135060F60
:105AA000036A6D25E96E6E510320EA6E6FC5EFFF44
:105AB000D8907135070F036A6D25E96E6E5103208A
:105AC000EA6E6FC5EFFF010E7127B0D7000112001B
:105AD0000501456B010E686F38C56EF537C56DF56C
:105AE000000123EF29F00150FF0803E1FF0E016ED2
:105AF0005FD134C570F533C56FF532C56EF531C56C
:105B00006DF538C572F537C571F5050E0501746F71
:105B1000390E736F00016AD40150FF0803E1FF0ED4
:105B2000016E46D1050E05016E6F390E6D6F0001D5
:105B3000A3D601C046F50501676B67511F080BE34B
:105B4000036A6751470FE96E050E0320EA6EEF6A9C
:105B5000010E6727F2D734C56CF533C56BF532C536
:105B60006AF531C569F5050E6E6F690E6D6F00013E
:105B7000A6DE0150FF0803E1FF0E016E19D10F0EE2
:105B80000501526F38C5D9F537C5D8F50001CEECFF
:105B900017F001C045F545C56DF50D0E05016E6F99
:105BA00000011BDF00C045F5050145530CE0010E67
:105BB0004527050E6E6F470E6D6F6F6945C570F511
:105BC000000131DF050138C5D9F537C5D8F5000129
:105BD000CEEC17F001C045F545C56DF50D0E05017C
:105BE0006E6F0001FADE010E01240501686F45C5E4
:105BF0006DF50D0E6E6F0001F0DE005204E1010E36
:105C00000501685F00010501688D45BFAAD045C543
:105C10006DF50D0E6E6F0001E0DE00C067F5050149
:105C2000675104081CE3D8906735010F036A470FDA
:105C3000016E050E032201C06DF503C06EF5036A07
:105C400045513725E96E38510320EA6EEFCF6FF5E5
:105C50006EC5EAFF01C0E9FF6FC5EFFF38D067519D
:105C60000A081CE3D8906735040F036A470F016EDA
:105C7000050E032201C06DF503C06EF5036A4551A0
:105C80003725E96E38510320EA6EEFCF6FF56EC508
:105C9000EAFF01C0E9FF6FC5EFFF19D0D890673563
:105CA000060F036A470F016E050E032203C06EF54F
:105CB000036A45513725E96E38510320EA6EEFCF6C
:105CC0006FF56EC5EAFF01C0E9FF6FC5EFFF6753CF
:105CD000D8A444D038C5D9F537C5D8F50001CEECE5
:105CE00017F001500501455D39E068C547F545539A
:105CF00002E03F0E6817010E685F46C554F56CC59B
:105D000017F66BC516F66AC515F669C514F60601D1
:105D1000196B200E186F050E1B6F470E1A6F0001CE
:105D20003AEC1CF0015203E0FF0E016E41D0050E6B
:105D300005016E6F690E6D6F0001C1DD0150FF0836
:105D400003E1FF0E016E34D0050E05016E6F470EA4
:105D50006D6F6F6B706B000166DE0501010E455FB4
:105D600054D76CC517F66BC516F66AC515F669C526
:105D700014F60601196B0B0E186F050E1B6F390E0A
:105D80001A6F00013AEC1CF0015203E0FF0E016EA5
:105D90000FD0050135C5E9FF36C5EAFF69C5EFFF3C
:105DA0006AC5ECFF6BC5ECFF6CC5ECFF000E016E25
:105DB00000015CEF2FF0720E0401CE6FCF6BF16B20
:105DC000ADC432F5ACC431F5040E0501346FCE0E0E
:105DD000336F040E366FF70E356F0001BBEF27F0FF
:105DE000015203E1FF0E016EB3D0050110BF05D0D3
:105DF000FF0E016E0001ACD00501ADC432F5ACC49C
:105E000031F52F0E336F0001FFEF28F002C032F59D
:105E100001C031F50401AC510501315F0401AD5100
:105E20000501325B010E31250401F26F036AF25164
:105E3000AC25E96EAD510320EA6EEF5222E0F1513C
:105E40001F081FE3036AF151AE0F016E040E032217
:105E5000050103C032F5036A0401F251AC25E96E75
:105E6000AD510320EA6EEFCF33F5050132C5EAFFED
:105E700001C0E9FF33C5EFFF010E0401F227F1274E
:105E8000D5D7036AF151AE0FE96E040E0320EA6E16
:105E9000EF6A0EC534F50DC533F50CC532F50BC5EB
:105EA00031F5040E0501366FF30E356F040E386FB1
:105EB000AE0E376F00010CD60150FF0803E1FF0E54
:105EC000016E46D00401D06BD0511F080BE3036A6A
:105ED000D051D10FE96E040E0320EA6EEF6A010E75
:105EE000D027F2D7200EDC6FF6C4FEF5F5C4FDF521
:105EF000F4C4FCF5F3C4FBF50601006B0B0E0501C1
:105F0000FF6F040E0601026FD10E016F000197ECC6
:105F100015F0015203E0FF0E016E1AD0F6C417F619
:105F2000F5C416F6F4C415F6F3C414F60601196B9D
:105F3000200E186F040E1B6FD10E1A6F00013AEC81
:105F40001CF0015203E0FF0E016E02D0000E016E44
:105F5000CDEF2FF09E0EF66E220EF76E000EF86E4D
:105F60000F0E0401AC6F0001A3EC17F0ABC4EAFF05
:105F7000AAC4E9FFBBEF17F0AF0EF66E220EF76E64
:105F8000000EF86E030E0401AC6F0001A3EC17F0D5
:105F9000ABC4ADF4AAC4ACF40ED7015209E0B40E00
:105FA000F66E220EF76E000EF86E8FEC17F008D02A
:105FB0004F0E9EA8FED7AE6E4B0E9EA8FED7AE6EBD
:105FC00069EF30F0F86AD09E078E0E01550EA76E6D
:105FD000AA0EA76EBF91140EF76F060ED36F550E63
:105FE000A76EAA0EA76EBF81FE0E006E0D0E016E8B
:105FF000020EE96E000EEA6EEE6A002EFDD7012E4B
:10600000FBD7980E006E020E016E180EE96E0D0E93
:10601000EA6EEE6A002EFDD7012EFBD77E86E10EDA
:10602000B06E040E7F6EA60EAD6E900EAC6E8A9CA6
:106030000301AA6BA96BFF0E0F01486FC29CC29EA1
:106040004951E00B1F09496F0101886B0F01256B56
:10605000D16AD26A1C6A040E1D6E0C0E1E6E0101FE
:106060008B6B8C6B4C0E0301AB6F6F0EAC6F670EBE
:10607000AD6F2E0EAE6F740EAF6F780EB06F740EE4
:10608000B16FB26B9B8C176AF2BE178EF29E000145
:10609000BFEC09F017BEF28EC5EF11F0D1EF11F091
:1060A000015217E0B0EC11F022EF16F001520AE0B5
:1060B000C80EF66E220EF76E000EF86E8FEC17F01B
:1060C000FFD707D0030E0401AB6FAB0EAA6F000120
:0660D00041D7E4D70300F4
:020000040001F9
:08FFF8009AF73DFF61F880FB60
:00000001FF
;PIC18F47J53
;CRC=BD15  CREATED="04-Ene.-17 16:54"
