:04100000F4EF0BF00E
:08100800046ED8CF05F0E0CF23
:1010100006F00001E9CF0CF0EACF07F0E1CF08F0CD
:10102000E2CF09F0D9CF0AF0DACF0BF0F3CF12F00C
:10103000F4CF13F0FACF14F0F5CF15F0F6CF16F089
:10104000F7CF17F0F8CF18F0FBCF19F000C00EF073
:1010500001C00FF002C010F003C011F0F2A834EF8D
:1010600008F0F2B240EF0BF00EC000F00FC001F03C
:1010700010C002F011C003F00CC0E9FF07C0EAFF86
:10108000078E08C0E1FF09C0E2FF0AC0D9FF0BC00C
:10109000DAFF12C0F3FF13C0F4FF14C0FAFF15C04B
:1010A000F5FF16C0F6FF17C0F7FF18C0F8FF19C00C
:1010B000FBFF045006C0E0FF05C0D8FF1000F76A30
:1010C000D20FF66E100EF722000EF86E0900F550E2
:1010D00012000D090EBA157116311A7A1B731C61B4
:1010E0001D771E322163227823642465253426333C
:1010F00029202A762B662C742D722E35316E3262A1
:101100003368346735793636392C3A6D3B6A3C752D
:101110003D373E38412C426B4369446F4530463978
:10112000492E4A2D4B6C4CF14D704E2052B45460F8
:1011300055A15A0D5B0A5DE7613C662069316B344D
:101140006C377030712E7232733574367538792B76
:101150007A337B2D7C2A7D390000F76A6E0FF66E9C
:10116000110EF722000EF86E0900F55012000D095D
:101170000EAA155116211A5A1B531C411D571E2227
:101180002143225823442445252426B729202A56C2
:101190002B462C542D522E25314E324233483447A3
:1011A00035593626394C3A4D3B4A3C553D2F3E2861
:1011B000413B424B4349444F453D4629493A4A5FEA
:1011C0004B4C4CD14D504E3F52A8545E55BF5A0D1A
:1011D0005B2A5DC7613E662069316B346C377030C5
:1011E000712E7232733574367538792B7A337B2DC4
:1011F0007C2A7D39000093948A94080E016E00D0F9
:101200000000018E0ED0019E6333D8B08A84D8A02E
:101210008A94018C06D0019C012EF6D700D00000E4
:101220008A84CA0EE96EE92EFED7000001BEEBD714
:1012300001BCF1D71200EA6A690EE96EEF500EE0C8
:101240000F0E016E006A002EFED7012EFBD78F0E07
:10125000006E002EFED70000EF2EF2D712009592FE
:101260008C92675302E18C9001D08C80959068A994
:1012700003D095948C8402D095948C9468AB03D061
:1012800095968C8602D095968C9668AD03D09598ED
:101290008C8802D095988C9868AF03D0959A8C8AE8
:1012A00002D0959A8C9A270E006E002EFED700D0A1
:1012B00095928C82010E696FBEDF95928C92010E21
:1012C000696FB9DF68A103D095948C8402D095949E
:1012D0008C9468A303D095968C8602D095968C96B4
:1012E00068A503D095988C8802D095988C9868A7AB
:1012F00003D0959A8C8A02D0959A8C9A270E006E0C
:10130000002EFED700D095928C82010E696F93DF7C
:1013100095928C92010E696F8EDF1200010E655D51
:10132000FC0F13E2040FAAEF09F07F0E6425666F2D
:101330000CD0BF0E6425666F08D08F0E6425666FD3
:1013400004D0CF0E6425666F00D0676B66C068F06E
:1013500086DF1200E824F76AF736750FF66E130E73
:10136000F722000EF86EFB6E0A00F550FA6E0800C8
:10137000F550F96E2A1332133A13421363510C0AD3
:1013800003E0060A0AE00ED0676B010E686F67DFA4
:10139000010E646F656FC2DF0BD0646B020E656F68
:1013A000BDDF06D0010E676F63C068F058DF00D064
:1013B00012005252D8A457D16051F00A07E0E20A55
:1013C00008E04B0A09E0030A0AE00ED0010E526E53
:1013D00049D1010E536E46D1010E536E43D1536A6B
:1013E0002A0E636F08DF3ED15352D8A4A0D0616BA0
:1013F000D8906135636B626F63C003F062515FDE4A
:10140000605D0DE0D8906135656B646F65C003F079
:10141000645155DE016E015202E0612BE9D7D8908C
:101420006135636B626F63C003F0625148DE605DDB
:101430001BE16051660818E1260626C064F0010E23
:10144000656F6CDFD8906135636B626F010E62254A
:10145000016E000E6321036E015031DE626F636F17
:101460008DDF230E636FC7DED8906135636B626FCB
:1014700063C003F0625123DE605D48E1605166089D
:1014800045E026500F0806E326C064F0010E656FA4
:1014900045DF07D0100E265C626F646F020E656F29
:1014A0003DDFD8906135636B626F010E6225016E7E
:1014B000000E6321036E015002DE626F636F5EDF18
:1014C000036A26502A0FE96E000E0320EA6ED890B8
:1014D0006135656B646F010E6425016E000E652138
:1014E000036E0150ECDDEF6E036A26502A0FE96EA1
:1014F000000E0320EA6EEFCF62F062C063F07BDE85
:101500002650262A200802E1010E266ED890613569
:10151000636B626F63C003F06251D1DD605D06E111
:1015200060515B0803E1210E636F65DE9AD0616B49
:10153000D8906135636B626F63C003F062510DDE5A
:10154000605D0DE0D8906135656B646F65C003F038
:10155000645103DE016E015202E0612BE9D7D8909D
:101560006135636B626F63C003F06251F6DD605DED
:10157000D8A477D0D8906135636B626F63C003F0F5
:101580006251EBDD605D1BE16051660818E12606E3
:1015900026C064F0010E656FC1DED8906135636BC3
:1015A000626F010E6225016E000E6321036E015011
:1015B000D4DD626F636FE2DE230E636F1CDED890B2
:1015C0006135636B626F63C003F06251C6DD605DBD
:1015D00048E16051660845E026500F0806E326C042
:1015E00064F0010E656F9ADE07D0100E265C626F04
:1015F000646F020E656F92DED8906135636B626F27
:10160000010E6225016E000E6321036E0150A5DDFF
:10161000626F636FB3DE036A26502A0FE96E000E15
:101620000320EA6ED8906135656B646F010E642506
:10163000016E000E6521036E01508FDDEF6E036AAF
:1016400026502A0FE96E000E0320EA6EEFCF62F0FB
:1016500062C063F0D0DD2650262A200802E1010E88
:10166000266E00D00BD0526A6051120A03E04B0A7A
:1016700003E004D0536A02D0536A00D054EF0BF059
:1016800023500A080CE32350020809E2D8905F3285
:101690009386506A81B6502A502C01D05F8E232E3B
:1016A00008D05FC060F085D65F6A0B0E236E010E16
:1016B0004E6E010E4E6E4F2AF298F29234EF08F001
:1016C0000A20202020202020202020202020202030
:1016D000202000001B6AF2BE1B8EF29E320E696F44
:1016E000AADD1BBEF28E1B6AF2BE1B8EF29E676BDA
:1016F000330E686FB4DD1BBEF28E1B6AF2BE1B8E0A
:10170000F29E676B320E686FAADD1BBEF28E1B6AFB
:10171000F2BE1B8EF29E676B280E686FA0DD1BBEAB
:10172000F28E1B6AF2BE1B8EF29E676B0C0E686F08
:1017300096DD1BBEF28E1B6AF2BE1B8EF29E676B9D
:10174000010E686F8CDD1BBEF28E1B6AF2BE1B8E13
:10175000F29E010E646F656FE1DD1BBEF28EB4EF89
:101760000BF00B0E236EB6D726EF0CF0938281B2EE
:10177000FED7080E006E556A008E0ED0009E0CD06B
:10178000D89081B2D8805532008C06D0009C002EB3
:10179000F7D755C001F00BD0CA0E00BE370E016E50
:1017A000012EFED700BEEAD700BCF0D7E9D742EF42
:1017B0000CF00900F55216E0F6CF55F0F7CF56F0D1
:1017C000F8CF57F01B6AF2BE1B8EF29EF5CF63F086
:1017D000D5DD1BBEF28E55C0F6FF56C0F7FF57C0D1
:1017E000F8FFE7D767EF0CF0F86AD09E078EEA6A39
:1017F000E96A93948A84010E256E266E276E286E00
:10180000296E526A536A546A0101886BFF0E0F01F8
:10181000486FC29CC29E4951E00B1F09496F256B5E
:10182000D16AD26A1C6A1D6A9B8C000E926E936EFE
:10183000956E969096929694946EF18E200E926E7E
:101840000F0E936E000E956E00018BD71B6AF2BED1
:101850001B8EF29E4D0E636F91DD1BBEF28E938048
:101860009386939A8A9A4F6A4E6A506AF19CF292D2
:10187000F288C00EF212000E81A2010E000AD8B446
:1018800083D074D701C04DF04D50230802E12706E4
:101890007BD04D502A0811E04D5023080EE04D50EA
:1018A00021080BE0036A27503B0FE96E000E03206E
:1018B000EA6E4DC0EFFF272A67D04D502A085FE13E
:1018C000C00EF66E160EF76E000EF86E72D7292C4B
:1018D00028D0242C01D002D0000E00D02750245C48
:1018E0001FE21B6AF2BE1B8EF29E24C064F0020E41
:1018F000656F14DD1BBEF28E036A24503B0FE96E48
:10190000000E0320EA6EEFCF55F01B6AF2BE1B8E6D
:10191000F29E55C063F032DD1BBEF28E242ADED764
:101920002DD0020E296E295229E0282C01D002D098
:10193000000E00D02750285C21E21B6AF2BE1B8EED
:10194000F29E28C064F0020E656FE8DC1BBEF28ECA
:10195000036A28503B0FE96E000E0320EA6EEFCFBA
:1019600055F01B6AF2BE1B8EF29E55C063F006DD79
:101970001BBEF28E010E296E282ADCD705D04D50F1
:10198000210802E1020E296E4E2C03D04E6AF2921B
:06199000F28871D703008C
:020000040001F9
:08FFF8009AF73DFF61F880F962
:00000001FF
;PIC18F47J53
;CRC=AC12  CREATED="07-Abr.-16 13:59"
