:0410000065EF0AF09E
:08100800EA6A3E0EE96EEF50AA
:101010000EE00F0E016E006A002EFED7012EFBD7E8
:101020008F0E006E002EFED70000EF2EF2D71200BA
:101030003D6A3D6A3C5203E13B503D5C4EE2036A2F
:101040001D50280FE96E000E0320EA6EEFCF3EF030
:10105000956A3EC08CFF96908D80020E3E6ED4DF66
:1010600096908D90036A1E50280FE96E000E0320A3
:10107000EA6EEFCF3EF0956A3EC08CFF929A898A65
:10108000020E3E6EC1DF929A899A036A1F50280FA2
:10109000E96E000E0320EA6EEFCF3EF0956A3EC087
:1010A0008CFF96928D82020E3E6EAEDF96928D92EE
:1010B000036A2050280FE96E000E0320EA6EEFCF7E
:1010C0003EF0956A3EC08CFF96948D84020E3E6E73
:1010D0009BDF96948D943D2AADD712000F0E3A6E89
:1010E0003C6A040E3B6EA4DF93988A989268805005
:1010F0000F0B3A6E3A500F081EE093988A883C6AAC
:10110000160E3B6E95DF3A50070803E10A0E016E9A
:1011100091D03A500B0803E1030E016E8BD03A5088
:101120000D0803E1020E016E85D03A500E0803E16E
:10113000010E016E7FD093988A88939A8A9A92685A
:1011400080500F0B3A6E3A500F081EE0939A8A8A2D
:101150003C6A160E3B6E6CDF3A50070803E10B0E3B
:10116000016E68D03A500B0803E1060E016E62D0A2
:101170003A500D0803E1050E016E5CD03A500E089E
:1011800003E1040E016E56D0939A8A8A939C8A9C3E
:10119000926880500F0B3A6E3A500F081EE0939CF5
:1011A0008A8C3C6A160E3B6E43DF3A50070803E117
:1011B0000C0E016E3FD03A500B0803E1090E016E90
:1011C00039D03A500D0803E1080E016E33D03A5081
:1011D0000E0803E1070E016E2DD0939C8A8C939E1E
:1011E0008A9E926880500F0B3A6E3A500F081EE0AC
:1011F000939E8A8E3C6A160E3B6E1ADF3A500708A1
:1012000003E10D0E016E16D03A500B0803E10E0EED
:10121000016E10D03A500D0803E1000E016E0AD0A5
:101220003A500E0803E10F0E016E04D0939E8A8E91
:10123000800E016E1200800E396E3950800804E174
:101240004DDF01C039F0F9D739C001F012003D502F
:101250003F02F3CF01F0F4CF00F04002F35000263C
:101260003E503F02F3500020026E12000C6A0D6ADD
:101270000E6A0F6A1D6A1DC01EF01EC01FF01FC03F
:1012800020F03A5002080BE2FF0A03E13950E70868
:1012900006E2E80E395E030E3A5A202AF2D73A5295
:1012A00003E13950630806E2640E395E000E3A5AD3
:1012B0001F2AF5D73A5203E13950090806E20A0E0F
:1012C000395E000E3A5A1E2AF5D739C01DF01200B9
:1012D000010E395E0CE3EA6A390EE96EEF5007E061
:1012E000020E006E002EFED700D0EF2EF9D71200AE
:1012F0008E0E006E3BC001F03AC002F0036A01524C
:1013000009E102C001F0026A080E005E015202E12A
:10131000006A08D0D89001BE04D00236013600061B
:10132000F9D7019E7DEF0CF03A50D8B471D0006E21
:101330003E50D8B46DD0002604E3810E002668E24A
:1013400004D07F0E005E64E363E03BC042F03F5098
:10135000421A3B8E3F8E3D504102F4CF44F03C5048
:101360004002F4CF03F0F3CF43F04102F3504426A0
:10137000F4504322000E03223D504002F350442615
:10138000F4504322000E026A032202223B50410223
:10139000F3504326F4500322000E02223B50400239
:1013A000F3500326F4500222000E016A01223D5040
:1013B0003F02F3504326F4500322000E0222012282
:1013C0003C503F02F3500326F4500222000E01224B
:1013D0003B503F02F3500226F4500122002A01BE86
:1013E00005D043360336023601360006000E43AE02
:1013F0000AD0032A02220122015005E1025003E132
:10140000035001E1002A42BE018E42AE019E04D08B
:10141000006A016A026A036A12008E0E006E395079
:10142000005E3AC002F03BC001F0028E005209E0BB
:10143000D890025202E1015204E002320132002E41
:10144000F7D73AAE05D0011E021E012AD8B4022AEF
:1014500097EF0CF0B60E006E036A026A016A39500B
:101460003A103B103C1002E1006A0DD0D89001BE4A
:1014700009D039363A363B363C3603360236013629
:10148000002EF4D7019ED0EF0CF03950B608396E1B
:10149000036A3AC03DF03A8ED8903A323B323C3241
:1014A0000332023201320032392EF6D73DAE0BD074
:1014B000001E011E021E031E002AD8B4012AD8B441
:1014C000022AD8B4032AE9EF0CF0F86AD09EAE0ED7
:1014D000006E0F0E016E020EE96E000EEA6EEE6AED
:1014E000002EFDD7012EFBD7EA6AE96A0A6A0B6A69
:1014F0000C6A0D6A0E6A0F6A1D6A1E6A1F6A206AEC
:101500000101886BFF0E0F01486FC29CC29E4951BA
:10151000E00B1F09496F256BD16AD26A046A056A1C
:101520003F0E286E060E296E5B0E2A6E4F0E2B6E36
:10153000660E2C6E6D0E2D6E7D0E2E6E070E2F6EAE
:101540007F0E306E670E316E770E326E7C0E336E0C
:10155000580E346E5E0E356E7B0E366E710E376E23
:10156000400E386E9B8CC150C00B0309C16EC19EEA
:10157000C280C28EC282C2B2FED7C29EFF0E486F28
:10158000C29CC29E4951E00B0309496F0F0E926E37
:10159000969096929694070E946E96909692969444
:1015A0008D6E93988A8896948D74040E396EFA0E17
:1015B0003E6E000129DD392E01D002D00F01F7D790
:1015C0000F01F1D7949E8B9E949C8B9C93968A9648
:1015D000206A20C01FF01FC01EF01EC01DF0136A3D
:1015E000126A1352D8A40BD112500208D8A007D106
:1015F0003C6A010E3B6E00011BDD206A20C01FF01B
:101600001FC01EF01EC01DF0219021B00AD013DEB5
:1016100001C00BF00BC01DF00B500F0802E1218040
:101620001D6A21B00AD007DE01C00BF00BC01EF00E
:101630000B500F0802E121801E6A21B00AD0FBDDA9
:1016400001C00BF00BC01FF00B500F0802E121800E
:101650001F6A21B00ED0EFDD01C00BF00BC020F0EF
:101660000B500F08D8B4206A3C6A960E3B6EE0DC43
:10167000218021A0BFD012C000F01350036E02E100
:1016800000520BE0035003E1010E005C3DE003500B
:1016900003E1020E005C6FE0A5D03A6A20C039F089
:1016A0003AC03EF020C03DF0030E406EE80E3F6EA3
:1016B000CEDD02C03AF001C039F03C6A1FC03BF0F9
:1016C0003CC03EF01FC03DF0406A640E3F6EBFDD7F
:1016D00002C003F00150392602503A223C6A1EC073
:1016E0003BF03CC03EF01EC03DF0406A0A0E3F6E2B
:1016F000AEDD0150392602503A221D503924226EA7
:10170000000E3A20236E6ED03A6A20C039F03AC0FB
:101710003EF020C03DF0030E406EE80E3F6E97DDB8
:1017200002C03AF001C039F03C6A1FC03BF03CC037
:101730003EF01FC03DF0406A640E3F6E88DD02C07F
:1017400003F00150392602503A223C6A1EC03BF099
:101750003CC03EF01EC03DF0406A0A0E3F6E77DD91
:101760000150392602503A221D503924246E000EB1
:101770003A20256E37D03A6A20C039F03AC03EF0A0
:1017800020C03DF0030E406EE80E3F6E60DD02C0EB
:101790003AF001C039F03C6A1FC03BF03CC03EF05B
:1017A0001FC03DF0406A640E3F6E51DD02C003F081
:1017B0000150392602503A223C6A1EC03BF03CC020
:1017C0003EF01EC03DF0406A0A0E3F6E40DD015003
:1017D000392602503A221D503924266E000E3A2036
:1017E000276E00D02190206A20C01FF01FC01EF07D
:1017F0001EC01DF0122AD8B4132A0F01F2D6100E03
:10180000206E20C01EF01EC01FF01FC01DF023520E
:1018100003E12250960803E2236A960E226E2550B9
:10182000020809E2FF0A03E12450E80804E2030E7B
:10183000256EE80E246E2750000802E2276A26680B
:101840003C6A500E3B6E000118EC08F0FA0E3E6E3A
:1018500004EC08F03C6A500E3B6E18EC08F0FA0EEF
:101860003E6E04EC08F03C6A500E3B6E18EC08F03B
:10187000FA0E3E6E04EC08F023C03AF022C039F0B4
:10188000F5DC3C6A640E3B6E18EC08F025C03AF0BB
:1018900024C039F0EBDC3C6A640E3B6E18EC08F0B7
:1018A00027C03AF026C039F0E1DC3C6A640E3B6E9A
:1018B00018EC08F013DC01C00BF00B500A0A05E02D
:1018C000010A05E0070A06E008D01C6A06D0010EEE
:1018D0001C6E03D0020E1C6E00D0300E016EC25082
:1018E000C30B0110C26E640E396EF2DCC282C2B24A
:1018F000FED7C4503B6A3A6EFBD403C03DF002C031
:101900003CF001C03BF000C03AF07D0E416EAE0EDF
:10191000406E260E3F6E7F0E3E6E06DD03C03CF02D
:1019200002C03BF001C03AF000C039F076D501C0EA
:101930001AF02C0E016EC250C30B0110C26E640E61
:10194000396EC6DCC282C2B2FED7C450196A186AA8
:10195000176A166E195208E1185206E1175204E18F
:1019600016500308D8B06CD06E0ED8801654006E96
:10197000000E1754016E000E1854026E000E19541A
:10198000196E02C018F001C017F000C016F019C09F
:101990003CF018C03BF017C03AF016C039F05AD5E9
:1019A00003C03DF002C03CF001C03BF000C03AF083
:1019B000330E416E406E030E3F6E820E3E6EB4DCFF
:1019C00003C03CF002C03BF001C03AF000C039F067
:1019D0005CD503C019F002C018F001C017F000C0B8
:1019E00016F019520AE1185208E11750020817E2DE
:1019F000FF0A03E11650E80812E2195210E11852EA
:101A00000EE1175004080BE303E116504B0807E3FF
:101A1000196A186A030E176EE80E166E10D0195266
:101A20000AE1185208E11750030809E2FF0A03E12E
:101A300016504C0804E2196A186A176A166A06D02A
:101A4000196A186A030E176EE80E166E280E016EDC
:101A5000C250C30B0110C26E640E396E39DCC282F3
:101A6000C2B2FED7C4CF1BF01B500208D8B01B6A0D
:101A70001C5005E0010A07E0030A0AE00DD0156AD0
:101A80001AC014F009D017C015F016C014F004D015
:101A9000156A1BC014F000D015C03AF014C039F01C
:101AA00036EC09F03C6A010E3B6E18EC08F023524C
:101AB00009E122501A5C06E31B500A0803E3949ED6
:101AC0008B8E02D0949E8B9E19520CE118520AE123
:101AD0001750255C07E303E11650245C03E3949C54
:101AE0008B8C02D0949C8B9C275206E126501B5C69
:101AF00003E393968A8602D093968A96DBD60F01EB
:041B00006ED503009B
:020000040001F9
:08FFF8009AF73DFF61F880F962
:00000001FF
;PIC18F47J53
;CRC=8E01  CREATED="02-Jun.-16 23:51"
