:0410000088EF0AF07B
:08100800046ED8CF05F0E0CF23
:1010100006F00001E9CF0CF0EACF07F0E1CF08F0CD
:10102000E2CF09F0D9CF0AF0DACF0BF0F3CF12F00C
:10103000F4CF13F0FACF14F0F5CF15F0F6CF16F089
:10104000F7CF17F0F8CF18F0FBCF19F000C00EF073
:1010500001C00FF002C010F003C011F0F2AA34EF8B
:1010600008F0F2B45FEF08F00EC000F00FC001F01E
:1010700010C002F011C003F00CC0E9FF07C0EAFF86
:10108000078E08C0E1FF09C0E2FF0AC0D9FF0BC00C
:10109000DAFF12C0F3FF13C0F4FF14C0FAFF15C04B
:1010A000F5FF16C0F6FF17C0F7FF18C0F8FF19C00C
:1010B000FBFF045006C0E0FF05C0D8FF100093906E
:1010C0008A706D0ED76E840ED66EF29434EF08F0EF
:1010D0000C20212150726573696F6E6521212020DB
:1010E0000A202121656C205465636C61646F2121A5
:1010F0002020202000000C6E6F206861792073652D
:101100006E736F7200000C46616C74616E206461D6
:10111000746F7320656E206C6120696E666F726DEE
:101120006163696F6E0046546D702F20433A20252D
:1011300033752E25303375200A00522E482F205249
:101140003A202533752E253033752000EA6A380E93
:10115000E96EEF500EE00F0E016E006A002EFED712
:10116000012EFBD78F0E006E002EFED70000EF2E53
:10117000F2D7120095948C9495928C92365202E19B
:101180008C9001D08C80959037A803D095968C8652
:1011900002D095968C9637AA03D095988C8802D069
:1011A00095988C9837AC03D0959A8C8A02D0959AF2
:1011B0008C9A37AE03D0959C8C8C02D0959C8C9CDD
:1011C000270E006E002EFED700D095948C84010E61
:1011D000386EBCDF95948C94010E386EB7DF37A063
:1011E00003D095968C8602D095968C9637A203D024
:1011F00095988C8802D095988C9837A403D0959AAE
:101200008C8A02D0959A8C9A37A603D0959C8C8CA8
:1012100002D0959C8C9C270E006E002EFED700D02D
:1012200095948C84010E386E91DF95948C94010E08
:10123000386E8CDF1200010E345CFC0F13E2040FD9
:1012400037EF09F07F0E3324356E0CD0BF0E3324F8
:10125000356E08D08F0E3324356E04D0CF0E332474
:10126000356E00D0366A35C037F084DF1200E824CE
:10127000F76AF7368F0FF66E120EF722000EF86E31
:10128000FB6E0A00F550FA6E0800F550F96E441234
:101290004C1254125C12320E386E58DF366A330E1E
:1012A000376E68DF366A320E376E64DF366A280EB4
:1012B000376E60DF366A0C0E376E5CDF366A010E01
:1012C000376E58DF010E336E346EB5DFD8EF0AF09B
:1012D00032500C0A03E0060A0AE00ED0366A010E0C
:1012E000376E48DF010E336E346EA5DF0BD0336AE4
:1012F000020E346EA0DF06D0010E366E32C037F01B
:1013000039DF00D012000900F55210E0F6CF2EF0C0
:10131000F7CF2FF0F8CF30F0F5CF32F0D9DF2EC075
:10132000F6FF2FC0F7FF30C0F8FFEDD71200958E03
:10133000040E2E6EFA0E386E09DF2E2EFBD7F5EF57
:101340000AF0010E315E0CE3EA6A310EE96EEF50ED
:1013500007E0020E006E002EFED700D0EF2EF9D768
:101360001200336A346A336A3350070814E3D890A2
:101370003436958E83AEFDD7770E006E002EFED7E5
:1013800000D0958E83AE01D03480958E83BEFDD77C
:10139000010E3326E9D734C001F007EF0AF02E9092
:1013A0002F6A306A959E8C8E959E8C9E120E386E9A
:1013B000CDDE959E8C8E670E006E002EFED700D07F
:1013C000958E2E9083BE2E802EA003D0010E016E2E
:1013D00043D0500E316EB5DF958E2E9083BE2E8099
:1013E0002EB003D0020E016E37D0500E316EA9DF41
:1013F0002F6A2F50040814E3036A2F501D0F016E4B
:10140000000E032201C031F003C032F0AAD732C06F
:10141000EAFF31C0E9FF01C0EFFF010E2F26E9D737
:10142000959E8C8E2F6A2F5003080CE3036A2F5071
:101430001D0FE96E000E0320EA6EEF503026010EFC
:101440002F26F1D72150305C04E0030E016E04D04A
:1014500003D0000E016E00D0F6EF0AF00900F6CFBF
:101460002FF0F7CF30F0F8CF31F0F5CF32F030DF9A
:101470002FC0F6FF30C0F7FF31C0F8FF2E2EEED799
:1014800012003150016A305C03E230C000F00CD031
:10149000006A080E326E303600363150005CD8B02B
:1014A000006E0136322EF7D7120001502EC030F0F8
:1014B000640E316EE6DF00C02EF00150300E07E101
:1014C0002FA20CD02FB60AD02FB8200E03D02F9603
:1014D0002F982F80012601C032F0FADE2EC030F0A6
:1014E0000A0E316ECEDF00C02EF00150300E06E144
:1014F0002FB608D02FA006D02FB8200E012601C08D
:1015000032F0E6DE300E2E262EC032F0E1DE120082
:10151000F86AD09E078EAE0E006E0F0E016E020EA0
:10152000E96E000EEA6EEE6A002EFDD7012EFBD7A3
:10153000EA6AE96A1B6A7E86E10EB06E040E7F6E6F
:10154000A60EAD6E900EAC6E226A236A256A01016A
:10155000886BFF0E0F01486FC29CC29E4951E00B81
:101560001F09496F256BD16AD26A266A276A2C6ADD
:101570002D6A9B8CFF0E486FC29CC29E4951E00BA6
:101580001F09496F0F0E926E000E956E820ED56E7A
:101590006D0ED76E840ED66EC00EF2129690969295
:1015A0009694969096929694070E8D6E000173D63F
:1015B000226A225216E1D00EF66E100EF76E000E61
:1015C000F86EA1DE020E2E6EC80E386EBFDD2E2E16
:1015D000FBD70C0E326E7CDE200E326E79DE222AB4
:1015E000E8D7010E226E236EA2D6D9D601C025F00F
:1015F0002550020A03E0010A09E010D0F60EF66E4B
:10160000100EF76E000EF86E7EDE3DD0060EF66E02
:10161000110EF76E000EF86E76DE35D0260EF66EE1
:10162000110EF76E000EF86E090E2E6E17DF1FC03A
:101630002EF0130E2F6E39DF2E0E326E49DE20C0D3
:101640002EF0030E2F6E31DF200E326E41DE0A0EB9
:10165000326E3EDE3A0EF66E110EF76E000EF86E2A
:10166000080E2E6EFBDE1DC02EF0130E2F6E1DDF3A
:101670002E0E326E2DDE1EC02EF0030E2F6E15DFE5
:10168000200E326E25DE040E2E6EFA0E386E5EDDF2
:081690002E2EFBD7AAD70300A0
:020000040001F9
:08FFF8009AF73DFF61F880F962
:00000001FF
;PIC18F47J53
;CRC=4D08  CREATED="13-Mar.-16 16:07"
