:041000009FEF0EF060
:08100800484F52413A253278AD
:101010003A2532783A253278202020000A46454386
:1010200048413A2532782F2532782F3230253278D0
:1010300000000C2021214249454E56454E49444F5F
:10104000212120200A20202000000C504152412064
:10105000415349474E4152200A204F5052494D4179
:1010600020272A2700000C4D6F646966696361724E
:1010700020486F72613F0A53695B415D204E6F5B90
:10108000425D2D3E00000C496E6772657365206CF1
:101090006120486F72613A0A0000496E6772657399
:1010A00065206C6F73204D696E3A00000C486F72BA
:1010B000612061637475616C697A6164610A2020E2
:1010C000636F6E20657869746F2E2E2E21000C4997
:1010D0006E677265736520486F7261204F6E0A42B9
:1010E000254C753D0000496E6772657365204D693A
:1010F0006E204F6E202020000C496E67726573656C
:1011000020486F7261204F66660A42254C753D008B
:10111000496E6772657365204D696E204F66662063
:10112000202000000C426F6D62696C6C6F20310AE8
:10113000496E677265736520256350574D3A00000C
:101140000C50574D20417369676E61646F200A250A
:1011500075000C44657365612063616D626961723D
:1011600020656C0A256350574D3F53695B415D20F4
:101170004E6F5B425D000C426F6D62696C6C6F205C
:10118000310A496E677265736520256350574D3A81
:1011900000000C426F6D62696C6C6F20320A496E00
:1011A000677265736520256350574D3A00000C4205
:1011B0006F6D62696C6C6F20330A496E677265737C
:1011C0006520256350574D3A00000C456E63656EEF
:1011D0006469656E646F2E2E2E0A202020426F6D8A
:1011E00062696C6C6F20254C7520202000000C413A
:1011F000706167616E646F2E2E2E0A202020426F70
:101200006D62696C6C6F20254C7520202000EA6AA5
:10121000880EE96EEF500EE00F0E016E006A002E90
:10122000FED7012EFBD78F0E006E002EFED70000DA
:10123000EF2EF2D7120093968A9693928A92865353
:1012400002E18A9001D08A80939087A903D0959873
:101250008C8802D095988C9887AB03D0959A8C8A0D
:1012600002D0959A8C9A87AD03D0959C8C8C02D035
:10127000959C8C9C87AF03D0959E8C8E02D0959EBA
:101280008C9E270E006E002EFED700D093968A8685
:10129000010E886FBCDF93968A96010E886FB7DFC8
:1012A00087A103D095988C8802D095988C9887A3B5
:1012B00003D0959A8C8A02D0959A8C9A87A503D0F0
:1012C000959C8C8C02D0959C8C9C87A703D0959E76
:1012D0008C8E02D0959E8C9E270E006E002EFED71F
:1012E00000D093968A86010E886F91DF93968A9636
:1012F000010E886F8CDF1200010E845DFC0F13E27B
:10130000040F98EF09F07F0E8325856F0CD0BF0E78
:101310008325856F08D08F0E8325856F04D0CF0E6F
:101320008325856F00D0866B85C087F084DF12002F
:10133000E824F76AF736510FF66E130EF722000E07
:10134000F86EFB6E0A00F550FA6E0800F550F96E63
:1013500006130E1316131E13320E886F58DF866B9A
:10136000330E876F68DF866B320E876F64DF866BA4
:10137000280E876F60DF866B0C0E876F5CDF866BD5
:10138000010E876F58DF010E836F846FB5DFD0EFDA
:101390000EF082510C0A03E0060A0AE00ED0866BBA
:1013A000010E876F48DF010E836F846FA5DF0BD0BE
:1013B000836B020E846FA0DF06D0010E866F82C0A1
:1013C00087F039DF00D012000900F55210E0F6CFA7
:1013D00073F0F7CF74F0F8CF75F0F5CF82F0D9DF66
:1013E00073C0F6FF74C0F7FF75C0F8FFEDD71200A9
:1013F000080E016E110E006E002EFED78C90959097
:10140000110E006E002EFED775378C92D8B09582E3
:10141000D8A09592958083A0FED7012EEBD7110E10
:10142000006E002EFED78C90959000009582110ED4
:10143000006E002EFED7110E006E002EFED7958096
:1014400083A0FED7016A110E006E002EFED783B274
:1014500001808C9095908C9295921200080E776F77
:1014600000C078F09582110E006E002EFED7958098
:1014700083A0FED783B2D88083A2D8900136110E04
:10148000006E002EFED795908C90772FEBD795822B
:10149000110E006E002EFED78C927851D8A4959232
:1014A0000000958083A0FED7110E006E002EFED79F
:1014B0008C909590110E006E002EFED78C92959216
:1014C00012009582110E006E002EFED79580110E2F
:1014D000006E002EFED78C929592110E006E002E9B
:1014E000FED78C909590D00E756F82DF756B80DF84
:1014F00095920000958083A0FED7110E006E002EFD
:10150000FED700D000009582110E006E002EFED78F
:101510009582110E006E002EFED79580110E006E82
:10152000002EFED78C929592110E006E002EFED7E3
:101530008C909590D10E756F5BDF736B73513E0885
:101540000EE3036A7351120FE96E000E0320EA6E78
:10155000010E006E83DF01C0EFFF732BEFD7006A2F
:101560007DDF01C051F095920000958083A0FED7E9
:10157000110E006E002EFED700D000009582110ED5
:10158000006E002EFED712000F0E826F0A0E886FBB
:101590003EDE929A899A926880500F0B826F825138
:1015A0000F081DE0929A898AB40E886F30DE82514E
:1015B000070803E1410E016E8ED082510B0803E152
:1015C000330E016E88D082510D0803E1320E016E98
:1015D00082D082510E0803E1310E016E7CD0929AC6
:1015E000898A96908D90926880500F0B826F8251FD
:1015F0000F081DE096908D80B40E886F08DE825132
:10160000070803E1420E016E66D082510B0803E128
:10161000360E016E60D082510D0803E1350E016E69
:101620005AD082510E0803E1340E016E54D09690C8
:101630008D8096928D92926880500F0B826F8251AE
:101640000F081DE096928D82B40E886FE0DD825106
:10165000070803E1430E016E3ED082510B0803E1FF
:10166000390E016E38D082510D0803E1380E016E3B
:1016700032D082510E0803E1370E016E2CD09692C3
:101680008D8296948D94926880500F0B826F825158
:101690000F081DE096948D84B40E886FB8DD8251DA
:1016A000070803E1440E016E16D082510B0803E1D6
:1016B000230E016E10D082510D0803E1300E016E31
:1016C0000AD082510E0803E1780E016E04D0969480
:1016D0008D84800E016E73EF0BF0800E816F81514F
:1016E000800804E151D701C081F0F9D781C001F031
:1016F0001200006A016A8A51D8908BB1002600322C
:1017000001328BB30026003201328BB50026003245
:1017100001328BB70026003201328BB9002600322D
:1017200001328BBB0026003201328BBD0026003215
:1017300001328BBF0026003201320BEF0CF0886BB8
:10174000866B0A0E876F856B8351841103E1000E4F
:10175000016EC1D08851882B036A8325E96E8451BC
:101760000320EA6EEFCF89F089512D080DE1010EBB
:10177000866F8851882B036A8325E96E8451032084
:10178000EA6EEFCF89F00DD089512B080AE188511C
:10179000882B036A8325E96E84510320EA6EEFCF1C
:1017A00089F089512F08D8B08ED089513908D8A036
:1017B0008AD08951300821E1036A88518325E96E76
:1017C00084510320EA6EEF5078080AE0036A8851DA
:1017D0008325E96E84510320EA6EEF5058080DE12D
:1017E000100E876F882B8851882B036A8325E96E3A
:1017F00084510320EA6EEFCF89F087510A081BE17C
:1018000089512F0817E28951390814E30A0E8A6FAB
:1018100085C08BF06ED7300E895D0124856F8851AD
:10182000882B036A8325E96E84510320EA6EEFCF8B
:1018300089F0E6D748D08751100845E18951600802
:1018400006E289517A0803E38951DF0B01D08951FF
:10185000896F89512F0803E28951390806E28951BD
:10186000400831E2895146082EE389512F080CE2E5
:101870008951390809E385398A6FF00E8A17300ECD
:10188000895D8A25856F09D085398A6FF00E8A17A0
:10189000410E895D0A0F8A25856F8851882B036A5E
:1018A0008325E96E84510320EA6EEFCF89F08951D8
:1018B000600806E289517A0803E38951DF0B01D001
:1018C0008951896FC6D7862D04D087510A0801E156
:1018D000856D85C001F0C0EF0CF0300E776F780E8B
:1018E000786F0C6A020E0B6E1150780836E0F5DE48
:1018F00001C011F01150440812E1670767C083F07E
:1019000068C084F0F9DC200E826F43DD67C083F08D
:1019100068C084F0F1DC0B50D8B40C060B061150F3
:101920002F081AE21150390817E3770E0B24E96EDD
:10193000000E0C20EA6E11C0EFFF770E0B24E96E4B
:10194000000E0C20EA6EEFCF81F081C082F021DD25
:10195000672B0B2AD8B40C2AC7D7672B116A770ECE
:101960000B24E96E000E0C20EA6EEF6A76C003F0DD
:1019700075C081F076C082F0846B770E836FDFD6FE
:1019800082C0EAFF81C0E9FF01C0EFFF120095822B
:10199000110E006E002EFED79580110E006E002EE7
:1019A000FED78C929592110E006E002EFED78C9071
:1019B0009590D00E756F1CDD756B1ADD736B7351CE
:1019C0003F080EE3036A7351120FE96E000E032005
:1019D000EA6EEFCF74F074C075F00ADD732BEFD7A9
:1019E00095920000958083A0FED7110E006E002E08
:1019F000FED700D000009582110E006E002EFED79B
:101A000099EF0FF00900F6CF76F0F7CF77F0F8CF27
:101A100078F0F5CF82F0BDDC76C0F6FF77C0F7FF37
:101A200078C0F8FF752FEED71200EACF7DF0E9CF2E
:101A30007CF07639F009786F7827E20F796F320FF2
:101A40007B6F76510F0B792779277B27E90F7A6F08
:101A50007A277A2775390F0B7A277B277A377B37D6
:101A60007B1F7B3775510F0B7B277837070E776FFE
:101A70000A0E7A077B27FDE379077A27FDE37807CB
:101A80007927FDE377077827FDE3EA6A770EE96EA9
:101A9000070E7C157C9DE9267B0EE95CD8B47C8D15
:101AA000EF50006E08E17CBD06D07CB913D07CB746
:101AB00002D0200E03D07C877C99300E0026EACF1E
:101AC00076F0E9CF75F000C082F063DC76C0EAFF03
:101AD00075C0E9FFEE507CADDFD71200735175037E
:101AE000F3CF01F0F4CF00F07603F35000267451E9
:101AF0007503F3500020026E10EF11F0016A026AC4
:101B0000006A036A785102E1775118E0100E796F8C
:101B1000D89075377637003603367851035C02E18A
:101B20007751005C07E37751005ED8A00306785137
:101B3000035ED88001360236792FEAD71CEF11F008
:101B40007751016A765D03E276C000F00CD0006A3E
:101B5000080E786F763700367751005CD8B0006E8B
:101B60000136782FF7D71200015074C076F0640E5A
:101B7000776FE6DF00C074F00150300E07E175A307
:101B80000DD075B70BD075B9200E03D07597759928
:101B90007581012601C082F0C9EC09F074C076F0AD
:101BA0000A0E776FCDDF00C074F00150300E06E1F1
:101BB00075B709D075A107D075B9200E012601C0EF
:101BC00082F0C9EC09F0300E742774C082F0C9ECC1
:101BD00009F041EF11F075BF10D00F0E006E74398F
:101BE00000160A0E005C03E2300E002602D075518A
:101BF000002600C082F0C9EC09F00F0E74170A0E1F
:101C0000745D02E2300E02D0759F7551742774C066
:101C100082F0C9EC09F01200010E836F846F7CEC36
:101C200009F0080EF66E100EF76E000EF86E050E37
:101C3000756FE8DE14C074F0570E756FCCDF3A0E86
:101C4000826FC9EC09F013C074F0570E756FC3DFD3
:101C50003A0E826FC9EC09F012C074F0570E756F1E
:101C6000BADF200E826FC9EC09F0200E826FC9EC3A
:101C700009F0200E826FC9EC09F0732D28D01C0EDC
:101C8000F66E100EF76E000EF86E070E756FBADE68
:101C900016C074F0570E756F9EDF2F0E826FC9EC61
:101CA00009F017C074F0570E756F95DF2F0E826F15
:101CB000C9EC09F0320E826FC9EC09F0300E826F68
:101CC000C9EC09F018C074F0570E756F84DFCFEFC0
:101CD00011F07351070B006E7331016E0132013246
:101CE0001F0E011601507425E96E000E7521EA6E73
:101CF000EFCF01F0002A01D00132002EFDD71200F3
:101D00007351070B006E7331016E013201321F0EE9
:101D1000011601507525E96E000E7621EA6E016A02
:101D2000012A002A01D00136002EFDD7745303E0AA
:101D30000150EF1203D0011E0150EF161200F86A95
:101D4000D09EAE0E006E0F0E016E020EE96E000EFA
:101D5000EA6EEE6A002EFDD7012EFBD7EA6AE96A29
:101D60000C6A0B6A0E6A0D6A010E676F020E686FCD
:101D70000E0E696F020E6A6F0101886BFF0E0F0174
:101D8000486FC29CC29E4951E00B1F09496F256BE9
:101D9000D16AD26A056A066A9B8C0001ACEF09F031
:101DA000000E0609CA6E950ECB6EC290939A8A9A5F
:101DB0000C0E0F010F6F5195939C8A9C0C6F5199DB
:101DC000939E8A9E096F3F0E5117000E5113106BA0
:101DD0000D6B0A6B0C6A0B6A0C5219E10B5002086E
:101DE00016E3320EF66E100EF76E000EF86E00015E
:101DF000E4EC09F0020E736FC80E886F07EC09F06F
:101E0000732FFAD70B2AD8B40C2A0F01E5D70C6A26
:101E10000B6A0C521BE10B50030818E34A0EF66ED6
:101E2000100EF76E000EF86E0001E4EC09F061ECA4
:101E30000AF0020E736FC80E886F07EC09F0732F5B
:101E4000FAD70B2AD8B40C2A0F01E3D7660EF66E28
:101E5000100EF76E000EF86E0001E4EC09F03DDCA8
:101E600001C011F01150410803E01150420871E126
:101E700011C082F0C9EC09F0020E736FFA0E886F80
:101E800007EC09F0732FFAD71150410862E1010EF7
:101E9000676F020E686F860EF66E100EF76E000EFC
:101EA000F86EE4EC09F0020E736FFA0E886F07EC1F
:101EB00009F0732FFAD761EC0AF0766B140E756F88
:101EC0000CDD3A0E826FC9EC09F0010E836F846F4E
:101ED0007CEC09F09A0EF66E100EF76E000EF86E9E
:101EE000E4EC09F0040E836F020E846F7CEC09F0C1
:101EF000020E736FFA0E886F07EC09F0732FFAD792
:101F0000766B130E756FE9DC3A0E826FC9EC09F03F
:101F1000300E826FC9EC09F0300E826FC9EC09F007
:101F2000020E736FFA0E886F07EC09F0732FFAD761
:101F30002ED5AC0EF66E100EF76E000EF86EE4ECB9
:101F400009F0020E736FFA0E886F07EC09F0732F19
:101F5000FAD7080E676F020E686F0E6A0D6A0E528E
:101F60006AE10D50020867E3040E676F020E686FA6
:101F7000010E0D24736F000E0E20746FCE0EF66EE0
:101F8000100EF76E000EF86E120E756F3BDD100E20
:101F9000E96E74C076F073C075F047DD3D0E826F58
:101FA000C9EC09F0580E0D24016E000E0E20036ED0
:101FB00001C073F0746F766F01C075F08EDC3A0E5D
:101FC000826FC9EC09F0010E836F846F7CEC09F01D
:101FD000E60EF66E100EF76E000EF86EE4EC09F0E9
:101FE000070E836F020E846F7CEC09F0550E0D24F2
:101FF000016E000E0E20036E01C073F0746F766FD9
:1020000001C075F06ADC3A0E826FC9EC09F0300E3F
:10201000826FC9EC09F0300E826FC9EC09F0020E34
:10202000736FFA0E886F07EC09F0732FFAD70D2A39
:10203000D8B40E2A94D70E6A0D6A0E526BE10D5079
:10204000020868E3040E676F020E686F010E0D242C
:10205000736F000E0E20746FF80EF66E100EF76E92
:10206000000EF86E130E756FCDDC100EE96E74C0A5
:1020700076F073C075F0D9DC3D0E826FC9EC09F0C3
:10208000610E0D24016E000E0E20036E01C073F070
:10209000746F766F01C075F020DC3A0E826FC9EC68
:1020A00009F0010E836F846F7CEC09F0100EF66E60
:1020B000110EF76E000EF86EE4EC09F0070E836F58
:1020C000020E846F7CEC09F05E0E0D24016E000E92
:1020D0000E20036E01C073F0746F766F01C075F04F
:1020E0006DEC0CF03A0E826FC9EC09F0300E826F85
:1020F000C9EC09F0300E826FC9EC09F0020E736F63
:10210000FA0E886F07EC09F0732FFAD70D2AD8B4AE
:102110000E2A93D76DEC0BF001C011F0240EF66E71
:10212000110EF76E000EF86E140E756F6BDC250E37
:10213000826FC9EC09F03A0EF66E110EF76E000EC2
:10214000F86E040E756F5EDC6B510208D8A01ED1CC
:102150006DEC0BF001C011F011502F081BE2115073
:10216000390818E311C082F0C9EC09F0300E115E95
:102170006C5105E0010A06E0030A07E009D011C02E
:102180006EF006D011C06DF003D011C06FF000D01A
:102190006C2B692B1150440812E1690769C083F068
:1021A0006AC084F07CEC09F0200E826FC9EC09F063
:1021B00069C083F06AC084F07CEC09F06C071150B0
:1021C0007808D8A4E2D06C5102080CE26E51640D7C
:1021D000F3CF73F06D510A0DF35073256F250F6E19
:1021E000106A0FD06C51020807E16E510A0DF350CE
:1021F0006D250F6E106A05D06C2D03D0106A6EC06D
:102200000FF0105203E10F50640803E2106A640EED
:102210000F6E746B736910C076F00FC075F05ED4EA
:1022200002C074F001C073F002C076F001C075F016
:10223000786B640E776F62D402C010F001C00FF0AB
:10224000036A6B51640FE96E000E0320EA6E0FC043
:10225000EFFF036A6B51640FE96E000E0320EA6E14
:10226000EFCF73F0400EF66E110EF76E000EF86EA3
:102270000F0E756F02EC0DF073C074F01B0E756FCE
:1022800073D4040E736FFA0E886F07EC09F0732F86
:10229000FAD76B2B6B51030820E1520EF66E110E2C
:1022A000F76E000EF86E120E756F02EC0DF0250E33
:1022B000826FC9EC09F0660EF66E110EF76E000E15
:1022C000F86E0F0E756F02EC0DF06DEC0BF001C0A7
:1022D00011F011504108D8B46B6B0E0E696F6B5141
:1022E00005E0010A1CE0030A33E04BD0760EF66EDF
:1022F000110EF76E000EF86E140E756F02EC0DF0F5
:10230000250E826FC9EC09F08C0EF66E110EF76E79
:10231000000EF86E040E756F02EC0DF032D0920EC6
:10232000F66E110EF76E000EF86E140E756F02EC5D
:102330000DF0250E826FC9EC09F0A80EF66E110E95
:10234000F76E000EF86E040E756F02EC0DF019D0EA
:10235000AE0EF66E110EF76E000EF86E140E756F5F
:1023600002EC0DF0250E826FC9EC09F0C40EF66E7A
:10237000110EF76E000EF86E040E756F02EC0DF084
:1023800000D0106A0F6A0FC06CF0DED661EC0AF064
:102390007051125CD8B41AD1010E736F3DD40E6A1D
:1023A0000D6A0E52D8A412D10D500208D8A00ED139
:1023B000580E0D24E96E000E0E20EA6EEF50145CEC
:1023C000D8A484D0550E0D24E96E000E0E20EA6EBE
:1023D000EF50135CD8A47AD00DC073F0756B710EFA
:1023E000746F77DC000E01B0010E010BD8A46ED023
:1023F0000DC073F0010E746F766B710E756F80DC1B
:102400000DC073F0746B766B720E756F79DC010E14
:102410000D24736F000E0E20746FCA0EF66E110E2F
:10242000F76E000EF86E1C0E756F02EC0DF0100EBC
:10243000E96E74C076F073C075F015EC0DF0200EE7
:10244000826FC9EC09F0200E826FC9EC09F0200EF2
:10245000826FC9EC09F00DC000F00E50036E02E16E
:1024600000520BE0035003E1010E005C11E0035049
:1024700003E1020E005C17E021D0640E0D24E96E2A
:10248000000E0E20EA6EEFCF73F073C010FF16D06F
:10249000640E0D24E96E000E0E20EA6EEFCF73F08D
:1024A00073C00DFF0BD0640E0D24E96E000E0E20DC
:1024B000EA6EEFCF73F073C00AFF00D0040E736FA3
:1024C000E10E886F07EC09F0732FFAD7610E0D2427
:1024D000E96E000E0E20EA6EEF50145CD8A472D0A4
:1024E0005E0E0D24E96E000E0E20EA6EEF50135CB6
:1024F00069E10DC073F0756B720E746F69EC0EF0CC
:10250000000E01B0010E010B5DE10DC073F0010E74
:10251000746F766B720E756F80EC0EF00DC073F0F9
:10252000746B766B710E756F80EC0EF0010E0D24DE
:10253000736F000E0E20746FEE0EF66E110EF76EB6
:10254000000EF86E190E756F02EC0DF0100EE96EAC
:1025500074C076F073C075F015EC0DF0200E826F2C
:10256000C9EC09F0200E826FC9EC09F0200E826FD1
:10257000C9EC09F00DC000F00E50036E02E10052EC
:102580000BE0035003E1010E005C0CE0035003E19B
:10259000020E005C0DE012D0939A8A9A0F01106B24
:1025A00000010CD0939C8A9C0F010D6B000106D09A
:1025B000939E8A9E0F010A6B000100D0C80E886F9F
:1025C00007EC09F00D2AD8B40E2AEBD612C070F031
:0425D000DDD6030051
:020000040001F9
:08FFF8009AF73DFF61F880F962
:00000001FF
;PIC18F47J53
;CRC=9C24  CREATED="15-Sept.-16 21:34"
