:04100000D1EF09F033
:081008000C20212150726573D8
:10101000696F6E65212120200A202121656C2054F2
:1010200065636C61646F21212020202000000C206A
:1010300020202020202020202020202020200A20C6
:1010400020202020202020202020202020202020A0
:1010500020200000EA6A1C0EE96EEF500EE00F0E31
:10106000016E006A002EFED7012EFBD78F0E006E98
:10107000002EFED70000EF2EF2D7120093968A962C
:1010800093928A921A5202E18A9001D08A809390B8
:101090001BA803D095988C8802D095988C981BAA91
:1010A00003D0959A8C8A02D0959A8C9A1BAC03D067
:1010B000959C8C8C02D0959C8C9C1BAE03D0959EED
:1010C0008C8E02D0959E8C9E270E006E002EFED731
:1010D00000D093968A86010E1C6EBCDF93968A968A
:1010E000010E1C6EB7DF1BA003D095988C8802D030
:1010F00095988C981BA203D0959A8C8A02D0959AC9
:101100008C9A1BA403D0959C8C8C02D0959C8C9CB3
:101110001BA603D0959E8C8E02D0959E8C9E270E8A
:10112000006E002EFED700D093968A86010E1C6EAC
:1011300091DF93968A96010E1C6E8CDF1200010ED1
:10114000185CFC0F13E2040FBBEF08F07F0E1724AE
:10115000196E0CD0BF0E1724196E08D08F0E1724ED
:10116000196E04D0CF0E1724196E00D01A6A19C058
:101170001BF084DF1200E824F76AF736970FF66E4B
:10118000110EF722000EF86EFB6E0A00F550FA6E93
:101190000800F550F96E4C1154115C116411320EB7
:1011A0001C6E58DF1A6A330E1B6E68DF1A6A320E25
:1011B0001B6E64DF1A6A280E1B6E60DF1A6A0C0E43
:1011C0001B6E5CDF1A6A010E1B6E58DF010E176E74
:1011D000186EB5DF1AEF0AF016500C0A03E0060A83
:1011E0000AE00ED01A6A010E1B6E48DF010E176E60
:1011F000186EA5DF0BD0176A020E186EA0DF06D09E
:10120000010E1A6E16C01BF039DF00D01200090063
:10121000F55210E0F6CF13F0F7CF14F0F8CF15F039
:10122000F5CF16F0D9DF13C0F6FF14C0F7FF15C0D5
:10123000F8FFEDD712000F0E146E1E0E1C6E0ADFA3
:10124000929A899A926880500F0B146E14500F086E
:101250001DE0929A898AC80E1C6EFCDE14500708A5
:1012600003E1410E016E8ED014500B0803E1330EE2
:10127000016E88D014500D0803E1320E016E82D049
:1012800014500E0803E1310E016E7CD0929A898AC7
:1012900096908D90926880500F0B146E14500F082A
:1012A0001DE096908D80C80E1C6ED4DE1450070889
:1012B00003E1420E016E66D014500B0803E1360EB6
:1012C000016E60D014500D0803E1350E016E5AD046
:1012D00014500E0803E1340E016E54D096908D80A8
:1012E00096928D92926880500F0B146E14500F08D6
:1012F0001DE096928D82C80E1C6EACDE145007085D
:1013000003E1430E016E3ED014500B0803E1390E89
:10131000016E38D014500D0803E1380E016E32D042
:1013200014500E0803E1370E016E2CD096928D8278
:1013300096948D94926880500F0B146E14500F0881
:101340001DE096948D84C80E1C6E84DE1450070830
:1013500003E1440E016E16D014500B0803E1230E76
:10136000016E10D014500D0803E1300E016E0AD04A
:1013700014500E0803E1780E016E04D096948D840B
:10138000800E016ECAEF09F0800E136E13508008B4
:1013900004E151D701C013F0F9D713C001F039EFC0
:1013A0000AF0F86AD09EAE0E006E0F0E016E020EAD
:1013B000E96E000EEA6EEE6A002EFDD7012EFBD715
:1013C000EA6AE96A046A7E86E10EB06E040E7F6EF8
:1013D000A60EAD6E900EAC6E066A076A086A096AC0
:1013E0000A6A0B6A0C6A0101886BFF0E0F01486FD5
:1013F000C29CC29E4951E00B1F09496F256BD16AFF
:10140000D26A0D6A0E6A9B8CFF0E486FC29CC29E08
:101410004951E00B1F09496F0F0E926E96909692FC
:101420009694969096929694070E8D6E929A898ACB
:101430000001B5D6066A0650030817E3080EF66EDB
:10144000100EF76E000EF86EE2DE020E136EC80E7E
:101450001C6E00DE132EFBD72E0EF66E100EF76EEE
:10146000000EF86ED4DE062AE6D7010E066E076E71
:101470008BD701C008F006C017F007C018F05FDE78
:1014800008C016F0A9DE062A0650110806E107502A
:10149000020803E1010E066E076E0650110806E110
:1014A000072C04D0010E066E020E076E939A8A7AFC
:1014B000020E136EFA0E1C6ECDDD132EFBD7D8D79D
:0214C000030027
:020000040001F9
:08FFF8009AF73DFF61F880F962
:00000001FF
;PIC18F47J53
;CRC=3E5F  CREATED="11-Sept.-16 19:17"
