:041000007AEF09F08A
:081008000C496E697420445389
:101010003133303721000C696E697400EA6A4F0E73
:10102000E96EEF500EE00F0E016E006A002EFED743
:10103000012EFBD78F0E006E002EFED70000EF2E84
:10104000F2D7120095948C944D5202E18C9001D00D
:101050008C8095904EA803D095968C8602D095965C
:101060008C964EAA03D095988C8802D095988C982F
:101070004EAC03D0959A8C8A02D0959A8C9A4EAE3B
:1010800003D0959C8C8C02D0959C8C9C270E006E76
:10109000002EFED700D095948C84010E4F6EBEDFDB
:1010A00095948C94010E4F6EB9DF4EA003D09596A7
:1010B0008C8602D095968C964EA203D095988C88FB
:1010C00002D095988C984EA403D0959A8C8A02D021
:1010D000959A8C9A4EA603D0959C8C8C02D0959CA8
:1010E0008C9C270E006E002EFED700D095948C8429
:1010F000010E4F6E93DF95948C94010E4F6E8EDF30
:101100001200010E4B5CFC0F13E2040F9DEF08F080
:101110007F0E4A244C6E0CD0BF0E4A244C6E08D071
:101120008F0E4A244C6E04D0CF0E4A244C6E00D051
:101130004D6A4CC04EF086DF1200E824F76AF7369D
:101140005B0FF66E110EF722000EF86EFB6E0A00B2
:10115000F550FA6E0800F550F96E101118112011B3
:10116000281195928C92320E4F6E58DF4D6A330ED5
:101170004E6E68DF4D6A320E4E6E64DF4D6A280E89
:101180004E6E60DF4D6A0C0E4E6E5CDF4D6A010ED6
:101190004E6E58DF010E4A6E4B6EB3DFA4EF09F0BE
:1011A00049500C0A03E0060A0AE00ED04D6A010E0F
:1011B0004E6E48DF010E4A6E4B6EA3DF0BD04A6ABB
:1011C000020E4B6E9EDF06D0010E4D6E49C04EF0F2
:1011D00039DF00D012000900F55210E0F6CF46F0DA
:1011E000F7CF47F0F8CF48F0F5CF49F0D9DF46C048
:1011F000F6FF47C0F7FF48C0F8FFEDD71200C69EC4
:101200009E9648C0C9FF020EC6BE05D09EA6FED758
:10121000000EC5BC010E016E1200C580C5B0FED720
:10122000D00E486EECDF486AEADF466A46503F0857
:101230000EE3036A4650060FE96E000E0320EA6EC5
:10124000EFCF47F047C048F0DADF462AEFD7C58432
:10125000C5B4FED7BBEF09F0C69CC586C5B6FED7A0
:1012600000B0C59A00A0C58AC588C5B8FED7C9CF49
:1012700001F01200C580C5B0FED7D10E486EBFDFA9
:10128000466A46503E080EE3036A4650060FE96E72
:10129000000E0320EA6E010E006EDEDF01C0EFFFDC
:1012A000462AEFD7006AD8DF01C045F0C584C5B42F
:1012B000FED7CEEF09F047BE0FD00F0E006E4638B6
:1012C00000160A0E005C03E2300E002602D04750E2
:1012D000002600C049F064DF0F0E46160A0E465C79
:1012E00002E2300E02D0479E4750462646C049F0E3
:1012F00057DF1200F86AD09EAE0E006E0F0E016E20
:10130000020EE96E000EEA6EEE6A002EFDD7012E87
:10131000FBD7EA6AE96A9388938A770EC86E280E2B
:10132000C66EC78EC79C0101886BFF0E0F01486F08
:10133000C29CC29E4951E00B1F09496F256BD16ABF
:10134000D26A9B8C00010DD7210E086E110E076E1C
:10135000066A010E096E020E0A6E050E0B6E160E5F
:101360000C6E100E0D6E080EF66E100EF76E000E5F
:10137000F86E31DF52D7C580C5B0FED7D00E486EAB
:101380003EDF486A3CDFC584C5B4FED7160EF66E54
:10139000100EF76E000EF86E1EDF6CD70C0E496E45
:1013A000FFDE08C046F0570E476E85DF3A0E496EE5
:1013B000F7DE07C046F0570E476E7DDF3A0E496EE6
:1013C000EFDE06C046F0570E476E75DF200E496E01
:1013D000E7DE200E496EE4DE0A0E496EE1DE0AC049
:1013E00046F0570E476E67DF2F0E496ED9DE0BC0F1
:1013F00046F0570E476E5FDF2F0E496ED1DE320E7C
:10140000496ECEDE300E496ECBDE0CC046F0570E74
:10141000476E51DF040E466EFA0E4F6EFFDD462E0C
:06142000FBD7BBD703005F
:020000040001F9
:08FFF8009AF73DFF61F880F962
:00000001FF
;PIC18F47J53
;CRC=4B0D  CREATED="02-May.-16 21:13"
