:04100000FCEF0BF006
:08100800046ED8CF05F0E0CF23
:1010100006F00001E9CF0CF0EACF07F0E1CF08F0CD
:10102000E2CF09F0D9CF0AF0DACF0BF0F3CF12F00C
:10103000F4CF13F0FACF14F0F5CF15F0F6CF16F089
:10104000F7CF17F0F8CF18F0FBCF19F000C00EF073
:1010500001C00FF002C010F003C011F09DAA34EFE0
:1010600008F09EBA98EF09F00EC000F00FC001F032
:1010700010C002F011C003F00CC0E9FF07C0EAFF86
:10108000078E08C0E1FF09C0E2FF0AC0D9FF0BC00C
:10109000DAFF12C0F3FF13C0F4FF14C0FAFF15C04B
:1010A000F5FF16C0F6FF17C0F7FF18C0F8FF19C00C
:1010B000FBFF045006C0E0FF05C0D8FF1000040E7F
:1010C000D36F820ED26F670E006E002EFED700D057
:1010D000D22F05D0D32F03D01B6A016A0AD09EAA53
:1010E000F2D7AC501B6EAF50016E1BA202D0AC9871
:1010F000AC889EEF09F0DB51DD19800BDF6FDBAFB1
:1011000005D0DA1FDB1FDA2BD8B4DB2BDDAF05D01F
:10111000DC1FDD1FDC2BD8B4DD2BDA51DC03F3CF71
:1011200001F0F4CF00F0DD03F3500026DB51DC03C7
:10113000F3500020026EDFAF05D0011E021E012A0F
:10114000D8B4022A15EF09F0D86BD66B0A0ED76F08
:10115000D56BD46BD251D31104E1000E016E026E37
:10116000E6D0D851D82B036AD225E96ED35103209B
:10117000EA6EEFCFD9F0D9512D080DE1010ED66FEF
:10118000D851D82B036AD225E96ED3510320EA6ED9
:10119000EFCFD9F00DD0D9512B080AE1D851D82B77
:1011A000036AD225E96ED3510320EA6EEFCFD9F05E
:1011B000D9512F08D8B0ADD0D9513908D8A0A9D06D
:1011C000D951300821E1036AD851D225E96ED351B3
:1011D0000320EA6EEF5078080AE0036AD851D2255E
:1011E000E96ED3510320EA6EEF5058080DE1100E5E
:1011F000D76FD82BD851D82B036AD225E96ED3519B
:101200000320EA6EEFCFD9F0D7510A0821E1D95176
:101210002F081DE2D95139081AE3DB6B0A0EDA6F89
:10122000D5C0DDF0D4C0DCF066D7300ED95D012426
:10123000D46F000E0220D56FD851D82B036AD22567
:10124000E96ED3510320EA6EEFCFD9F0E0D761D039
:10125000D75110085EE1D951600806E2D9517A08E9
:1012600003E3D951DF0B01D0D951D96FD9512F08E0
:1012700003E2D951390806E2D95140084AE2D9516E
:10128000460847E3D9512F0819E2D951390816E326
:10129000D435DA6FD535DB6FDA37DB37DA37DB3762
:1012A000DA37DB37F00EDA17300ED95DDA25016E4A
:1012B000000EDB2101C0D4F0D56F16D0D435DA6F23
:1012C000D535DB6FDA37DB37DA37DB37DA37DB3761
:1012D000F00EDA17410ED95D0A0FDA25016E000E05
:1012E000DB2101C0D4F0D56FD851D82B036AD225A9
:1012F000E96ED3510320EA6EEF50D96F600806E221
:10130000D9517A0803E3D951DF0B01D0D951D96FF4
:10131000ADD7D7510A0807E1D62D05D0D41FD51F68
:10132000D42BD8B4D52BD4C001F0D5C002F0120014
:10133000635303E16453D8B41E82C1D601C071F077
:101340007151240801E11E841EA411D0715123089B
:101350000EE1D890B635036A230FE96E000E032024
:10136000EA6E64C0ECFFED5263C0EFFFB62B715123
:101370000A08D8A482D064C022F063C021F0B66B02
:10138000646BB6C063F01E921E94206A1F6A2050E0
:10139000225CD8A071D004E121501F5CD8B06CD081
:1013A000036AD151C70F016E000E0322720E1F2473
:1013B000E96E000E2020EA6EEFCFD4F003C0EAFF02
:1013C00001C0E9FFD4C0EFFFD12B010E235C006EFA
:1013D000000E2458036E00501F5C0DE10350205C8A
:1013E0000AE1D36BC70ED26FAFDE02C06CF001C052
:1013F0006BF0D16B3DD0010E255C006E000E2658BF
:10140000036E00501F5C0DE10350205C0AE1D36BBA
:10141000C70ED26F99DE02C06EF001C06DF0D16BC5
:1014200027D0010E215C006E000E2258036E005082
:101430001F5C1EE10350205C1BE1D36BC70ED26F13
:1014400083DE02C070F001C06FF0D16B206A1F6AAA
:1014500020520EE11F5009080BE3C70E1F24E96E4E
:10146000000E2020EA6EEF6A1F2AD8B4202AF0D797
:101470001F2AD8B4202A8BD711D0715124080EE02E
:10148000715123080BE0720E6325E96E000E642192
:10149000EA6E71C0EFFF632BD8B4642B9E9A34EFD1
:1014A00008F00C436F6D2E2053657269616C0A0061
:1014B000202020202020202020202020202000006C
:1014C000EA6AC60EE96EEF500EE00F0E016E006A7A
:1014D000002EFED7012EFBD78F0E006E002EFED7FA
:1014E0000000EF2EF2D7120095948C9495928C9276
:1014F000C45302E18C9001D08C809590C5A903D093
:1015000095988C8802D095988C98C5AB03D0959A05
:101510008C8A02D0959A8C9AC5AD03D0959C8C8C00
:1015200002D0959C8C9CC5AF03D0959E8C8E02D02A
:10153000959E8C9E270E006E002EFED700D09594AF
:101540008C84010EC66FBCDF95948C94010EC66F1F
:10155000B7DFC5A103D095988C8802D095988C9858
:10156000C5A303D0959A8C8A02D0959A8C9AC5A56A
:1015700003D0959C8C8C02D0959C8C9CC5A703D0E5
:10158000959E8C8E02D0959E8C9E270E006E002E0E
:10159000FED700D095948C84010EC66F91DF959490
:1015A0008C94010EC66F8CDF1200010EC25DFC0F21
:1015B00013E2040FF1EF0AF07F0EC125C36F0CD0C8
:1015C000BF0EC125C36F08D08F0EC125C36F04D0D5
:1015D000CF0EC125C36F00D0C46BC3C0C5F084DF7C
:1015E0001200E824F76AF736030FF66E160EF7229C
:1015F000000EF86EFB6E0A00F550FA6E0800F5500A
:10160000F96EB815C015C815D015320EC66F58DF63
:10161000C46B330EC56F68DFC46B320EC56F64DFF9
:10162000C46B280EC56F60DFC46B0C0EC56F5CDF2A
:10163000C46B010EC56F58DF010EC16FC26FB5DFFD
:101640002DEF0CF0C0510C0A03E0060A0AE00ED0A0
:10165000C46B010EC56F48DF010EC16FC26FA5DFFD
:101660000BD0C16B020EC26FA0DF06D0010EC46F9B
:10167000C0C0C5F039DF00D012000900F55210E0FB
:10168000F6CFB7F0F7CFB8F0F8CFB9F0F5CFC0F09C
:10169000D9DFB7C0F6FFB8C0F7FFB9C0F8FFEDD784
:1016A0001200EACFBFF0E9CFBEF0B839F009BA6F47
:1016B000BA27E20FBB6F320FBD6FB8510F0BBB27BC
:1016C000BB27BD27E90FBC6FBC27BC27B7390F0B61
:1016D000BC27BD27BC37BD37BD1FBD37B7510F0B6A
:1016E000BD27BA37070EB96F0A0EBC07BD27FDE349
:1016F000BB07BC27FDE3BA07BB27FDE3B907BA2741
:10170000FDE3EA6AB90EE96E070EBE15BE9DE92635
:10171000BD0EE95CD8B4BE8DEF50006E08E1BEBDD1
:1017200006D0BEB913D0BEB702D0200E03D0BE87FC
:10173000BE99300E0026EACFB8F0E9CFB7F000C06E
:10174000C0F080DFB8C0EAFFB7C0E9FFEE50BEAD21
:10175000DFD71200EACFBFF0E9CFBEF0B839F00909
:10176000BA6FBA27E20FBB6F320FBD6FB8510F0BC4
:10177000BB27BB27BD27E90FBC6FBC27BC27B739E8
:101780000F0BBC27BD27BC37BD37BD1FBD37B751B9
:101790000F0BBD27BA37070EB96F0A0EBC07BD275E
:1017A000FDE3BB07BC27FDE3BA07BB27FDE3B90791
:1017B000BA27FDE3EA6AB90EE96E070EBE15BE9DB3
:1017C000E926BD0EE95CD8B4BE8DEF50006E08E18D
:1017D000BEBD06D0BEB90CD0BEB702D0200E03D01D
:1017E000BE87BE99300E002600509EA8FED7AE6E72
:1017F000EE50BEADE6D71200F86AD09E078EAE0E50
:10180000006E0F0E016E020EE96E000EEA6EEE6AB9
:10181000002EFDD7012EFBD7EA6AE96A1B6A7E9685
:10182000190EB06EA60EAD6E900EAC6E206A1F6AD9
:101830000101886BFF0E0F01486FC29CC29E495187
:10184000E00B1F09496F256BD16AD26A1C6A1D6AB9
:101850001E940001B66B9B8CD8D6F80E0F01486F12
:10186000C29CC29E4951E00B1F09496FC150C00B79
:101870000309C16EC19EC280C28EC282C2B2FED7AF
:10188000C29E000E016EC250C30B0110C26EA20EAA
:10189000F66E140EF76E000EF86E0001EEDEC00E4E
:1018A000F2129D8A010EC16F020EC26F7EDE1EB261
:1018B000A5D0000E016EC250C30B0110C26E270EE0
:1018C000006E002EFED700D0C282C2B2FED7C45036
:1018D000666B656F040E016EC250C30B0110C26EC1
:1018E000270E006E002EFED700D0C282C2B2FED7F5
:1018F000C450686B676F080E016EC250C30B0110B5
:10190000C26E270E006E002EFED700D0C282C2B279
:10191000FED7C4506A6B696F010EC16F020EC26FB1
:1019200044DEB00EF66E140EF76E000EF86EA5DEF5
:10193000010EC16F020EC26F38DE540EC06F82DE20
:101940003A0EC06F7FDE100EE96E6CC0B8F06BC04F
:10195000B7F0A7DE200EC06F75DE4C0EC06F72DED2
:101960003A0EC06F6FDE100EE96E6EC0B8F06DC03B
:10197000B7F097DE200EC06F65DE480EC06F62DEE6
:101980003A0EC06F5FDE100EE96E70C0B8F06FC027
:10199000B7F087DE240E9EA8FED7AE6E100EE96E5D
:1019A00066C0B8F065C0B7F0D5DE230E9EA8FED79E
:1019B000AE6E240E9EA8FED7AE6E100EE96E68C005
:1019C000B8F067C0B7F0C6DE230E9EA8FED7AE6E95
:1019D000240E9EA8FED7AE6E100EE96E6AC0B8F057
:1019E00069C0B7F0B7DE230E9EA8FED7AE6E0A0E12
:1019F0009EA8FED7AE6EC80EC66F62DD58D7030034
:020000040001F9
:08FFF8009AF73DFF61F880F962
:00000001FF
;PIC18F47J53
;CRC=D85C  CREATED="27-May.-16 19:45"
