:041000002DEF09F0D7
:08100800010E315E0CE3EA6AFF
:10101000310EE96EEF5007E0020E006E002EFED793
:1010200000D0EF2EF9D712008E0E006E32C001F004
:1010300031C002F0036A015209E102C001F0026A04
:10104000080E005E015202E1006A08D0D89001BE8D
:1010500004D0023601360006F9D7019ED7EF09F019
:101060003150D8B471D0006E3550D8B46DD0002650
:1010700004E3810E002668E204D07F0E005E64E384
:1010800063E032C039F03650391A328E368E345021
:101090003802F4CF3BF033503702F4CF03F0F3CFF4
:1010A0003AF03802F3503B26F4503A22000E032265
:1010B00034503702F3503B26F4503A22000E026AB5
:1010C0000322022232503802F3503A26F45003220F
:1010D000000E022232503702F3500326F45002224F
:1010E000000E016A012234503602F3503A26F450C1
:1010F0000322000E0222012233503602F35003264F
:10110000F4500222000E012232503602F350022621
:10111000F4500122002A01BE05D03A3603360236C9
:1011200001360006000E3AAE0AD0032A022201223E
:10113000015005E1025003E1035001E1002A39BEEC
:10114000018E39AE019E04D0006A016A026A036A08
:1011500012008E0E006E3050005E31C002F032C0C0
:1011600001F0028E005209E0D890025202E10152D1
:1011700004E002320132002EF7D731AE05D0011E55
:10118000021E012AD8B4022AF1EF09F0B60E006E51
:10119000036A026A016A305031103210331002E1E2
:1011A000006A0DD0D89001BE09D0303631363236C3
:1011B0003336033602360136002EF4D7019E2EEF69
:1011C0000AF03050B608306E036A31C034F0318E08
:1011D000D8903132323233320332023201320032AD
:1011E000302EF6D734AE0BD0001E011E021E031E99
:1011F000002AD8B4012AD8B4022AD8B4032A47EF67
:101200000AF0126A136A146A156A315002080BE276
:10121000FF0A03E13050E70806E2E80E305E030EF5
:10122000315A152AF2D7315203E13050630806E2F1
:10123000640E305E000E315A122AF5D7315203E1A6
:101240003050090806E20A0E305E000E315A132AA9
:10125000F5D730C014F0A0EF0AF0F86AD09E0E0166
:10126000550EA76EAA0EA76EBF91140EF76F060E4D
:10127000D36F550EA76EAA0EA76EBF81AE0E006E7D
:101280000F0E016E020EE96E000EEA6EEE6A002E7F
:10129000FDD7012EFBD7EA6AE96A046A7E86E10E71
:1012A000B06E040E7F6EA60EAD6E900EAC6E066A2A
:1012B000056A086A076A126A136A146A156A166A66
:1012C000176A186A196A0101886BFF0E0F01486FCF
:1012D000C29CC29E4951E00B1F09496F256BD16A20
:1012E000D26A3F0E1A6E060E1B6E5B0E1C6E4F0E00
:1012F0001D6E660E1E6E6D0E1F6E7D0E206E070E2D
:10130000216E7F0E226E670E236E770E246E7C0E8A
:10131000256E580E266E5E0E276E7B0E286E710EA1
:10132000296E2A6A2B6A9B8CC150C00B0309C16EBF
:10133000C19EC280C28EC282C2B2FED7C29EFF0EC2
:10134000486FC29CC29E4951E00B0909496F956ADA
:101350001FC08CFF96948D84FAD7938E81BE02D0E5
:10136000116A0BD0938C81BC03D0010E116E05D095
:10137000938A81BA02D0020E116E1150000A000148
:1013800006E0010A34E0030AD8B4C3D0D4D0280E52
:10139000016EC250C30B0110C26E640E316E34DE9A
:1013A000C282C2B2FED7C450326A316E3DD603C08B
:1013B00034F002C033F001C032F000C031F07D0ED5
:1013C000386EAE0E376E260E366E7F0E356E48DEE8
:1013D00003C033F002C032F001C031F000C030F081
:1013E000B8D601C00FF00A6A0FC009F0A4D0240ECD
:1013F000016EC250C30B0110C26E640E316E04DE6A
:10140000C282C2B2FED7C4500E6A0D6A0C6A0B6E5D
:101410000E5208E10D5206E10C5204E10B50030894
:10142000D8B06CD06E0ED8800B54006E000E0C54E9
:10143000016E000E0D54026E000E0E540E6E02C0B0
:101440000DF001C00CF000C00BF00EC033F00DC069
:1014500032F00CC031F00BC030F098D603C034F03D
:1014600002C033F001C032F000C031F0330E386EEC
:10147000376E030E366E820E356EF2DD03C033F02A
:1014800002C032F001C031F000C030F09AD603C083
:101490000EF002C00DF001C00CF000C00BF00E52B7
:1014A0000AE10D5208E10C50020817E2FF0A03E1BD
:1014B0000B50E80812E20E5210E10D520EE10C50F2
:1014C00004080BE303E10B504B0807E30E6A0D6AB7
:1014D000030E0C6EE80E0B6E10D00E520AE10D5288
:1014E00008E10C50030809E2FF0A03E10B504C0825
:1014F00004E20E6A0D6A0C6A0B6A06D00E6A0D6A67
:10150000030E0C6EE80E0B6E0CC00AF00BC009F057
:1015100012D0300E016EC250C30B0110C26E640EA9
:10152000316E72DDC282C2B2FED7C4CF10F00A6A39
:1015300010C009F000D00AC031F009C030F061D607
:10154000066A056A06525FE105504F085CE3036ACC
:1015500014501A0FE96E000E0320EA6EEFCF30F040
:10156000956A30C08CFF96908D80C80E316E4CDD30
:1015700096908D90036A13501A0FE96E000E0320A7
:10158000EA6EEFCF30F0956A30C08CFF929A898A6C
:10159000020E306EFA0E316E37DD302EFBD7929A86
:1015A000899A036A12501A0FE96E000E0320EA6E40
:1015B000EFCF30F0956A30C08CFF96928D82020E8C
:1015C000306EFA0E316E20DD302EFBD796928D9262
:1015D000036A15501A0FE96E000E0320EA6EEFCF72
:1015E00030F0956A30C08CFF96948D84020E306E78
:1015F000FA0E316E09DD302EFBD796948D94052AB4
:0C160000D8B4062A9FD70F01A8D603001B
:020000040001F9
:08FFF8009AF73DFF61F880F962
:00000001FF
;PIC18F47J53
;CRC=AE78  CREATED="31-May.-16 18:32"
