:04100000A4EF0FF05A
:08100800046ED8CF05F0E0CF23
:1010100006F00001E9CF0CF0EACF07F0E1CF08F0CD
:10102000E2CF09F0D9CF0AF0DACF0BF0F3CF12F00C
:10103000F4CF13F0FACF14F0F5CF15F0F6CF16F089
:10104000F7CF17F0F8CF18F0FBCF19F000C00EF073
:1010500001C00FF002C010F003C011F0F2A834EF8D
:1010600008F0F2B236EF0AF00EC000F00FC001F047
:1010700010C002F011C003F00CC0E9FF07C0EAFF86
:10108000078E08C0E1FF09C0E2FF0AC0D9FF0BC00C
:10109000DAFF12C0F3FF13C0F4FF14C0FAFF15C04B
:1010A000F5FF16C0F6FF17C0F7FF18C0F8FF19C00C
:1010B000FBFF045006C0E0FF05C0D8FF1000F76A30
:1010C000D20FF66E100EF722000EF86E0900F550E2
:1010D00012000D090EBA157116311A7A1B731C61B4
:1010E0001D771E322163227823642465253426333C
:1010F00029202A762B662C742D722E35316E3262A1
:101100003368346735793636392C3A6D3B6A3C752D
:101110003D373E38412C426B4369446F4530463978
:10112000492E4A2D4B6C4CF14D704E2052B45460F8
:1011300055A15A0D5B0A5DE7613C662069316B344D
:101140006C377030712E7232733574367538792B76
:101150007A337B2D7C2A7D390000F76A6E0FF66E9C
:10116000110EF722000EF86E0900F55012000D095D
:101170000EAA155116211A5A1B531C411D571E2227
:101180002143225823442445252426B729202A56C2
:101190002B462C542D522E25314E324233483447A3
:1011A00035593626394C3A4D3B4A3C553D2F3E2861
:1011B000413B424B4349444F453D4629493A4A5FEA
:1011C0004B4C4CD14D504E3F52A8545E55BF5A0D1A
:1011D0005B2A5DC7613E662069316B346C377030C5
:1011E000712E7232733574367538792B7A337B2DC4
:1011F0007C2A7D39000093948A94080E016E00D0F9
:101200000000018E0ED0019EA233D8B08A84D8A0EF
:101210008A94018C06D0019C012EF6D700D00000E4
:101220008A84CA0EE96EE92EFED7000001BEEBD714
:1012300001BCF1D712007153D8A40BD19F51F00A11
:101240000BE0E20A0CE04B0A0DE0030A0EE03C0A58
:1012500014E0100A16E019D0010E716FF9D0010EDA
:10126000726FF6D0010E726FF3D0726B2184230E71
:10127000226E2A0EA26FBFDFEBD0726B440E226E7D
:10128000E7D0726B2A0E226EE3D07253D8A473D0CB
:10129000A06BD890A035A26BA16FA2C003F0A151A2
:1012A0000EDF9F5D0DE0D890A035A46BA36FA4C0A6
:1012B00003F0A35104DF016E015202E0A02BE9D735
:1012C000D890A035A26BA16FA2C003F0A151F7DEA8
:1012D0009F5D14E19F51660811E14606D890A03544
:1012E000A26BA16F010EA125016E000EA221036E5B
:1012F0000150E5DE226E230EA26F7DDFD890A0356F
:10130000A26BA16FA2C003F0A151D9DE9F5D22E1C3
:101310009F5166081FE0D890A035A26BA16F010E07
:10132000A125016E000EA221036E0150C8DE226EBF
:10133000036A46504A0FE96E000E0320EA6EEFCFB3
:10134000A1F0A1C0A2F057DF4650462A200802E1D2
:10135000010E466ED890A035A26BA16FA2C003F01B
:10136000A151ADDE9F5D06E19F515B0803E1210EB7
:10137000A26F41DF6CD0A06BD890A035A26BA16F9B
:10138000A2C003F0A151E9DE9F5D0DE0D890A03529
:10139000A46BA36FA4C003F0A351DFDE016E015262
:1013A00002E0A02BE9D7D890A035A26BA16FA2C014
:1013B00003F0A151D2DE9F5D4AE1D890A035A26B27
:1013C000A16FA2C003F0A151C8DE9F5D14E19F513F
:1013D000660811E14606D890A035A26BA16F010EF8
:1013E000A125016E000EA221036E0150B6DE226E11
:1013F000230EA26F00DFD890A035A26BA16FA2C010
:1014000003F0A151AADE9F5D22E19F5166081FE013
:10141000D890A035A26BA16F010EA125016E000E20
:10142000A221036E015099DE226E036A46504A0FD4
:10143000E96E000E0320EA6EEFCFA1F0A1C0A2F08A
:10144000DADE4650462A200802E1010E466E00D040
:101450000BD0716B9F51120A03E04B0A03E004D0DA
:10146000726B02D0726B00D04AEF0AF044500A0847
:101470000CE34450020809E2D8909E339386706BC7
:1014800081B6702B702D01D09E8F442E08D09EC047
:101490009FF0D1D69E6B0B0E446E010E6E6F010E47
:1014A0006E6F6F2BF298F29234EF08F00C20202030
:1014B0004269656E76656E69646F200A4D656E756A
:1014C0005B4553435D000C5B3C2D5D44656C65746E
:1014D000650A5B454E5445525D53657400000C41EE
:1014E0007369676E65206C6F73207369672E0A20BD
:1014F0004C696D697465732D3E000C5B415D5465EC
:101500006D702E205B435D4C757A0A5B425D4875B9
:101510006D65646164205B4553435D000C54656DEB
:101520007065726174757261204D61783A200A208D
:1015300020202020202020205B456E7465725D00F5
:101540000C48756D65646164204D61783A200A200D
:1015500020202020202020205B456E7465725D00D5
:101560000C4C757A204D61783A200A2020202020EA
:10157000202020205B456E7465725D000C202020C9
:10158000202020204F4B21202020202020200A0036
:101590000C456C206C696D697465206D6178696DAE
:1015A0006F200A202065732D3E254C7520430000D6
:1015B00054656D702E204D61782D3E254C7543008D
:1015C0000C456C206C696D697465206D6178696D7E
:1015D0006F200A202065732D3E254C75000048754C
:1015E0006D2E204D61782D3E254C75000C456C20EC
:1015F0006C696D697465206D6178696D6F200A2072
:101600002065732D3E254C75206C6D004C757A203D
:101610002E4D61782D3E254C756C6D000C5B415D47
:1016200054656D702E205B435D4C757A0A5B425D9C
:1016300048756D65646164205B4553435D0020001F
:101640000C546D703A2020204320486D3A20202011
:1016500025630A4C757A3A202020202020000C2097
:1016600020204C696D697465204D61782E0A64658F
:101670002074656D706572617475726121000C2053
:1016800020204C696D697465204D61782E0A2064B4
:10169000652048756D656461642100000C20202080
:1016A0004C696D697465204D61782E0A202064654F
:1016B000204C757A21000C546D703A202020432074
:1016C000486D3A20202025630A4C757A3A20202064
:1016D00020202000EA6A830EE96EEF500EE00F0E24
:1016E000016E006A002EFED7012EFBD78F0E006E12
:1016F000002EFED70000EF2EF2D7120095928C92AA
:10170000815302E18C9001D08C80959082A903D006
:1017100095948C8402D095948C9482AB03D095964A
:101720008C8602D095968C9682AD03D095988C8845
:1017300002D095988C9882AF03D0959A8C8A02D06B
:10174000959A8C9A270E006E002EFED700D09592A7
:101750008C82010E836FBEDF95928C92010E836F97
:10176000B9DF82A103D095948C8402D095948C9497
:1017700082A303D095968C8602D095968C9682A5EE
:1017800003D095988C8802D095988C9882A703D026
:10179000959A8C8A02D0959A8C9A270E006E002E0C
:1017A000FED700D095928C82010E836F93DF9592C5
:1017B0008C92010E836F8EDF1200010E7F5DFC0F95
:1017C00013E2040FF9EF0BF07F0E7E25806F0CD033
:1017D000BF0E7E25806F08D08F0E7E25806F04D0CF
:1017E000CF0E7E25806F00D0816B80C082F086DFB7
:1017F0001200E824F76AF736130FF66E180EF72278
:10180000000EF86EFB6E0A00F550FA6E0800F550F7
:10181000F96EC817D017D817E017320E836F5ADF4A
:10182000816B330E826F6ADF816B320E826F66DFEF
:10183000816B280E826F62DF816B0C0E826F5EDF20
:10184000816B010E826F5ADF010E7E6F7F6FB5DFF5
:10185000F2EF0FF07D510C0A03E0060A0AE00ED009
:10186000816B010E826F4ADF010E7E6F7F6FA5DFF5
:101870000BD07E6B020E7F6FA0DF06D0010E816F52
:101880007DC082F03BDF00D012000900F55210E06D
:10189000F6CF74F0F7CF75F0F8CF76F0F5CF7DF096
:1018A000D9DF74C0F6FF75C0F7FF76C0F8FFEDD73B
:1018B0001200816B0C0E826F21DF12007D517F19A7
:1018C000800B816F7DAF05D07C1F7D1F7C2BD8B432
:1018D0007D2B7FAF05D07E1F7F1F7E2BD8B47F2B43
:1018E0007C517E03F3CF01F0F4CF00F07F03F3507F
:1018F00000267D517E03F3500020026E81AF05D09B
:10190000011E021E012AD8B4022AF8EF0CF07A6BED
:10191000786B0A0E796F776B766B7451751104E1F1
:10192000000E016E026EE6D07A517A2B036A74259E
:10193000E96E75510320EA6EEFCF7BF07B512D08E5
:101940000DE1010E786F7A517A2B036A7425E96EE6
:1019500075510320EA6EEFCF7BF00DD07B512B0841
:101960000AE17A517A2B036A7425E96E75510320D6
:10197000EA6EEFCF7BF07B512F08D8B0ADD07B5112
:101980003908D8A0A9D07B51300821E1036A7A51E7
:101990007425E96E75510320EA6EEF5078080AE06D
:1019A000036A7A517425E96E75510320EA6EEF508F
:1019B00058080DE1100E796F7A2B7A517A2B036A51
:1019C0007425E96E75510320EA6EEFCF7BF07951F3
:1019D0000A0821E17B512F081DE27B5139081AE3E7
:1019E0007D6B0A0E7C6F77C07FF076C07EF066D785
:1019F000300E7B5D0124766F000E0220776F7A51E6
:101A00007A2B036A7425E96E75510320EA6EEFCFD5
:101A10007BF0E0D761D0795110085EE17B5160081E
:101A200006E27B517A0803E37B51DF0B01D07B5147
:101A30007B6F7B512F0803E27B51390806E27B5113
:101A400040084AE27B51460847E37B512F0819E2E0
:101A50007B51390816E376357C6F77357D6F7C379F
:101A60007D377C377D377C377D37F00E7C17300E25
:101A70007B5D7C25016E000E7D2101C076F0776FC5
:101A800016D076357C6F77357D6F7C377D377C3728
:101A90007D377C377D37F00E7C17410E7B5D0A0F5A
:101AA0007C25016E000E7D2101C076F0776F7A51A2
:101AB0007A2B036A7425E96E75510320EA6EEF50A4
:101AC0007B6F600806E27B517A0803E37B51DF0BF2
:101AD00001D07B517B6FADD779510A0807E1782D92
:101AE00005D0761F771F762BD8B4772B76C001F000
:101AF00077C002F012000900F6CF75F0F7CF76F04C
:101B0000F8CF77F0F5CF7DF0A5DE75C0F6FF76C093
:101B1000F7FF77C0F8FF742FEED71200EACF7CF002
:101B2000E9CF7BF07539F009776F7727E20F786F8F
:101B3000320F7A6F75510F0B782778277A27E90FC4
:101B4000796F7927792774390F0B79277A277937B5
:101B50007A377A1F7A3774510F0B7A277737070E47
:101B6000766F0A0E79077A27FDE378077927FDE378
:101B700077077827FDE376077727FDE3EA6A760E95
:101B8000E96E070E7B157B9DE9267A0EE95CD8B4D9
:101B90007B8DEF50006E08E17BBD06D07BB913D082
:101BA0007BB702D0200E03D07B877B99300E0026B6
:101BB000EACF75F0E9CF74F000C07DF04BDE75C060
:101BC000EAFF74C0E9FFEE507BADDFD71200756706
:101BD00003D0766702D007D0762B74C0EEFF752F46
:101BE000FCD7762FFAD78AEF11F0816B0E0E826F39
:101BF00085DD96EF11F0010E745F0CE3EA6A740E56
:101C0000E96EEF5007E0020E006E002EFED700D006
:101C1000EF2EF9D71200016A026A006A036A77514F
:101C200002E1765118E0100E786FD890743775374E
:101C3000003603367751035C02E17651005C07E31E
:101C40007651005ED8A003067751035ED880013636
:101C50000236782FEAD71200986B996B010E9A6FB3
:101C6000DA6AD96A9D6B900E9C6FEA6A940EE96EEF
:101C70009DC0E2FF9CC0E1FF9AC09BF0D890E55068
:101C8000EE02F3509823F45099239B2FF7D798C076
:101C9000DEFF99C098F0996BD8B0992B9C2BD8B4E3
:101CA0009D2B9A2B9A510508E0E1CEEF0EF0D8B2A9
:101CB00003D0EA6A980EE96E006A016A026A036A52
:101CC000986B996B9A6B9B6B975196119511941128
:101CD0002CE0200E9C6FD890903791379237933735
:101CE000983799379A379B3797519B5D08E1965102
:101CF0009A5D05E19551995D02E19451985D0FE37C
:101D00009451985F9551D8A0953D995F9651D8A070
:101D1000963D9A5F9751D8A0973D9B5FD88000363B
:101D20000136023603369C2FD6D798C0EFFF99C0F4
:101D3000ECFF9AC0ECFF9BC0ECFFFAEF0EF078517D
:101D4000745D886F79517559896F7A5176598A6FA8
:101D50007B5177598B6F8051845D006E815185591D
:101D6000016E82518659026E83518759036E8F6FBF
:101D700002C08EF001C08DF000C08CF08BC093F0DB
:101D80008AC092F089C091F088C090F0976F02C02D
:101D900096F001C095F000C094F05ED703C08BF0C0
:101DA00002C08AF001C089F000C088F078517C5DE3
:101DB000006E79517D59016E7A517E59026E7B51C8
:101DC0007F59036E8F6F02C08EF001C08DF000C08E
:101DD0008CF0D8928BC093F08AC092F089C091F0B9
:101DE00088C090F0976F02C096F001C095F000C0D7
:101DF00094F05DD703C08BF002C08AF001C089F077
:101E000000C088F080510024006E81510120016ED5
:101E100082510220026E83510320036E1200050ED0
:101E20007E6F010E7F6FC9DC100EE96E2CC075F05D
:101E30002BC074F073DE2C520CE12B50630809E3C5
:101E40002C5203E12B50090804E2200E7D6F02DDC5
:101E50000BD02C5209E12B50090806E3200E7D6FB0
:101E6000F9DC200E7D6FF6DC050E7E6F020E7F6FB3
:101E7000A4DC100EE96E2EC075F02DC074F04EDE9D
:101E8000200E7D6FE7DC6C0E7D6FE4DC6D0E7D6FE8
:101E9000E1DC2E5003080DE303E12D50E70809E3D0
:101EA0002E5203E12D50630804E2200E7D6FD2DC38
:101EB0001CD02E520CE12D50630809E32E5203E191
:101EC0002D50090804E2200E7D6FC4DC0ED02E5286
:101ED0000CE12D50090809E3200E7D6FBBDC200EBC
:101EE0007D6FB8DC200E7D6FB5DC0D0E7E6F010EB0
:101EF0007F6F63DC305203E12F50640803E2306AE5
:101F0000640E2F6E100EE96E30C075F02FC074F0A5
:101F100005DE30520CE12F50630809E32C5203E137
:101F20002B50090804E2200E7D6F94DC0BD0305258
:101F300009E12F50090806E3200E7D6F8BDC200E8F
:101F40007D6F88DCFFEF13F0F86AD09E078E0E01DC
:101F5000550EA76EAA0EA76EBF91140EF76F060E50
:101F6000D36F550EA76EAA0EA76EBF81EA6AE96A03
:101F700093948A842192010E456E466E476E486E98
:101F8000496E0001716B726B736B0101886BFF0E00
:101F90000F01486FC29CC29E4951E00B1F09496F57
:101FA000256BD16AD26A1B6A1C6A960E336E346A3C
:101FB000E80E356E030E366E640E376E386A9B8CF3
:101FC000000E926E936E956E969096929694946E85
:101FD000200E926E0F0E936E000E956E0B0E446ED9
:101FE00000011BD493809386939A8A9A6F6B6E6BD1
:101FF000706BF19CF292F288C00EF212C150C00BCD
:102000000309C16EC18EC280C28EC282C2B2FED727
:10201000C29EF30E0F01486FC29CC29E4951E00B55
:102020001709496FAC0EF66E140EF76E000EF86EBF
:1020300000012BDC040E746FFA0E836F6AEC0BF058
:10204000742FFAD722502A0803E02250230806E111
:10205000226A320E836F6AEC0BF006D06E2D03D02D
:102060006E6BF292F288EED7C60EF66E140EF76E15
:10207000000EF86E0ADC0A0E746FFA0E836F6AECBB
:102080000BF0742FFAD7DE0EF66E140EF76E000EFC
:10209000F86E45EC0CF00A0E746FFA0E836F6AEC62
:1020A0000BF0742FFAD7FA0EF66E140EF76E000EC0
:1020B000F86E45EC0CF0226A22502A08D8B47DD183
:1020C0002252D8B474D12250600805E2225063082D
:1020D00002E3200E225E2250410A07E0030A0EE0CE
:1020E000010A15E0600A1CE002D11C0EF66E150E06
:1020F000F76E000EF86E45EC0CF0F9D0400EF66E5F
:10210000150EF76E000EF86E45EC0CF0F0D0600E78
:10211000F66E150EF76E000EF86E45EC0CF0E7D07B
:1021200059EC0CF07C0EF66E150EF76E000EF86E84
:1021300045EC0CF04250410A06E0030A44E0010A73
:10214000D8B47BD0C2D0756B230E746F87EC0CF0C3
:1021500002C03AF001C039F034503A5C1FE303E1A9
:102160003950335C1BE2900EF66E150EF76E000EC2
:10217000F86E190E746FBFDC100EE96E34C075F086
:1021800033C074F0CBDC200E7D6F2AEC0CF0430ED4
:102190007D6F2AEC0CF03A6A396A97D0B00EF66E71
:1021A000150EF76E000EF86E0B0E746FA4DC100E99
:1021B000E96E3AC075F039C074F0B0DC430E7D6F43
:1021C0002AEC0CF082D0756B230E746F87EC0CF048
:1021D00002C03EF001C03DF038503E5C19E303E11F
:1021E0003D50375C15E2C00EF66E150EF76E000E10
:1021F000F86E190E746F7FDC100EE96E38C075F042
:1022000037C074F08BDC250E7D6F2AEC0CF05DD0AE
:10221000DE0EF66E150EF76E000EF86E0A0E746F77
:102220006ADC100EE96E3EC075F03DC074F076DCDD
:10223000250E7D6F2AEC0CF048D0756B230E746F61
:1022400087EC0CF002C03CF001C03BF036503C5C27
:1022500023E303E13B50355C1FE2EC0EF66E150EF6
:10226000F76E000EF86E190E746F45DC100EE96EF5
:1022700036C075F035C074F051DC200E7D6F2AEC4D
:102280000CF06C0E7D6F2AEC0CF06D0E7D6F2AEC5D
:102290000CF03C6A3B6A19D00C0EF66E160EF76E07
:1022A000000EF86E0A0E746F26DC100EE96E3CC04C
:1022B00075F03BC074F032DC6C0E7D6F2AEC0CF0D4
:1022C0006D0E7D6F2AEC0CF000D00C0E746FFA0EC0
:1022D000836F6AEC0BF0742FFAD71C0EF66E160E95
:1022E000F76E000EF86E45EC0CF0219200D02250F3
:1022F000410806E02250420803E02250430813E15F
:1023000022C042F0EA6A230EE96E746B766B040E0B
:10231000756F5DD4010E7E6F020E7F6FDDEC0BF0EA
:102320002A6A296A218221A241D05FD422502F0833
:1023300017E22250390814E32A5212E12950030807
:102340000FE322C07DF02AEC0CF0230E2924E96E65
:10235000000E2A20EA6E22C0EFFF292AD8B42A2ACA
:102360002250440823E1295202E12A521FE029C0E9
:102370007EF0020E7F6FDDEC0BF03E0EF66E160E59
:10238000F76E000EF86E45EC0CF029C07EF0020EE0
:102390007F6FDDEC0BF02950D8B42A062906230EF6
:1023A0002924E96E000E2A20EA6EEF6A226A6E2D59
:1023B00003D06E6BF292F2887FD659EC0CF0400E8F
:1023C000F66E160EF76E000EF86E100E746F7BEC44
:1023D0000DF0250E7D6F2AEC0CF0520EF66E160EE7
:1023E000F76E000EF86E0B0E746F7BEC0DF0000EA6
:1023F0000609CA6E4A0ECB6E939A8A9A0C0E0F018A
:102400000F6F5195939C8A9C0C6F5199939E8A9E55
:10241000096F3F0E5117000E5113106B0D6B0A6BB5
:102420002C6A2B6A2E6A2D6A306A2F6A0C0E016E96
:10243000C250C30B0110C26E640E0001746FFBEC3E
:102440000DF0286A276A285212E1275009080FE385
:10245000C282C2B2FED7C3502B26C4502C22010E1A
:10246000836F6AEC0BF0272AD8B4282AECD7080E21
:10247000016EC250C30B0110C26E640E746FFBEC90
:102480000DF0286A276A285212E1275013080FE33B
:10249000C282C2B2FED7C3502D26C4502E22010ED6
:1024A000836F6AEC0BF0272AD8B4282AECD72C0EBD
:1024B000016EC250C30B0110C26E640E746FFBEC50
:1024C0000DF0286A276A285212E1275009080FE305
:1024D000C282C2B2FED7C3502F26C4503022010E92
:1024E000836F6AEC0BF0272AD8B4282AECD72CC0CB
:1024F00075F02BC074F0776B0A0E766F0BEC0EF054
:1025000002C02CF001C02BF02EC075F02DC074F06D
:10251000776B140E766F0BEC0EF002C02EF001C03C
:102520002DF030C075F02FC074F0776B0A0E766F07
:102530000BEC0EF002C030F001C02FF0776B766B21
:102540002CC075F02BC074F07B6B7A6B796B0C0E22
:10255000786F7F6B7E6B070E7D6F460E7C6F836B93
:10256000826B816B806B876B866B856B960E846F3D
:102570009FEC0EF001C02CF000C02BF02E50020892
:1025800007E303E12D50570803E32E6A2D6A1FD09D
:10259000776B766B2EC075F02DC074F07B6B7A6B09
:1025A000796B786B7F6B7E6B050E7D6F7C6B836BBD
:1025B000826B816B806B876B866B030E856FE80E79
:1025C000846F9FEC0EF001C02EF000C02DF02E5055
:1025D000020809E2FF0A03E12D50E80804E2030EB5
:1025E0002E6EE80E2D6EE80ED8802D56030E2E5658
:1025F000776B766B30C075F02FC074F07B6B7A6BA5
:10260000796B786B7F6B7E6B0F0E7D6F7C69836B54
:10261000826B816B806B876B866B856B690E846FB9
:102620009FEC0EF001C030F000C02FF0305203E1FB
:102630002F50640803E2306A640E2F6E31502D5C17
:10264000746F32502E58756F036E7451755308E1D4
:102650007451060805E332C02EF031C02DF004D0CD
:102660002EC032F02DC031F0776B766B30C075F034
:102670002FC074F07B6B7A6B796B786B7F6B7E6BA2
:102680003EC07DF03DC07CF0836B826B816B806BC4
:10269000876B866B856B84699FEC0EF000C03FF002
:1026A000776B766B2EC075F02DC074F07B6B7A6BF8
:1026B000796B786B7F6B7E6B3CC07DF03BC07CF0B0
:1026C000836B826B816B806B876B866B856B846998
:1026D0009FEC0EF000C040F0776B766B2CC075F06D
:1026E0002BC074F07B6B7A6B796B786B7F6B7E6B36
:1026F0003AC07DF039C07CF0836B826B816B806B5C
:10270000876B866B856B84699FEC0EF000C041F08F
:102710003FC010FF40C00DFF41C00AFF3A502C5C83
:1027200019E303E139502B5C15E321960F010A6987
:102730005E0EF66E160EF76E000EF86E000145EC9A
:102740000CF0020E746FFA0E836F6AEC0BF0742FAC
:10275000FAD755D03E50305C19E303E13D502F5C71
:1027600015E321960F0110697E0EF66E160EF76EB8
:10277000000EF86E000145EC0CF0020E746FFA0EBC
:10278000836F6AEC0BF0742FFAD739D03C502E5C73
:1027900019E303E13B502D5C15E321960F010D6910
:1027A0009C0EF66E160EF76E000EF86E000145ECEC
:1027B0000CF0020E746FFA0E836F6AEC0BF0742F3C
:1027C000FAD71DD021B619D0B60EF66E160EF76EDA
:1027D000000EF86E100E746F7BEC0DF0250E7D6F01
:1027E0002AEC0CF0C80EF66E160EF76E000EF86EA0
:1027F0000B0E746F7BEC0DF021860FEF0FF0960E31
:0C280000836F6AEC0BF00F010BD6030095
:020000040001F9
:08FFF8009AF73DFF61F880F962
:00000001FF
;PIC18F47J53
;CRC=3B8C  CREATED="08-Abr.-16 18:22"
