:0410000022EF0AF0E1
:081008000C202052656C6F6A98
:10101000202020200A202020445331333037200064
:101020000D0A496E696369616E646F20457363726E
:1010300069747572612044533133303721000C4894
:101040004F52413A2532783A2532783A2532780A99
:1010500046454348413A2532782F2532782F3230A1
:1010600025327800EA6A580EE96EEF500EE00F0E56
:10107000016E006A002EFED7012EFBD78F0E006E88
:10108000002EFED70000EF2EF2D7120095948C941C
:1010900095928C92565202E18C9001D08C80959062
:1010A00057A803D095968C8602D095968C9657AA11
:1010B00003D095988C8802D095988C9857AC03D023
:1010C000959A8C8A02D0959A8C9A57AE03D0959CAB
:1010D0008C8C02D0959C8C9C270E006E002EFED727
:1010E00000D095948C84010E586EBCDF95948C943E
:1010F000010E586EB7DF57A003D095968C8602D0AC
:1011000095968C9657A203D095988C8802D0959886
:101110008C9857A403D0959A8C8A02D0959A8C9A71
:1011200057A603D0959C8C8C02D0959C8C9C270E46
:10113000006E002EFED700D095948C84010E586E60
:1011400091DF95948C94010E586E8CDF1200010E85
:10115000545CFC0F13E2040FC3EF08F07F0E53241E
:10116000556E0CD0BF0E5324556E08D08F0E5324ED
:10117000556E04D0CF0E5324556E00D0566A55C01C
:1011800057F084DF1200E824F76AF736A70FF66EEF
:10119000110EF722000EF86EFB6E0A00F550FA6E83
:1011A0000800F550F96E5C1164116C117411320E67
:1011B000586E58DF566A330E576E68DF566A320E25
:1011C000576E64DF566A280E576E60DF566A0C0E43
:1011D000576E5CDF566A010E576E58DF010E536E74
:1011E000546EB5DF52EF0AF052500C0A03E0060AC3
:1011F0000AE00ED0566A010E576E48DF010E536E9C
:10120000546EA5DF0BD0536A020E546EA0DF06D0D9
:10121000010E566E52C057F039DF00D0120009009F
:10122000F55210E0F6CF4EF0F7CF4FF0F8CF50F078
:10123000F5CF52F0D9DF4EC0F6FF4FC0F7FF50C0D8
:10124000F8FFEDD71200080E016E110E006E002E91
:10125000FED78A969396110E006E002EFED74F365B
:101260008A92D8B09382D8A09392938681A6FED713
:10127000012EEBD7110E006E002EFED78A969396A4
:1012800000009382110E006E002EFED7110E006E2C
:10129000002EFED7938681A6FED7016A110E006E3E
:1012A000002EFED781B201808A9693968A929392FD
:1012B0001200080E526E00C053F09382110E006EA1
:1012C000002EFED7938681A6FED781B2D88081A258
:1012D000D8900136110E006E002EFED793968A9696
:1012E000522EEBD79382110E006E002EFED78A92FB
:1012F0005350D8A493920000938681A6FED7110E76
:10130000006E002EFED78A969396110E006E002E68
:10131000FED78A92939212009382110E006E002ED5
:10132000FED79386110E006E002EFED78A929392FE
:10133000110E006E002EFED78A969396D00E4F6E39
:1013400082DF4F6A80DF93920000938681A6FED7EA
:10135000110E006E002EFED700D000009382110EF9
:10136000006E002EFED79382110E006E002EFED767
:101370009386110E006E002EFED78A929392110E64
:10138000006E002EFED78A969396D10E4F6E5BDFCD
:101390004E6A4E503E080EE3036A4E500E0FE96E41
:1013A000000E0320EA6E010E006E83DF01C0EFFF26
:1013B0004E2AEFD7006A7DDF01C04DF09392000006
:1013C000938681A6FED7110E006E002EFED700D0A8
:1013D00000009382110E006E002EFED776EF0AF009
:1013E0000900F6CF4FF0F7CF50F0F8CF51F0F5CF1E
:1013F00052F0FADE4FC0F6FF50C0F7FF51C0F8FFC1
:101400004E2EEED712004FBE0FD00F0E006E4E388C
:1014100000160A0E005C03E2300E002602D04F5088
:10142000002600C052F0E0DE0F0E4E160A0E4E5C93
:1014300002E2300E02D04F9E4F504E264EC052F068
:10144000D3DE1200F86AD09EAE0E006E0F0E016E53
:10145000020EE96E000EEA6EEE6A002EFDD7012E36
:10146000FBD7EA6AE96A046A7E96190EB06EA60E88
:10147000AD6E900EAC6E066A076A0A6A0B6A0C6A59
:101480000D6A0101886BFF0E0F01486FC29CC29E5E
:101490004951E00B1F09496F256BD16AD26A9B8CB9
:1014A000000185D6080EF66E100EF76E000EF86E6F
:1014B000B6DE100E106E010E0F6E0E6A020E116E69
:1014C000230E126E090E136E160E146E100E156E8C
:1014D000200EF66E100EF76E000EF86EA0DE9398DA
:1014E0008A88939C8A8C939A8A8A16D73E0EF66EC7
:1014F000100EF76E000EF86E060E4E6E71DF10C005
:101500004EF0570E4F6E7FDF3A0E526E6DDE0FC0FB
:101510004EF0570E4F6E77DF3A0E526E65DE0EC0FC
:101520004EF0570E4F6E6FDF4F0EF66E100EF76EC9
:10153000000EF86E070E4E6E53DF12C04EF0570EBF
:101540004F6E61DF2F0E526E4FDE13C04EF0570EFE
:101550004F6E59DF2F0E526E47DE320E526E44DE52
:10156000300E526E41DE14C04EF0570E4F6E4BDF00
:10157000040E4E6EFA0E586E75DD4E2EFBD7B5D7A3
:02158000030066
:020000040001F9
:08FFF8009AF73DFF61F880F962
:00000001FF
;PIC18F47J53
;CRC=4A17  CREATED="23-Sept.-16 10:01"
