:0410000007EF0CF0FA
:081008000C21212E2E2E57456C
:101010004C434F4D452E2E2E210A232323232323D9
:101020002323232323232323232300000C546F2073
:101030006368616E6765207468650A74696D652010
:101040004453313330373F2563272A2700000C48AB
:101050006F757225632020202020202020272A273A
:101060000A004D696E757465732563000C54696DD3
:10107000652073617665642121210A256325327814
:101080003A2532783A303020202020272A270000C5
:101090000C5365742050574D204F75747075742033
:1010A000254C750A256300000C5365742048483AA6
:1010B0006D6D204F4E20254C750A256300000C53A2
:1010C00065742048483A6D6D204F464620254C7582
:1010D0000A2563000C4461746525632532782F2549
:1010E00032782F323025327800000A486F75722529
:1010F000632532783A2532783A2532780000EA6A58
:101100007E0EE96EEF500EE00F0E016E006A002EAB
:10111000FED7012EFBD78F0E006E002EFED70000EB
:10112000EF2EF2D7120095948C9495928C927C536A
:1011300002E18C9001D08C8095907DA903D095968A
:101140008C8602D095968C967DAB03D095988C8832
:1011500002D095988C987DAD03D0959A8C8A02D058
:10116000959A8C9A7DAF03D0959C8C8C02D0959CDF
:101170008C9C270E006E002EFED700D095948C8498
:10118000010E7E6FBCDF95948C94010E7E6FB7DFED
:101190007DA103D095968C8602D095968C967DA3E2
:1011A00003D095988C8802D095988C987DA503D013
:1011B000959A8C8A02D0959A8C9A7DA703D0959C9B
:1011C0008C8C02D0959C8C9C270E006E002EFED736
:1011D00000D095948C84010E7E6F91DF95948C9451
:1011E000010E7E6F8CDF1200010E7A5DFC0F13E2A0
:1011F000040F10EF09F07F0E79257B6F0CD0BF0E26
:1012000079257B6F08D08F0E79257B6F04D0CF0EA8
:1012100079257B6F00D07C6B7BC07DF084DF120072
:10122000E824F76AF736410FF66E120EF722000E29
:10123000F86EFB6E0A00F550FA6E0800F550F96E74
:10124000F611FE1106120E12320E7E6F58DF7C6B05
:10125000330E7D6F68DF7C6B320E7D6F64DF7C6BDD
:10126000280E7D6F60DF7C6B0C0E7D6F5CDF7C6B0E
:10127000010E7D6F58DF010E796F7A6FB5DF2FEFAA
:101280000CF078510C0A03E0060A0AE00ED07C6BE1
:10129000010E7D6F48DF010E796F7A6FA5DF0BD0ED
:1012A000796B020E7A6FA0DF06D0010E7C6F78C0DA
:1012B0007DF039DF00D012000900F55210E0F6CFC2
:1012C0006DF0F7CF6EF0F8CF6FF0F5CF78F0D9DF93
:1012D0006DC0F6FF6EC0F7FF6FC0F8FFEDD752EF9D
:1012E0000CF00900F6CF70F0F7CF71F0F8CF72F084
:1012F000F5CF78F0C6DF70C0F6FF71C0F7FF72C09F
:10130000F8FF6F2FEED712000F0E6E6F7E6FF7DEB5
:10131000929A899A926880500F0B6E6F6E510F08E7
:101320001DE0929A898AC80E7E6FE9DE6E51070829
:1013300003E1410E016E8ED06E510B0803E1330EB6
:10134000016E88D06E510D0803E1320E016E82D01D
:101350006E510E0803E1310E016E7CD0929A898A9B
:1013600096908D90926880500F0B6E6F6E510F08A3
:101370001DE096908D80C80E7E6FC1DE6E5107080D
:1013800003E1420E016E66D06E510B0803E1360E8A
:10139000016E60D06E510D0803E1350E016E5AD01A
:1013A0006E510E0803E1340E016E54D096908D807C
:1013B00096928D92926880500F0B6E6F6E510F084F
:1013C0001DE096928D82C80E7E6F99DE6E510708E1
:1013D00003E1430E016E3ED06E510B0803E1390E5E
:1013E000016E38D06E510D0803E1380E016E32D017
:1013F0006E510E0803E1370E016E2CD096928D824D
:1014000096948D94926880500F0B6E6F6E510F08FA
:101410001DE096948D84C80E7E6F71DE6E510708B4
:1014200003E1440E016E16D06E510B0803E1230E4A
:10143000016E10D06E510D0803E1300E016E0AD01E
:101440006E510E0803E12A0E016E04D096948D842D
:10145000800E016E32EF0AF0800E6D6F6D518008C4
:1014600004E152D701C06DF0F9D76DC001F0120050
:10147000080E016E110E006E002EFED78A9693960E
:10148000110E006E002EFED76F378A92D8B093826D
:10149000D8A09392938681A6FED7012EEBD7110E8A
:1014A000006E002EFED78A96939600009382110E4E
:1014B000006E002EFED7110E006E002EFED7938612
:1014C00081A6FED7016A110E006E002EFED781B2F2
:1014D00001808A9693968A9293921200080E716FF9
:1014E00000C072F09382110E006E002EFED793861C
:1014F00081A6FED781B2D88081A2D8900136110E84
:10150000006E002EFED793968A96712FEBD79382AA
:10151000110E006E002EFED78A927251D8A49392BB
:101520000000938681A6FED7110E006E002EFED716
:101530008A969396110E006E002EFED78A92939291
:1015400012009382110E006E002EFED79386110EAC
:10155000006E002EFED78A929392110E006E002E1E
:10156000FED78A969396D00E6F6F82DF6F6B80DF07
:1015700093920000938681A6FED7110E006E002E76
:10158000FED700D000009382110E006E002EFED711
:101590009382110E006E002EFED79386110E006E00
:1015A000002EFED78A929392110E006E002EFED767
:1015B0008A969396D10E6F6F5BDF6D6B6D513E080F
:1015C0000EE3036A6D510B0FE96E000E0320EA6E05
:1015D000010E006E83DF01C0EFFF6D2BEFD7006AB5
:1015E0007DDF01C04AF093920000938681A6FED76A
:1015F000110E006E002EFED700D000009382110E57
:10160000006E002EFED712007451016A735D03E272
:1016100073C000F00CD0006A080E756F7337003687
:101620007451005CD8B0006E0136752FF7D71EEFED
:101630000BF072C073F00A0E746FE6D70150060DFE
:10164000F3507225016E12009382110E006E002E6F
:10165000FED79386110E006E002EFED78A929392CB
:10166000110E006E002EFED78A969396D00E6F6FE5
:10167000FFDE6F6BFDDE6D6B6D513F080EE3036A9D
:101680006D510B0FE96E000E0320EA6EEFCF6EF086
:101690006EC06FF0EDDE6D2BEFD793920000938656
:1016A00081A6FED7110E006E002EFED700D00000DE
:1016B0009382110E006E002EFED7E4EF0CF06EBF89
:1016C0000FD00F0E006E6D3900160A0E005C03E29B
:1016D000300E002602D06E51002600C078F0D1DD19
:1016E0000F0E6D170A0E6D5D02E2300E02D06E9F76
:1016F0006E516D276DC078F0C4DD1200EACF77F02F
:10170000E9CF76F07039F009726F7227E20F736FCC
:10171000320F756F70510F0B732773277527E90F01
:10172000746F742774276F390F0B742775277437FC
:101730007537751F75376F510F0B75277237070E89
:10174000716F0A0E74077527FDE373077427FDE3B5
:1017500072077327FDE371077227FDE3EA6A710ED2
:10176000E96E070E7615769DE926750EE95CD8B40C
:10177000768DEF50006E08E176BD06D076B913D0B5
:1017800076B702D0200E03D076877699300E0026E9
:10179000EACF70F0E9CF6FF000C078F072DD70C072
:1017A000EAFF6FC0E9FFEE5076ADDFD7120071514E
:1017B0007303F3CF01F0F4CF00F07403F35000266D
:1017C00072517303F3500020026E1200016A026A24
:1017D000006A036A745102E1735118E0100E756FCC
:1017E000D89071377237003603367451035C02E1CA
:1017F0007351005C07E37351005ED8A00306745177
:10180000035ED88001360236752FEAD71200F86AD7
:10181000D09EAE0E006E0F0E016E020EE96E000E2F
:10182000EA6EEE6A002EFDD7012EFBD7EA6AE96A5E
:10183000596A586A5B6A5A6A0101886BFF0E0F0188
:10184000486FC29CC29E4951E00B1F09496F256B2E
:10185000D16AD26A056A066A9B8C0001F5D4000E33
:101860000609CA6E950ECB6EC29093988A980C0E9C
:101870000F01126FFC0E5117000E5113939A8A9AA2
:101880000C0E0F6F5195939C8A9C0C6F5199136BA2
:10189000106B0D6B080EF66E100EF76E000EF86EE4
:1018A00000010AD5040E6D6FFA0E7E6F28DC6D2FD5
:1018B000FBD72C0EF66E100EF76E000EF86E1B0E98
:1018C0006F6F0FDD7E0E786FDCDC270E786FD9DC52
:1018D0002A0E786FD6DC270E786FD3DCBDDD01C011
:1018E0004BF04B502A08D8A499D02BDE4E0EF66E42
:1018F000100EF76E000EF86E050E6F6FF2DC7E0EA6
:10190000786FBFDC550EF66E100EF76E000EF86E97
:101910000C0E6F6FE6DC060E796F010E7A6F64DCD9
:10192000596A586A6C51010848E396DD01C04BF0D2
:101930004B502A082CE16C531BE162510A0DF35005
:1019400063256D6F726F75DE01C00DF0010E796F4A
:10195000020E7A6F49DC620EF66E100EF76E000E04
:10196000F86E070E6F6FBDDC7E0E786F8ADC0BD0D1
:101970006C2D09D062510A0DF35063256D6F726FA3
:1019800058DE01C00CF0596A586A6C2B15D04B50C8
:101990002F0812E24B503A080FE3620E5824E96E0A
:1019A000000E5920EA6E300E4B5CEF6E4BC078F0A3
:1019B00068DC582AD8B4592AB5D7230E0F6E160EF4
:1019C000116E090E106E40D66C0EF66E100EF76E8C
:1019D000000EF86E0F0E6F6F84DC7E0E786F51DC98
:1019E0000DC06DF0570E6E6F6ADE3A0E786F49DCEF
:1019F0000CC06DF0570E6E6F62DE840EF66E100E28
:101A0000F76E000EF86E0A0E6F6F6BDC040E6D6FD2
:101A1000FA0E7E6F7FEC08F06D2FFAD75B6A5A6A78
:101A20005B52D8A4B4D05A500208D8A0B0D0010E4E
:101A30005A246D6F000E5B206E6F900EF66E100EC6
:101A4000F76E000EF86E100E6F6F4BDC100EE96E25
:101A50006EC070F06DC06FF051DE0A0E786F11DC51
:101A60007E0E786F0EDC596A586AF6DC01C04BF0C6
:101A70004B502F0812E24B503A080FE34BC078F05E
:101A800000DC620E5824E96E000E5920EA6E300E1A
:101A90004B5CEF6E582AD8B4592A4B502A08E5E11E
:101AA00058C000F05950036E03E1020E005C06E0DE
:101AB000035003E1030E005C2BE059D0D8905A3458
:101AC000026E5B34036E02505C0FE96E000E032061
:101AD000EA6E62510A0DF3506325706B6F6F70C030
:101AE00072F0716F746B736962DE02C070F001C0D6
:101AF0006FF002C072F001C071F0746B640E736F0E
:101B000065DE02C003F001C0EFFF02C0ECFF2FD082
:101B1000D8905A34026E5B34036E02505C0FE96E4B
:101B2000000E0320EA6E6251640DF3CF6FF0635133
:101B30000A0DF3506F256425706B6F6F70C072F0E3
:101B4000716F746B736933DE02C070F001C06FF0A7
:101B500002C072F001C071F0746B640E736F36DEF8
:101B600002C003F001C0EFFF02C0ECFF00D0250E61
:101B7000786F41EC09F0060E6D6FFA0E7E6F7FEC08
:101B800008F06D2FFAD75A2AD8B45B2A49D75B6A76
:101B90005A6A5B52D8A438D15A500208D8A034D11E
:101BA000010E5A246D6F000E5B206E6FA80EF66E4C
:101BB000100EF76E000EF86E0E0E6F6F71EC09F0DE
:101BC000100EE96E6EC070F06DC06FF097DD0A0EFA
:101BD000786F41EC09F07E0E786F41EC09F0596A9C
:101BE000586A3ADC01C04BF04B502F0813E24B50BF
:101BF0003A0810E34BC078F041EC09F0620E58242B
:101C0000E96E000E5920EA6E300E4B5CEF6E582ADA
:101C1000D8B4592A4B502A08E4E14C0E5A24016EDC
:101C2000000E5B20036E01C06DF06E6F62510A0DF5
:101C3000F35063256F6F726FFCDC6EC0EAFF6DC0FE
:101C4000E9FF01C0EFFF3A0E786F41EC09F04B6AF3
:101C5000596A4BC058F000DC01C04BF04B502F08C4
:101C600013E24B503A0810E34BC078F041EC09F016
:101C7000620E5824E96E000E5920EA6E300E4B5C5D
:101C8000EF6E582AD8B4592A4B502A08E4E1520E74
:101C90005A24016E000E5B20036E01C06DF06E6F62
:101CA00062510A0DF35063256F6F726FC2DC6EC014
:101CB000EAFF6DC0E9FF01C0EFFF020E6D6FFA0E83
:101CC0007E6F7FEC08F06D2FFAD7010E5A246D6FEE
:101CD000000E5B206E6FBE0EF66E100EF76E000EDD
:101CE000F86E0F0E6F6F71EC09F0100EE96E6EC09A
:101CF00070F06DC06FF002DD0A0E786F41EC09F0F4
:101D00007E0E786F41EC09F0596A586A2CEC0AF0A3
:101D100001C04BF04B502F0813E24B503A0810E330
:101D20004BC078F041EC09F0620E5824E96E000EC9
:101D30005920EA6E300E4B5CEF6E582AD8B4592AFF
:101D40004B502A08E3E1030E5A246D6F000E5B200E
:101D50006E6F4C0E6D25016E000E6E21036E01C07C
:101D60006FF0706F62510A0DF3506325716F726FDF
:101D700060DC70C0EAFF6FC0E9FF01C0EFFF3A0E00
:101D8000786F41EC09F04B6A596A4BC058F02CEC63
:101D90000AF001C04BF04B502F0813E24B503A08A9
:101DA00010E34BC078F041EC09F0620E5824E96E64
:101DB000000E5920EA6E300E4B5CEF6E582AD8B4F4
:101DC000592A4B502A08E3E1030E5A246D6F000E86
:101DD0005B206E6F520E6D25016E000E6E21036E3C
:101DE00001C06FF0706F62510A0DF3506325716F7F
:101DF000726F1FDC70C0EAFF6FC0E9FF01C0EFFF28
:101E00005A2AD8B45B2AC5D6A1EC0AF0D40EF66ED5
:101E1000100EF76E000EF86E050E6F6F71EC09F084
:101E20007E0E786F41EC09F00FC06DF0570E6E6FAB
:101E300046DC2F0E786F41EC09F010C06DF0570EA4
:101E40006E6F3DDC2F0E786F41EC09F0320E786F2B
:101E500041EC09F0300E786F41EC09F011C06DF0E3
:101E6000570E6E6F2CDCA1EC0AF05B6A5A6A5B526B
:101E7000D8A489D05A500508D8A085D04C0E5A2431
:101E8000E96E000E5B20EA6EEF500D5CD8A477D0AF
:101E9000520E5A24E96E000E5B20EA6EEF500C5C85
:101EA000D8A46DD05B524DE15A5002084AE35A5211
:101EB00018E15B5216E15DC002F05CC001F0023235
:101EC000013202320132023201C013FF023202300B
:101ED000300B006E0F011251CF0B0010126F2FD07C
:101EE00000015A2C18D05B5216E15FC002F05EC0B0
:101EF00001F00232013202320132023201C010FF1F
:101F000002320230300B006E0F010F51CF0B001068
:101F10000F6F15D0000161C002F060C001F0023205
:101F2000013202320132023201C00DFF02320230B0
:101F3000300B006E0F010C51CF0B00100C6F1ED038
:101F40000001030E5A5C6D6F000E5B586E6F6D538F
:101F500006E16E5304E10F01136B10D00001030E74
:101F60005A5C6D6F000E5B586E6F6D2D05D06E5311
:101F700003E10F01106B02D00F010D6B00015A2A13
:101F8000D8B45B2A74D7EA0EF66E100EF76E000E08
:101F9000F86E050E6F6F71EC09F07E0E786F41ECF4
:101FA00009F00DC06DF0570E6E6F5FEC0BF03A0E3E
:101FB000786F41EC09F00CC06DF0570E6E6F5FEC5E
:101FC0000BF03A0E786F41EC09F00BC06DF0570E34
:101FD0006E6F5FEC0BF0FA0E7E6F7FEC08F043D76C
:021FE0000300FC
:020000040001F9
:08FFF8009AF73DFF61F880F962
:00000001FF
;PIC18F47J53
;CRC=FAAB  CREATED="23-Sept.-16 17:31"
