:04100000BDEF08F048
:08100800EA6A2D0EE96EEF50BB
:101010000EE00F0E016E006A002EFED7012EFBD7E8
:101020008F0E006E002EFED70000EF2EF2D71200BA
:101030002C6A2B5203E12C502A5C46E3140E122436
:10104000E96E000E1320EA6EEF50FF0A956A8C6E6F
:10105000939A8A9A020E2D6ED7DF939A8A8A140E7B
:101060001024E96E000E1120EA6EEF50FF0A956A17
:101070008C6E96948D94020E2D6EC6DF96948D84A0
:10108000140E0E24E96E000E0F20EA6EEF50FF0AD8
:10109000956A8C6E939C8A9C020E2D6EB5DF939C94
:1010A0008A8C140E0C24E96E000E0D20EA6EEF50AF
:1010B000FF0A956A8C6E939E8A9E020E2D6EA4DFA7
:1010C000939E8A8E2C2AB5D712002C502E02F3CF75
:1010D00001F0F4CF00F02F02F35000262D502E0225
:1010E000F3500020026E12000F6A0E6A116A106A35
:1010F000136A126A0D6A0C6A2D520AE12C5208E139
:101100002B50020810E2FF0A03E12A50E7080BE225
:10111000E80E2A5E030E2B5A000E2C5A2D5A0C2A6A
:10112000D8B40D2AE9D72D5207E12C5205E12B52F4
:1011300003E12A5063080AE2640E2A5E000E2B5A6D
:101140002C5A2D5A0E2AD8B40F2AEDD72D5207E16A
:101150002C5205E12B5203E12A5009080AE20A0E3B
:101160002A5E000E2B5A2C5A2D5A102AD8B4112A56
:10117000EDD7136A2AC012F01200F86AD09E0E0151
:10118000550EA76EAA0EA76EBF91140EF76F060E2E
:10119000D36F550EA76EAA0EA76EBF81AE0E006E5E
:1011A0000F0E016E020EE96E000EEA6EEE6A002E60
:1011B000FDD7012EFBD7EA6AE96A046A0D6A0C6A58
:1011C0000F6A0E6A116A106A136A126A0101886B4B
:1011D000FF0E0F01486FC29CC29E4951E00B1F09D0
:1011E000496F256BD16AD26A3F0E146E060E156EDA
:1011F0005B0E166E4F0E176E660E186E6D0E196E24
:101200007D0E1A6E070E1B6E7F0E1C6E670E1D6E16
:10121000770E1E6E7C0E1F6E580E206E5E0E216EB7
:101220007B0E226E710E236E246A256A9B8C2B6ABC
:10123000010E2A6E0001FCDE938081B083D0052A66
:10124000052C33D00DC02DF00CC02CF0030E2F6EEA
:10125000E80E2E6E3ADF02C02BF001C02AF00FC05C
:101260002DF00EC02CF02F6A640E2E6E2EDF02C001
:1012700003F001502A2602502B2211C02DF010C07D
:101280002CF02F6A0A0E2E6E20DF01502A26025003
:101290002B2212502A24066E13502B20076E2D6A23
:1012A0002C6A2B6A2A6A20DF49D00550020839E1EE
:1012B0000DC02DF00CC02CF0030E2F6EE80E2E6E1C
:1012C00004DF02C02BF001C02AF00FC02DF00EC0C9
:1012D0002CF02F6A640E2E6EF8DE02C003F001506F
:1012E0002A2602502B2211C02DF010C02CF02F6A9C
:1012F0000A0E2E6EEADE01502A2602502B221250D0
:101300002A240A6E13502B200B6E06500A26075013
:101310000B222D6A2C6A0BC02BF00AC02AF0E4DEE7
:101320000DD0055003080AE12D6A2C6A2B6A2A6A3F
:10133000DBDE056A0B6A0A6A076A066A2B6A190EFF
:101340002A6E76DE938881B80ED0122AD8B4132A7A
:1013500012500A0804E1135202E1136A126A2B6A5E
:10136000190E2A6E65DE938681B60ED0102AD8B487
:10137000112A10500A0804E1115202E1116A106AA0
:101380002B6A190E2A6E54DE938481B40ED00E2A75
:10139000D8B40F2A0E500A0804E10F5202E10F6A76
:1013A0000E6A2B6A190E2A6E43DE938281B20ED02A
:1013B0000C2AD8B40D2A0C500A0804E10D5202E19F
:1013C0000D6A0C6A2B6A190E2A6E32DE0F012FD7B6
:0213D000030018
:020000040001F9
:08FFF8009AF73DFF61F880F962
:00000001FF
;PIC18F47J53
;CRC=0DF3  CREATED="13-Oct.-16 00:47"
