:0410000045EF0CF0BC
:08100800046ED8CF05F0E0CF23
:1010100006F00001E9CF0CF0EACF07F0E1CF08F0CD
:10102000E2CF09F0D9CF0AF0DACF0BF0F3CF12F00C
:10103000F4CF13F0FACF14F0FBCF15F000C00EF090
:1010400001C00FF002C010F003C011F09DAA2CEFF8
:1010500008F09EBA31EF09F00EC000F00FC001F0A9
:1010600010C002F011C003F00CC0E9FF07C0EAFF96
:10107000078E08C0E1FF09C0E2FF0AC0D9FF0BC01C
:10108000DAFF12C0F3FF13C0F4FF14C0FAFF15C05B
:10109000FBFF045006C0E0FF05C0D8FF10007A6BCC
:1010A0007B6B010E7C6FDA6AD96A7F6B720E7E6F82
:1010B000EA6A760EE96E7FC0E2FF7EC0E1FF7CC087
:1010C0007DF0D890E550EE02F3507A23F4507B2364
:1010D0007D2FF7D77AC0DEFF7BC07AF07B6BD8B06C
:1010E0007B2B7E2BD8B47F2B7C2B7C510508E0E139
:1010F000F0EF08F0D8B203D0EA6A7A0EE96E006A1F
:10110000016A026A036A7A6B7B6B7C6B7D6B795137
:101110007811771176112CE0200E7E6FD8907237FF
:101120007337743775377A377B377C377D3779512A
:101130007D5D08E178517C5D05E177517B5D02E1E1
:1011400076517A5D0FE376517A5F7751D8A0773D7B
:101150007B5F7851D8A0783D7C5F7951D8A0793DEC
:101160007D5FD88000360136023603367E2FD6D713
:101170007AC0EFFF7BC0ECFF7CC0ECFF7DC0ECFFD2
:1011800012005A50565C6A6F5B5057586B6F5C5038
:1011900058586C6F5D5059586D6F6251665D006EA6
:1011A00063516759016E64516859026E65516959FE
:1011B000036E716F02C070F001C06FF000C06EF07E
:1011C0006DC075F06CC074F06BC073F06AC072F0E3
:1011D000796F02C078F001C077F000C076F05FD779
:1011E00003C06DF002C06CF001C06BF000C06AF08B
:1011F0005A505E5C006E5B505F58016E5C506059E7
:10120000026E5D506159036E716F02C070F001C0D3
:101210006FF000C06EF0D8926DC075F06CC074F0C5
:101220006BC073F06AC072F0796F02C078F001C0D1
:1012300077F000C076F05EDF03C06DF002C06CF0A6
:1012400001C06BF000C06AF062510024006E63516F
:101250000120016E64510220026E65510320036E6D
:101260001200000E9EBA010E000AD8B47BD09EAACE
:10127000FED7AFCF55F05550410A05E0030A28E0EC
:10128000010A4BE06FD09EAAFED7AFCF33F0300EED
:10129000335E596A586A576A33C056F05D6A5C6AB1
:1012A0005B6A37C05AF0616B606B5F6A38C05EF092
:1012B000656B646B636B39C062F0696B686B676BFD
:1012C0003AC066F05EDF00C033F033C0BBFF4AD0E7
:1012D0009EAAFED7AFCF34F0300E345E596A586AFA
:1012E000576A34C056F05D6A5C6A5B6A37C05AF070
:1012F000616B606B5F6A38C05EF0656B646B636BDB
:1013000039C062F0696B686B676B3AC066F039DFB1
:1013100000C034F034C0B5FF25D09EAAFED7AFCFB1
:1013200035F0300E355E596A586A576A35C056F046
:101330005D6A5C6A5B6A37C05AF0616B606B5F6ABA
:1013400038C05EF0656B646B636B39C062F0696BCB
:10135000686B676B3AC066F014DF00C035F035C0CB
:1013600016FF00D09E9A2CEF08F0202020543A203F
:1013700025332E31662063204C3A2025332E3166EA
:10138000200A0D00000E0609CA6E4A0ECB6E939C11
:101390008A9C0C0EBA6EBD6ABE6A010EBF6EF80E54
:1013A0000F015217000E5213939A8A9A0C0EB46EC4
:1013B000B76AB86A010EB96EC70E5217000E521303
:1013C00093988A980C0E156F186B196B010E1A6F93
:1013D0003F0E5217000E52130001B9EF0CF0EA6AEB
:1013E0003C0EE96EEF500EE00F0E016E006A002E0B
:1013F000FED7012EFBD78F0E006E002EFED7000009
:10140000EF2EF2D712008E0E006E3CC001F03BC0F2
:1014100002F0036A015209E102C001F0026A080EFB
:10142000005E015202E1006A08D0D89001BE04D0EB
:10143000023601360006F9D7019E12003B50D8B49F
:10144000A5D0476E3F50D8B4A1D0475E05E37F0ECC
:101450004726D8B09BD006D0810E475ED8A096D044
:10146000D8B494D047C000F0016A026A036A466AA1
:101470003CC045F0458E3DC044F03EC043F0190EDF
:10148000476E4250435E0DE2010E445E0AE2455E45
:1014900008E2465E06E2462A452A442A425043268E
:1014A00028D04150445E12E2010E455E0FE2465ED6
:1014B0000DE2462A452A415044264250432619E36C
:1014C000442A17E1452A15E1462A13D040508009E5
:1014D000455E0EE2010E465E0BE2462A4050800950
:1014E000452641504426E9E3452AE7E1462AE5D767
:1014F0000380472E01D00BD0D89043364436453672
:101500004636D8900336023601364836BAD748A058
:1015100006D0D890013202320332483202D000069F
:1015200035E048BE1ED0D890433644364536463660
:101530004250435E07E2010E445E04E2455E02E271
:10154000465E1AE34150445E05E2010E455E02E24A
:10155000465E12E340508009455E03E2010E465E9E
:101560000BE3032A09E1022A07E1012A05E1002A27
:101570000DE00132023203323CC047F04050471ABE
:1015800047AE02D0018E06D0019E04D0006A016AE7
:10159000026A036ADEEF0CF04850D8B471D0006ED6
:1015A0004C50D8B46DD0002604E3810E002668E2CA
:1015B00004D07F0E005E64E363E049C050F04D50FC
:1015C000501A498E4D8E4B504F02F4CF52F04A5074
:1015D0004E02F4CF03F0F3CF51F04F02F3505226F6
:1015E000F4505122000E03224B504E02F35052266B
:1015F000F4505122000E026A0322022249504F0287
:10160000F3505126F4500322000E022249504E029C
:10161000F3500326F4500222000E016A01224B50BF
:101620004D02F3505126F4500322000E02220122F3
:101630004A504D02F3500326F4500222000E0122BC
:1016400049504D02F3500226F4500122002A01BEF7
:1016500005D051360336023601360006000E51AE73
:101660000AD0032A02220122015005E1025003E1BF
:10167000035001E1002A50BE018E50AE019E04D0FD
:10168000006A016A026A036A12000900F6CF3CF0A0
:10169000F7CF3DF0F8CF3EF0F5509EA8FED7AE6EE6
:1016A0003CC0F6FF3DC0F7FF3EC0F8FF3B2EEDD734
:1016B00012004850B608486E036A49C04CF0498E83
:1016C000D89049324A324B32033202320132003270
:1016D000482EF6D74CAE0BD0001E011E021E031E74
:1016E000002AD8B4012AD8B4022AD8B4032AA0EF19
:1016F0000BF0E950406E3F50426E19E03EC04BF097
:101700003DC04AF03CC049F03BC048F04F6A4E6AC9
:10171000200E4D6E820E4C6E3FDF03C03EF002C0C5
:101720003DF001C03CF000C03BF0422EE7D73EC088
:101730004BF03DC04AF03CC049F03BC048F0B9D73F
:1017400003C03EF002C03DF001C03CF000C03BF0E1
:101750003EAE0DD04006408A3B1E3C1E3D1E3E1E46
:101760003B2AD8B43C2AD8B43D2AD8B43E2A3B0EF2
:10177000476E9A0E466ECA0E456E446A0A0E426E57
:101780003F50D8B4402AD882EA6A3B0EE96E176A05
:10179000F2BE178EF29E3EC075F03DC074F03CC0A4
:1017A00073F03BC072F047C079F046C078F045C096
:1017B00077F044C076F09EDC17BEF28E01500052E6
:1017C0000FE13F28425C0CE040500CE00F0B425C04
:1017D00001E03BE240BE39D040BC04D0200E30D006
:1017E000200E401640AA0DD0409A3F50D8A4400683
:1017F0000050406E2D0E9EA8FED7AE6E4050006E7B
:10180000406A3F50425C0BE10050406E2E0E9EA895
:10181000FED7AE6E4050006E200E4016000E300E09
:1018200040AA0ED0409A3F50D8A440060050406EC7
:101830002D0E9EA8FED7AE6E4050006E406A300E50
:10184000002600509EA8FED7AE6ED892176AF2BE50
:10185000178EF29E47C075F046C074F045C073F015
:1018600044C072F0796B786B776B0A0E766F42DC4E
:1018700017BEF28E03C047F002C046F001C045F02B
:1018800000C044F0422E7FD71200F86AD09E078E27
:101890000E01550EA76EAA0EA76EBF91160EC76F4A
:1018A000120EC86F0E0EC96F550EA76EAA0EA76E48
:1018B000BF81AE0E006E0F0E016E020EE96E000EBD
:1018C000EA6EEE6A002EFDD7012EFBD77E964D0EF6
:1018D000B06EA60EAD6E900EAC6E206A1F6A226AC4
:1018E000216A266A256A7F0E246E860E236E2A6A76
:1018F000296A286A276A2E6A2D6A2C6A2B6A326A3C
:10190000316A306A2F6A336A346A356A366A376AEE
:10191000090E386E396A3A68FF0E0F01486FC29C93
:10192000C29E4951E00B1F09496F0101886B0F01ED
:10193000256BD16AD26A186A196A9B8CC00EF212A2
:101940009D8ABB6AB56A166BC150C00B0309C16E94
:10195000C19EC280C18CC282C2B2FED7C19C3F0E62
:10196000486FC29CC29E4951E00B1F09496F00019C
:1019700009D51C0E016EC250C30B0110C26E010EC0
:101980003C6E2DDDC282C2B2FED7206AC4CF1FF0EA
:1019900020C03CF01FC03BF036DD03C03EF002C06B
:1019A0003DF001C03CF000C03BF026C042F025C035
:1019B00041F024C040F023C03FF040D503C03EF0CA
:1019C00002C03DF001C03CF000C03BF003C04BF052
:1019D00002C04AF001C049F000C048F04F6A400E12
:1019E0004E6E4E0E4D6E8A0E4C6ED6DD03C02AF042
:1019F00002C029F001C028F000C027F020C03CF050
:101A00001FC03BF000DD03C04BF002C04AF001C034
:101A100049F000C048F0B80E4F6E1E0E4E6E250EF7
:101A20004D6E7F0E4C6EB8DD03C02EF002C02DF05F
:101A300001C02CF000C02BF0180E016EC250C30B79
:101A40000110C26E010E3C6ECADCC282C2B2FED769
:101A5000226AC4CF21F022C03CF021C03BF0D3DC8D
:101A600003C032F002C031F001C030F000C02FF0EE
:101A70006A0EF66E130EF76E000EF86E060E3B6ED3
:101A800004DE020EE96E2EC03EF02DC03DF02CC0EB
:101A90003CF02BC03BF0010E3F6E2BDE750EF66E58
:101AA000130EF76E000EF86E060E3B6EEEDD020EA4
:101AB000E96E32C03EF031C03DF030C03CF02FC086
:101AC0003BF0010E3F6E15DE800EF66E130EF76EC4
:101AD000000EF86E030E3B6ED8DD040E3B6EFA0E60
:0C1AE0003C6E7DDC3B2EFBD744D703009E
:020000040001F9
:08FFF8009AF73DFF61F880FB60
:00000001FF
;PIC18F47J53
;CRC=3877  CREATED="25-Nov.-16 09:21"
