:04100000DCEF14F01D
:08100800046ED8CF05F0E0CF23
:1010100006F00001E9CF0CF0EACF07F0E1CF08F0CD
:10102000E2CF09F0D9CF0AF0DACF0BF0F3CF12F00C
:10103000F4CF13F0FACF14F0F5CF15F0F6CF16F089
:10104000F7CF17F0F8CF18F0FBCF19F000C00EF073
:1010500001C00FF002C010F003C011F0F2A834EF8D
:1010600008F0F2B23CEF13F0F2A63AEF08F0F2B05B
:101070000CEF12F00EC000F00FC001F010C002F033
:1010800011C003F00CC0E9FF07C0EAFF078E08C0DB
:10109000E1FF09C0E2FF0AC0D9FF0BC0DAFF12C0AE
:1010A000F3FF13C0F4FF14C0FAFF15C0F5FF16C01C
:1010B000F6FF17C0F7FF18C0F8FF19C0FBFF045078
:1010C00006C0E0FF05C0D8FF1000F76ADE0FF66E1D
:1010D000100EF722000EF86E0900F5501200217C68
:1010E000227C207C057CF76AFA0FF66E100EF72240
:1010F000000EF86E0900F55012003F065B4F666D5A
:101100007D077F67F76A180FF66E110EF722000E43
:10111000F86E0900F5501200010000000A000000FE
:1011200064000000E803000010270000A086010012
:1011300040420F008096980000E1F50500CA9A3BF6
:101140008A518C03F3CF01F0F4CF00F08D03F350FC
:1011500000268B518C03F3500020026E12008E0E7D
:10116000006EB4C001F0B3C002F0036A015209E19D
:1011700002C001F0026A080E005E015202E1006A3C
:1011800008D0D89001BE04D0023601360006F9D747
:10119000019E1200926703D0936702D007D0932B71
:1011A00091C0EEFF922FFCD7932FFAD712009151E6
:1011B000B608916F036A92C095F0928FD8909233DF
:1011C000933394330332023201320032912FF6D737
:1011D00095AF0BD0001E011E021E031E002AD8B4BC
:1011E000012AD8B4022AD8B4032A1200B0C0B7F03A
:1011F000B451B71BB7AF05D0D894D890B0BFD88042
:101200002FD0B0C0B7F0B3C0B8F0AF51B85F06E0B0
:10121000B7AF26D0D850010AD86E22D0B4C0B8F0EB
:10122000B051B85F06E0B7AF1BD0D850010AD86EF6
:1012300017D0B5C0B8F0B151B85F06E0B7AF10D065
:10124000D850010AD86E0CD0B6C0B8F0B251B85F11
:1012500006E0B7AF05D0D850010AD86E01D0D890BB
:1012600012009D6B9E6B010E9F6FDA6AD96AA26BAA
:10127000950EA16FEA6A990EE96EA2C0E2FFA1C0C5
:10128000E1FF9FC0A0F0D890E550EE02F3509D23FF
:10129000F4509E23A02FF7D79DC0DEFF9EC09DF087
:1012A0009E6BD8B09E2BA12BD8B4A22B9F2B9F5105
:1012B0000508E0E11200B60E006E036A026A016AD8
:1012C000959194AF0CD09581911F921F931F941FFD
:1012D000912B05E1922B03E1932BD8B4942B9151E0
:1012E00092119311941102E1006A0FD0D89001BEBF
:1012F00009D0913792379337943703360236013647
:10130000002EF4D7019E95B1018E1200B60E006E2C
:10131000036A026A016A915192119311941102E1D8
:10132000006A0DD0D89001BE09D09137923793371B
:101330009437033602360136002EF4D7019E120090
:10134000AF51D8B471D0006EB351D8B46DD000266F
:1013500004E3810E002668E204D07F0E005E64E3A1
:1013600063E0B0C0B7F0B451B71BB08FB48FB251C7
:10137000B603F4CFB9F0B151B503F4CF03F0F3CF16
:10138000B8F0B603F350B927F450B823000E032287
:10139000B251B503F350B927F450B823000E026AD6
:1013A00003220222B051B603F350B827F4500322AF
:1013B000000E0222B051B503F3500326F45002226E
:1013C000000E016A0122B251B403F350B827F45061
:1013D0000322000E02220122B151B403F35003266E
:1013E000F4500222000E0122B051B403F350022641
:1013F000F4500122002A01BE05D0B8370336023668
:1014000001360006000EB8AF0AD0032A02220122DC
:10141000015005E1025003E1035001E1002AB7BF8A
:10142000018EB7AF019E04D0006A016A026A036AA6
:1014300012008E0E006EAF51005EB0C002F0B1C05F
:1014400001F0028E005209E0D890025202E10152EE
:1014500004E002320132002EF7D7B0AF05D0011EF2
:10146000021E012AD8B4022A1200D8B203D0EA6AB6
:10147000A10EE96E006A016A026A036AA16BA26B9F
:10148000A36BA46BA0519F119E119D112CE0200E07
:10149000A56FD89099379A379B379C37A137A237D9
:1014A000A337A437A051A45D08E19F51A35D05E1D6
:1014B0009E51A25D02E19D51A15D0FE39D51A15F8F
:1014C0009E51D8A09E3DA25F9F51D8A09F3DA35F93
:1014D000A051D8A0A03DA45FD880003601360236C6
:1014E0000336A52FD6D7A1C0EFFFA2C0ECFFA3C043
:1014F000ECFFA4C0ECFF1200016A026A006A036AF2
:10150000965102E1955118E0100E976FD8909337DD
:101510009437003603369651035C02E19551005C26
:1015200007E39551005ED8A003069651035ED8806C
:1015300001360236972FEAD71200D8B203D0EA6AF2
:10154000A10EE96E9C51A019800BA66F9CAF0BD029
:10155000991F9A1F9B1F9C1F992BD8B49A2BD8B404
:101560009B2BD8B49C2BA0AF0BD09D1F9E1F9F1F01
:10157000A01F9D2BD8B49E2BD8B49F2BD8B4A02BE2
:10158000006A016A026A036AA16BA26BA36BA46B77
:10159000A0519F119E119D112CE0200EA56FD89097
:1015A00099379A379B379C37A137A237A337A4378F
:1015B000A051A45D08E19F51A35D05E19E51A25D8C
:1015C00002E19D51A15D0FE39D51A15F9E51D8A005
:1015D0009E3DA25F9F51D8A09F3DA35FA051D8A080
:1015E000A03DA45FD8800036013602360336A52F11
:1015F000D6D7A6AF0BD0001E011E021E031E002A66
:10160000D8B4012AD8B4022AD8B4032AA1C0EFFF63
:10161000A2C0ECFFA3C0ECFFA4C0ECFF1200800E40
:10162000D8B2B81BBD6BBE6BB4C0BCF0B851BC1B0C
:10163000B351D8B4DCD0BB6F006EB751D8B4E0D092
:10164000BB5FD8B481D03DE3B8C0C1F0C18FB9C091
:10165000C0F0BAC0BFF0BE6BD890C133C033BF3347
:10166000BE33BB2FF8D7BCAF03D0BD81DDD0BD9159
:10167000BB91BD89EA6AB60EE96EE9D0BD99BCBFDF
:101680000AD0BBA113D0C133C033BF33BE33002A4D
:10169000D8B4C5D00BD0C1BF0CD0D890BE37BF379F
:1016A000C037C1370006D8B4BAD0F5D7BD8D6BD0DE
:1016B000BD9DB4C0BCF0B4AF02D0C18FA9D0C19F52
:1016C000A7D0B7C0BBF0B7C000F0B351BB5FB4C088
:1016D000C1F0C18FB5C0C0F0B6C0BFF0BE6BD8902E
:1016E000C133C033BF33BE33BB2FF8D7BCAF03D039
:1016F000BD839AD0BD93BB91BD8BEA6ABA0EE96EE9
:10170000A6D0BD9BBCBF0AD0BBA113D0C133C03390
:10171000BF33BE33002AD8B482D00BD0C1BF0CD0A7
:10172000D890BE37BF37C037C1370006D8B477D09E
:10173000F5D7BD8F28D0BD9FB8C0BCF0B8AF02D0E0
:10174000C18F66D0C19F64D0B8C0C1F0C18FB9C08D
:10175000C0F0BAC0BFF0BCAF04D0C19FBD8564D09B
:10176000BD95BE6BBB91EA6AB60EE96E70D0BCBF88
:101770001CD0B4C0BCF0BBA106D0C133C033BF3352
:10178000BE33002A4CE0BEAF0BD0BF2B09E1C02B0B
:1017900007E1C12B05E1C133C033BF33002A3FE06D
:1017A000BDBD86D7BDBFC7D71CD0800EC11BC1AF82
:1017B00004D03AD0B8C0BCF00AD0B4C0BCF0C15319
:1017C00006E1C05304E1BF5302E1006A21D0C1BF6A
:1017D00008D0D890BE37BF37C037C137002EF7D7F3
:1017E0001ED0BCAF02D0C18F13D0C19F11D0B7C0E3
:1017F00000F0B8C0C1F0B9C0C0F0BAC0BFF008D0A6
:10180000B3C000F0B4C0C1F0B5C0C0F0B6C0BFF006
:10181000C1C001F0C0C002F0BFC003F034D0006A04
:10182000016A026A036A2FD0BE6BBF1FC01FC11FAF
:10183000BE1FBE2B05E1BF2B03E1C02B01E1C12B75
:10184000BDB115D7BDB356D7BDB58AD7B3D7EF5005
:10185000BF2705E3C02B03E1C12BD8B4BB81ED52F8
:10186000EF50C02703E3C12BD8B4BB81ED52EF503A
:10187000EFBE01D0800AC127D8B0BB81BDB9FED66A
:10188000BDBB3FD774D71200AE91A2C0A7F0A1C0D4
:10189000A6F0A0C0A5F09FC0A4F0A2C0B2F0A1C065
:1018A000B1F0A0C0B0F09FC0AFF0B66BB56BB46B39
:1018B000B36B9CDC04E3AE81A551800AA56FA7C081
:1018C000B2F0A6C0B1F0A5C0B0F0A4C0AFF0B66B46
:1018D000B56BB46B8E0EB36F89DC01E217E1A7C064
:1018E000B2F0A6C0B1F0A5C0B0F0A4C0AFF0A1DDC9
:1018F00002C0B4F001C0B3F032DC03C0ABF002C0F0
:10190000AAF001C0A9F000C0A8F0C0D0A7C0B2F0F2
:10191000A6C0B1F0A5C0B0F0A4C0AFF0800EB66F05
:10192000960EB56F180EB46F960EB36F5FDCD8A02D
:10193000A5D0A7C0B2F0A6C0B1F0A5C0B0F0A4C0B9
:10194000AFF0B66BB56BB46B700EB36FF9DC03C060
:10195000B2F002C0B1F001C0B0F000C0AFF069DD7C
:1019600002C0ADF001C0ACF0A7C0B2F0A6C0B1F0AB
:10197000A5C0B0F0A4C0AFF0B66BB56BB46B700E81
:10198000B36FDEDC00C0AFF001C0B0F002C0B1F058
:1019900003C0B2F0ADC0B4F0ACC0B3F0AFEC08F02F
:1019A000D882B2C0B6F0B1C0B5F0B0C0B4F0AFC02C
:1019B000B3F003C0BAF002C0B9F001C0B8F000C083
:1019C000B7F02DDEB26BB16BB06B8E0EAF6F03C094
:1019D000B6F002C0B5F001C0B4F000C0B3F0B0DCA6
:1019E00003C0A7F002C0A6F001C0A5F000C0A4F09B
:1019F000ADC0B4F0ACC0B3F0AFEC08F0B26BB16BFB
:101A0000B06B8E0EAF6F03C0B6F002C0B5F001C070
:101A1000B4F000C0B3F094DC03C0ABF002C0AAF095
:101A200001C0A9F000C0A8F0A7C0B2F0A6C0B1F0F4
:101A3000A5C0B0F0A4C0AFF0FCDC02C0B4F001C09F
:101A4000B3F0AFEC08F0D892ABC0B6F0AAC0B5F0D6
:101A5000A9C0B4F0A8C0B3F003C0BAF002C0B9F096
:101A600001C0B8F000C0B7F0DADD03C0ABF002C0CF
:101A7000AAF001C0A9F000C0A8F008D0A7C0ABF040
:101A8000A6C0AAF0A5C0A9F0A4C0A8F0A7C0B2F053
:101A9000A6C0B1F0A5C0B0F0A4C0AFF0CADC02C0CF
:101AA000B4F001C0B3F0AFEC08F0D882A7C0B6F034
:101AB000A6C0B5F0A5C0B4F0A4C0B3F003C0BAF09E
:101AC00002C0B9F001C0B8F000C0B7F0A8DD03C093
:101AD000A7F002C0A6F001C0A5F000C0A4F0AEA11E
:101AE00003D0A951800AA96FA7C0B2F0A6C0B1F077
:101AF000A5C0B0F0A4C0AFF0B66BB56BB46BB36B60
:101B0000F6EC08F036E0AEA119D0A35317E1D88265
:101B1000ABC0B6F0AAC0B5F0A9C0B4F0A8C0B3F08D
:101B2000BA6BB96BB86B7F0EB76F79DD03C0ABF0E2
:101B300002C0AAF001C0A9F000C0A8F0AEB119D04F
:101B4000A32D17D0D892ABC0B6F0AAC0B5F0A9C0EB
:101B5000B4F0A8C0B3F0BA6BB96BB86B7F0EB76FB7
:101B60005EDD03C0ABF002C0AAF001C0A9F000C066
:101B7000A8F0A2C0B2F0A1C0B1F0A0C0B0F09FC068
:101B8000AFF0B66BB56BB46BB36BF6EC08F004E179
:101B9000AB6BAA6BA96BA86BA8C000F0A9C001F041
:101BA000AAC002F0ABC003F012009EC0A2F09DC01C
:101BB000A1F09CC0A0F09BC09FF0010EA36F64DE5B
:101BC00012009351070B006E9331016E0132013206
:101BD0001F0E011601509525E96E000E9621EA6E42
:101BE000016A012A002A01D00136002EFDD7945344
:101BF00003E00150EF1203D0011E0150EF16120056
:101C0000EA6A910EE96EEF500EE00F0E016E006A67
:101C1000002EFED7012EFBD78F0E006E002EFED7B2
:101C20000000EF2EF2D712007A6AEA6A3C0EE96EE3
:101C3000916B936B040E926FCAEC08F08DC094F018
:101C40008CC093F08BC092F08AC091F0D7EC08F072
:101C500003C046F002C045F001C044F000C043F0AC
:101C60008DC0B2F08CC0B1F08BC0B0F08AC0AFF0C4
:101C7000B66BB56BB46BB36BF6EC08F01DE38AC0C2
:101C800000F08BC001F08CC002F08DC003F0019E0B
:101C90008DC094F08CC093F001C092F08AC091F096
:101CA000D7EC08F003C046F002C045F001C044F094
:101CB00000C043F01F8401D01F94040ED8809055BB
:101CC000926F000E1FB4010E925D416E1FA444D0AE
:101CD0004150040DF350036A82EC08F0006E0900D5
:101CE000F5CF01F00900F5CF02F00900F5CF03F0C0
:101CF00003C094F002C093F001C092F0916F03C052
:101D000098F002C097F001C096F0956F9C699B69AE
:101D10009A69996931EC09F003C094F002C093F01C
:101D200001C092F000C091F05BEC09F003C0B2F08A
:101D300002C0B1F001C0B0F000C0AFF08DC0B6F08D
:101D40008CC0B5F08BC0B4F08AC0B3F0F6EC08F0EC
:101D5000000ED8B0010E2ED04150040DF350036A8E
:101D600082EC08F0006E0900F5CF01F00900F5CF14
:101D700002F00900F5CF03F003C094F002C093F025
:101D800001C092F0916F86EC09F08DC0B2F08CC06A
:101D9000B1F08BC0B0F08AC0AFF003C0B6F002C0A3
:101DA000B5F001C0B4F000C0B3F0F6EC08F0000EDE
:101DB000D8B0010E1F96E8B01F8690537DE0905179
:101DC000040DF350036A82EC08F0006E0900F5CFB1
:101DD00001F00900F5CF02F00900F5CF03F003C0D0
:101DE00094F002C093F001C092F0916F86EC09F07C
:101DF0008DC0B2F08CC0B1F08BC0B0F08AC0AFF033
:101E000003C0B6F002C0B5F001C0B4F000C0B3F03A
:101E1000A0EC09F000C091F001C092F002C093F074
:101E200003C094F000C000F001C001F002C002F055
:101E300003C003F0019E03C0B2F002C0B1F001C0C4
:101E4000B0F000C0AFF019EC0AF002C04CF001C0D5
:101E50004BF09051040DF350036A82EC08F0006ED1
:101E60000900F5CF01F00900F5CF02F00900F5CF28
:101E700003F003C094F002C093F001C092F0916FA0
:101E8000D882EA6A950EE96E9C6B9B6B4CC09AF007
:101E90004BC099F003C0A0F002C09FF001C09EF0BB
:101EA00000C09DF035EC0AF096C04CF095C04BF0A8
:101EB0004CC04EF04BC04DF01FA63ED1406A90532F
:101EC00026E09051405C23E2036A40503C0FE96EEB
:101ED000000E0320EA6E4CC094F04BC093F0966B5A
:101EE0000A0E956F7CEC0AF003C094F0005000C01D
:101EF000EFFF4CC094F04BC093F0966B0A0E956FB9
:101F00007CEC0AF002C04CF001C04BF043D0036AF5
:101F100040503C0F016E000E032201C091F003C03F
:101F200092F0EACF94F0E9CF93F0D882EA6A950E66
:101F3000E96E46C09CF045C09BF044C09AF043C097
:101F400099F0A06B9F6B9E6B0A0E9D6F9DEC0AF043
:101F500094C0EAFF93C0E9FF92C0EAFF91C0E9FF95
:101F600095C0EFFFD89246C09CF045C09BF044C09E
:101F70009AF043C099F0A06B9F6B9E6B0A0E9D6F09
:101F80009DEC0AF003C046F002C045F001C044F0E9
:101F900000C043F0402A46BE09D0465290E1455267
:101FA0008EE144528CE14350000889E34B5287E1B3
:101FB0004C5285E18AC000F08BC001F08CC002F069
:101FC0008DC003F0019E8DC094F08CC093F001C0D1
:101FD00092F08AC091F0D7EC08F003C046F002C03E
:101FE00045F001C044F000C043F01FA464D0435248
:101FF00062E1445260E145525EE146525CE190513B
:10200000010859E2B46B90C0B3F0AFEC08F003C024
:10201000B2F002C0B1F001C0B0F000C0AFF0B66BDA
:10202000B56BB46B7E0EB36FA0EC09F000C091F0FD
:1020300001C092F002C093F003C094F003C09EF080
:1020400002C09DF001C09CF000C09BF0AEDD00C05E
:1020500091F001C092F002C093F003C094F0B46B11
:1020600090C0B3F0AFEC08F0EACF96F0E9CF95F06E
:10207000D88203C0B6F002C0B5F001C0B4F000C011
:10208000B3F094C0BAF093C0B9F092C0B8F091C068
:10209000B7F00FEC0BF096C0EAFF95C0E9FF03C064
:1020A000B2F002C0B1F001C0B0F000C0AFF019EC66
:1020B0000AF0015040D046BE0ED0465207E14552CC
:1020C00005E1445203E14350000805E2006A016A59
:1020D000026A036A25D0B46B90C0B3F0AFEC08F08D
:1020E00003C0B2F002C0B1F001C0B0F000C0AFF068
:1020F000B66BB56BB46B7E0EB36FA0EC09F000C08D
:1021000097F001C098F002C099F003C09AF003C0A4
:102110009EF002C09DF001C09CF000C09BF045DD28
:1021200003C0B2F002C0B1F001C0B0F000C0AFF027
:1021300019EC0AF001504026486A476A48522EE1DD
:10214000475003082BE3000E1FA0010E916F956A04
:102150008C6ED8904734026E4834036E025065ECA2
:1021600008F00900F5CF03F0916F03C092F0000E64
:102170001FA2010E91C093F0946F0F0E966F890EFF
:10218000956F1FDD91C093F0946B0F0E966F920EBA
:10219000956F17DD472AD8B4482AD0D78FC094F05E
:1021A0008EC093F0966B40C095F07CEC0AF002C0B4
:1021B0008FF001C08EF08E5305E18F5303E18F6BDA
:1021C000010E8E6F4A6A496A4A508F5DD8A020D1AD
:1021D00004E18E51495CD8B01BD11FA6B8D08DC088
:1021E000B2F08CC0B1F08BC0B0F08AC0AFF0B66B6B
:1021F000B56BB46BB36BF6EC08F008E31FA402D028
:10220000010E01D0000E4024426E02D0040E426E38
:10221000486A476A4852D8A499D04250475CD8B01F
:1022200095D04050475C0AE1485208E11FA406D00F
:10223000466A456A446A400E436E25D03C0E4724E8
:10224000E96E000E4820EA6E036AEF5073EC08F066
:10225000916F9051475C0AE1485208E1905306E0C3
:10226000800E006E016A026A036A04D0006A016A85
:10227000026A036A00509111436E01C044F002C02B
:1022800045F003C046F01FA009D043C000F044C091
:1022900001F045C002F046C003F00CD043C000F08E
:1022A000001E44C001F0011E45C002F0021E46C0DF
:1022B00003F0031E956A00C08CFFD8904734026E6D
:1022C0004834036E025065EC08F00900F5CF03F0C6
:1022D000916F03C092F0000E1FB2010E91C093F0F7
:1022E000946F0F0E966F890E956F6BDC91C093F013
:1022F000946B0F0E966F920E956F63DC010E916FCB
:102300007FDCD8904734026E4834036E025065EC8F
:1023100008F00900F5CF03F0916F03C092F0000EB2
:102320001FA2010E91C093F0946F0F0E966F890E4D
:10233000956F47DC91C093F0946B0F0E966F920EE1
:10234000956F3FDC472AD8B4482A64D75DD08F6B9D
:10235000010E8E6F486A476A485256E1475003089B
:1023600053E31FA003D0036A400E01D0BF0E956A4D
:102370008C6ED8904734026E4834036E025065EC80
:1023800008F00900F5CF03F0916F03C092F0000E42
:102390001FB2010E91C093F0946F0F0E966F890ECD
:1023A000956F0FDC91C093F0946B0F0E966F920EA9
:1023B000956F07DC010E916F23DCD8904734026ED5
:1023C0004834036E025065EC08F00900F5CF03F0C5
:1023D000916F03C092F0000E1FA2010E91C093F006
:1023E000946F0F0E966F890E956FE1EC0DF091C012
:1023F00093F0946B0F0E966F920E956FE1EC0DF0CB
:10240000472AD8B4482AA8D7492AD8B44A2ADCD6B9
:10241000F286FF0E7A12120081BE0BD0382AD8B491
:10242000392A38500A0804E1395202E1396A386A17
:1024300026D081BC0BD0362AD8B4372A36500A08A9
:1024400004E1375202E1376A366A19D081BA0BD0FB
:10245000342AD8B4352A34500A0804E1355202E14E
:10246000356A346A0CD081B80AD0322AD8B4332AFB
:1024700032500A0804E1335202E1336A326A33C04F
:102480008BF032C08AF0030E8D6FE80E8C6FA0ECDB
:1024900008F002C089F001C088F035C08BF034C06C
:1024A0008AF08D6B640E8C6FA0EC08F002C003F014
:1024B000015088270250892337C08BF036C08AF03C
:1024C0008D6B0A0E8C6FA0EC08F00150882702502B
:1024D000892338508825016E39508921036E01C047
:1024E000B3F0B46FAFEC08F003C029F002C028F0DD
:1024F00001C027F000C026F029C08DF028C08CF064
:1025000027C08BF026C08AF08F6B280E8E6F3AC0E2
:1025100090F014EC0EF0F2903AEF08F08A51D8B433
:10252000A5D0966F8E51D8B4A1D0965F05E37F0EEB
:102530009627D8B09BD006D0810E965FD8A096D0B3
:10254000D8B494D096C000F0016A026A036A956B11
:102550008BC094F0948F8CC093F08DC092F0190EC4
:10256000966F9151925F0DE2010E935F0AE2945FC4
:1025700008E2955F06E2952B942B932B91519227BD
:1025800028D09051935F12E2010E945F0FE2955FA5
:102590000DE2952B942B905193279151922719E39B
:1025A000932B17E1942B15E1952B13D08F518009B4
:1025B000945F0EE2010E955F0BE2952B8F5180091F
:1025C000942790519327E9E3942BE7E1952BE5D7E6
:1025D0000380962F01D00BD0D89092379337943741
:1025E0009537D8900336023601369737BAD797A178
:1025F00006D0D890013202320332973302D000065F
:1026000035E097BF1ED0D8909237933794379537DF
:102610009151925F07E2010E935F04E2945F02E240
:10262000955F1AE39051935F05E2010E945F02E219
:10263000955F12E38F518009945F03E2010E955F6D
:102640000BE3032A09E1022A07E1012A05E1002A36
:102650000DE00132023203328BC096F08F51961B8F
:1026600096AF02D0018E06D0019E04D0006A016AA6
:10267000026A036AC8EF13F0938081B074D13B2AD9
:10268000010E3B5CF90FD8B06ED1070FC5EF14F007
:1026900029C02DF028C02CF027C02BF026C02AF02E
:1026A000296A286A276A266A29C0B2F028C0B1F0D0
:1026B00027C0B0F026C0AFF019EC0AF002C039F024
:1026C00001C038F039C037F038C036F037C035F0C7
:1026D00036C034F035C033F034C032F044D129C0B4
:1026E00031F028C030F027C02FF026C02EF0296A24
:1026F000400E286E1C0E276E8C0E266E34D1D8929A
:102700002DC0B6F02CC0B5F02BC0B4F02AC0B3F089
:1027100031C0BAF030C0B9F02FC0B8F02EC0B7F059
:102720000FEC0BF003C029F002C028F001C027F025
:1027300000C026F018D1D8822DC0B6F02CC0B5F05C
:102740002BC0B4F02AC0B3F031C0BAF030C0B9F039
:102750002FC0B8F02EC0B7F00FEC0BF003C029F07B
:1027600002C028F001C027F000C026F0FCD02DC028
:102770008DF02CC08CF02BC08BF02AC08AF031C0B9
:1027800091F030C090F02FC08FF02EC08EF0C6D6E2
:1027900003C029F002C028F001C027F000C026F0D5
:1027A00031C0B2F030C0B1F02FC0B0F02EC0AFF0E9
:1027B000B66BB56BB46BB36BF6EC08F007E1296A46
:1027C000400E286E1C0E276E8C0E266E29C09EF0C1
:1027D00028C09DF027C09CF026C09BF0D5EC0DF0E2
:1027E00003C0B2F002C0B1F001C0B0F000C0AFF061
:1027F00019EC0AF002C089F001C088F089C0B4F079
:1028000088C0B3F0AFEC08F0D88229C0B6F028C079
:10281000B5F027C0B4F026C0B3F003C0BAF002C0D0
:10282000B9F001C0B8F000C0B7F00FEC0BF000C079
:102830008AF001C08BF002C08CF003C08DF000C0A4
:1028400000F001C001F002C002F003C003F0019EDD
:1028500000C08AF001C08BF002C08CF003C08DF084
:1028600029C0B2F028C0B1F027C0B0F026C0AFF048
:10287000BD0EB66F370EB56F060EB46F6B0EB36F2D
:10288000A0EC09F003C0B2F002C0B1F001C0B0F09A
:1028900000C0AFF08DC0B6F08CC0B5F08BC0B4F006
:1028A0008AC0B3F0F6EC08F001E217E1010E3A6ECF
:1028B00029C0B2F028C0B1F027C0B0F026C0AFF0F8
:1028C000CD0EB66FCC0EB56F4C0EB46F7B0EB36FE2
:1028D000F6EC08F002E3030E3A6E45D03A6A2DC0DA
:1028E000B2F02CC0B1F02BC0B0F02AC0AFF031C0B4
:1028F000B6F030C0B5F02FC0B4F02EC0B3F0A0ECED
:1029000009F003C029F002C028F001C027F000C080
:1029100026F029D03B6AB46B3BC0B3F0AFEC08F0B3
:1029200003C029F002C028F001C027F000C026F043
:1029300029C0B2F028C0B1F027C0B0F026C0AFF077
:1029400019EC0AF002C039F001C038F039C037F094
:1029500038C036F037C035F036C034F035C033F00B
:1029600034C032F000D029C08DF028C08CF027C0D0
:102970008BF026C08AF08F6B280E8E6F3AC090F0D5
:1029800014EC0EF0F2923AEF08F0E824F76AF7360A
:10299000AB0FF66E290EF722000EF86EFB6E0A00E2
:1029A000F550FA6E0800F550F96E9026DE26FE26E8
:1029B00036276E27DC281429F86AD09E078E0E0170
:1029C000550EA76EAA0EA76EBF91140EF76F060ED6
:1029D000D36F550EA76EAA0EA76EBF81AE0E006E06
:1029E0000F0E016E020EE96E000EEA6EEE6A002E08
:1029F000FDD7012EFBD7EA6AE96A1C6A7E86E10EE2
:102A0000B06E040E7F6EA60EAD6E900EAC6E1E6A9A
:102A10001D6A1F901F923A6A416A486A476A4A6A69
:102A2000496A4E6A4D6A1F941F960101886BFF0E1A
:102A30000F01486FC29CC29E4951E00B1F09496FAC
:102A4000256BD16AD26A206A216A9B8C000E956E32
:102A5000C00EF212F286FF0E7A12F19CF2881B6A07
:102A6000F2BE1B8EF29E29C08DF028C08CF027C0CC
:102A70008BF026C08AF000018F6B040E8E6F3AC077
:102A800090F014EC0EF01BBEF28E0F01E8D703009D
:020000040001F9
:08FFF8009AF73DFF61F880F962
:00000001FF
;PIC18F47J53
;CRC=4696  CREATED="23-Oct.-16 23:23"
