:04100000A5EF0AF05E
:081008000C2021214249454E54
:1010100056454E49444F212120200A20202000001F
:101020000C5041524120415349474E4152200A2021
:101030004F5052494D4120272A2700000C4C45446F
:1010400020526F6A6F0A496E677265736520256367
:1010500050574D3A00000C50574D20417369676E50
:1010600061646F202D2D3E0A254C75000C4C4544C3
:1010700020526F6A6F0A496E677265736520256337
:1010800050574D3A00000C4C454420416D61726947
:101090006C6C6F0A496E67726573652025635057E3
:1010A0004D3A00000C4C45442056657264650A496F
:1010B0006E677265736520256350574D3A00EA6A82
:1010C000270EE96EEF500EE00F0E016E006A002E43
:1010D000FED7012EFBD78F0E006E002EFED700002C
:1010E000EF2EF2D7120093968A9693928A92255207
:1010F00002E18A9001D08A80939026A803D0959827
:101100008C8802D095988C9826AA03D0959A8C8AC0
:1011100002D0959A8C9A26AC03D0959C8C8C02D0E8
:10112000959C8C9C26AE03D0959E8C8E02D0959E6D
:101130008C9E270E006E002EFED700D093968A86D6
:10114000010E276EBCDF93968A96010E276EB7DFDD
:1011500026A003D095988C8802D095988C9826A2CA
:1011600003D0959A8C8A02D0959A8C9A26A403D0A3
:10117000959C8C8C02D0959C8C9C26A603D0959E29
:101180008C8E02D0959E8C9E270E006E002EFED770
:1011900000D093968A86010E276E91DF93968A96E9
:1011A000010E276E8CDF1200010E235CFC0F13E290
:1011B000040FF0EF08F07F0E2224246E0CD0BF0E37
:1011C0002224246E08D08F0E2224246E04D0CF0E49
:1011D0002224246E00D0256A24C026F084DF120069
:1011E000E824F76AF736010FF66E120EF722000EAA
:1011F000F86EFB6E0A00F550FA6E0800F550F96EB5
:10120000B611BE11C611CE11320E276E58DF256AF7
:10121000330E266E68DF256A320E266E64DF256A7D
:10122000280E266E60DF256A0C0E266E5CDF256AAE
:10123000010E266E58DF010E226E236EB5DFE2EF3F
:101240000AF021500C0A03E0060A0AE00ED0256AD3
:10125000010E266E48DF010E226E236EA5DF0BD035
:10126000226A020E236EA0DF06D0010E256E21C079
:1012700026F039DF00D012000900F55210E0F6CF59
:1012800018F0F7CF19F0F8CF1AF0F5CF21F0D9DF29
:1012900018C0F6FF19C0F7FF1AC0F8FFEDD712000B
:1012A0000900F6CF19F0F7CF1AF0F8CF1BF0F5CF01
:1012B00021F0C7DF19C0F6FF1AC0F7FF1BC0F8FF07
:1012C000182EEED712000F0E196E1E0E276EF7DEC7
:1012D000929A899A926880500F0B196E19500F08D4
:1012E0001DE0929A898AC80E276EE9DE1950070818
:1012F00003E1410E016E8ED019500B0803E1330E4D
:10130000016E88D019500D0803E1320E016E82D0B3
:1013100019500E0803E1310E016E7CD0929A898A31
:1013200096908D90926880500F0B196E19500F088F
:101330001DE096908D80C80E276EC1DE19500708FB
:1013400003E1420E016E66D019500B0803E1360E20
:10135000016E60D019500D0803E1350E016E5AD0B0
:1013600019500E0803E1340E016E54D096908D8012
:1013700096928D92926880500F0B196E19500F083B
:101380001DE096928D82C80E276E99DE19500708CF
:1013900003E1430E016E3ED019500B0803E1390EF4
:1013A000016E38D019500D0803E1380E016E32D0AD
:1013B00019500E0803E1370E016E2CD096928D82E3
:1013C00096948D94926880500F0B196E19500F08E7
:1013D0001DE096948D84C80E276E71DE19500708A3
:1013E00003E1440E016E16D019500B0803E1230EE1
:1013F000016E10D019500D0803E1300E016E0AD0B5
:1014000019500E0803E1780E016E04D096948D8475
:10141000800E016E12EF0AF0800E186E18508008D0
:1014200004E151D701C018F0F9D718C001F04AEF14
:101430000BF018501A02F3CF01F0F4CF00F01B02AA
:10144000F350002619501A02F3500020026EA3EF49
:101450000BF0016A026A006A036A1D5002E11C5027
:1014600018E0100E1E6ED8901A361B360036033662
:101470001D50035C02E11C50005C07E31C50005E41
:10148000D8A003061D50035ED880013602361E2EFA
:10149000EAD7AFEF0BF0EACF20F0E9CF1FF0193811
:1014A000F0091B6E1B26E20F1C6E320F1E6E1950C8
:1014B0000F0B1C261C261E26E90F1D6E1D261D2641
:1014C00018380F0B1D261E261D361E361E1E1E36F4
:1014D00018500F0B1E261B36070E1A6E0A0E1D061D
:1014E0001E26FDE31C061D26FDE31B061C26FDE350
:1014F0001A061B26FDE3EA6A1A0EE96E070E1F1490
:101500001F9CE9261E0EE95CD8B41F8CEF50006EBC
:1015100008E11FBC06D01FB813D01FB602D0200EA2
:1015200003D01F861F98300E0026EACF19F0E9CFAE
:1015300018F000C021F085DE19C0EAFF18C0E9FFED
:10154000EE501FACDFD7C3EF0BF0F86AD09E0E0150
:10155000550EA76EAA0EA76EBF91140EF76F0E0E52
:10156000C36F120EC46F160EC56F060ED36F550EE5
:10157000A76EAA0EA76EBF81AE0E006E0F0E016E93
:10158000020EE96E000EEA6EEE6A002EFDD7012E05
:10159000FBD7EA6AE96A066A056A086A076A01010E
:1015A000886BFF0E0F01486FC29CC29E4951E00B31
:1015B0001F09496F256BD16AD26A0D6A0E6A9B8C2E
:1015C000000122D6000E0609CA6E950ECB6EC2909F
:1015D00093988A980C0E0F01126FFC0E5117000E93
:1015E0005113939A8A9A0C0E0F6F5195939C8A9C73
:1015F0000C6F5199106B0D6B136B066A056A0652DE
:1016000017E10550030814E3080EF66E100EF76E8E
:10161000000EF86E000130DE020E186EC80E276E46
:101620004EDD182EFBD7052AD8B4062A0F01E7D7BE
:10163000066A056A065217E10550030814E3200EF6
:10164000F66E100EF76E000EF86E000115DE020E3B
:10165000186EC80E276E33DD182EFBD7052AD8B4B6
:10166000062A0F01E7D73C0EF66E100EF76E000E3D
:10167000F86E120E186E000113DE250E216EE1DDEC
:10168000500EF66E100EF76E000EF86E040E186E09
:1016900007DEC2D60A6A01C009F00A5203E1095006
:1016A0002F081DE20A521BE10950390818E309C04E
:1016B00021F0C7DD300E095E000E0A5A145005E015
:1016C000010A06E0030A07E009D009C016F006D0B7
:1016D00009C015F003D009C017F000D0142A095032
:1016E0007808D8A4F2D00A52D8A4EFD01450020837
:1016F0000CE21650640DF3CF18F015500A0DF3509C
:10170000182417240B6E0C6A0FD01450020807E13E
:1017100016500A0DF35015240B6E0C6A05D0142CCC
:1017200003D00C6A16C00BF00C5203E10B50640896
:1017300003E20C6A640E0B6E196A18680CC01BF089
:101740000BC01AF076D602C019F001C018F002C022
:101750001BF001C01AF01D6A640E1C6E7AD602C01E
:101760000CF001C00BF0560EF66E100EF76E000E68
:10177000F86E120E186E94DD100EE96E0CC019F0A2
:101780000BC018F088D6040E186EFA0E276E97DC80
:10179000182EFBD7135005E0010A19E0030A2DE0CB
:1017A00042D00CC002F00BC001F002320132023212
:1017B0000132023201C013FF02320230300B006EE0
:1017C0000F011251CF0B0010126F00012CD00CC072
:1017D00002F00BC001F00232013202320132023259
:1017E00001C010FF02320230300B006E0F010F51AA
:1017F000CF0B00100F6F000116D00CC002F00BC011
:1018000001F00232013202320132023201C00DFF18
:1018100002320230300B006E0F010C51CF0B001062
:101820000C6F000100D0132A13500308D8B4136AB8
:10183000135005E0010A19E0030A2DE042D06C0EB6
:10184000F66E100EF76E000EF86E120E186E28DD92
:10185000250E216EF6DC800EF66E100EF76E000E71
:10186000F86E040E186E1CDD2CD0860EF66E100E6F
:10187000F76E000EF86E160E186E12DD250E216E34
:10188000E0DC9E0EF66E100EF76E000EF86E040E83
:10189000186E06DD16D0A40EF66E100EF76E000E52
:1018A000F86E130E186EFCDC250E216ECADCB90E24
:1018B000F66E100EF76E000EF86E040E186EF0DC69
:0E18C00000D00C6A0B6A0BC014F0E3D60300D4
:020000040001F9
:08FFF8009AF73DFF61F880F962
:00000001FF
;PIC18F47J53
;CRC=996F  CREATED="29-Ago.-16 20:28"
