:04100000AFEF1CF042
:081008001A0FF66E100EF7221C
:10101000000EF86E0900F550120000000000003EBE
:101020005B4F5B3E3E6B4F6B3E1C3E7C3E1C183C58
:101030007E3C181C577D571C1C5E7F5E1C00183CB4
:101040001800FFE7C3E7FF0018241800FFE7DBE7FD
:10105000FF30483A060E2629792926407F050507E4
:10106000407F05253F5A3CE73C5A7F3E1C1C080840
:101070001C1C3E7F14227F22145F5F005F5F060905
:101080007F017F006689956A606060606094A2FF5E
:10109000A29408047E040810207E201008082A1C50
:1010A00008081C2A08081E101010100C1E0C1E0C1C
:1010B00030383E3830060E3E0E06000000000000BC
:1010C000005F00000007000700147F147F14242A2B
:1010D0007F2A1223130864623649562050000807FD
:1010E0000300001C2241000041221C002A1C7F1C1E
:1010F0002A08083E08080080703000080808080820
:10110000000060600020100804023E5149453E0086
:10111000427F400072494949462141494D331814E4
:10112000127F1027454545393C4A49493141211133
:1011300009073649494936464949291E0000140025
:101140000000403400000008142241141414141448
:10115000004122140802015909063E415D594E7CA6
:101160001211127C7F494949363E414141227F415B
:1011700041413E7F494949417F090909013E4141B9
:1011800051737F0808087F00417F41002040413FA4
:10119000017F081422417F404040407F021C027FB3
:1011A0007F0408107F3E4141413E7F090909063E08
:1011B0004151215E7F0919294626494949320301D7
:1011C0007F01033F4040403F1F2040201F3F4038E9
:1011D000403F631408146303047804036159494DC4
:1011E00043007F4141410204081020004141417FFA
:1011F0000402010204404040404000030708002070
:10120000545478407F28444438384444442838446F
:1012100044287F385454541800087E090218A4A4A6
:101220009C787F0804047800447D40002040403DC5
:10123000007F1028440000417F40007C047804783F
:101240007C080404783844444438FC1824241818D2
:10125000242418FC7C08040408485454542404042E
:101260003F44243C4040207C1C2040201C3C40301B
:10127000403C44281028444C9090907C4464544C4A
:1012800044000836410000007700000041360800A5
:1012900002010204023C2623263C1EA1A161123A4F
:1012A0004040207A3854545559215555794122549B
:1012B000547842215554784020545579400C1E52A0
:1012C0007212395555555939545454593955545445
:1012D000580000457C410002457D420001457C40AC
:1012E0007D1211127DF0282528F07C5455450020F0
:1012F00054547C547C0A097F4932494949323A4462
:1013000044443A324A4848303A4141217A3A4240CC
:101310002078009DA0A07D3D4242423D3D4040409E
:101320003D3C24FF2424487E4943662B2FFC2F2B71
:10133000FF0929F620C0887E090320545479410012
:1013400000447D413048484A32384040227A007A91
:101350000A0A727D0D19317D2629292F282629296F
:10136000292630484D402038080808080808080891
:10137000382F10C8ACBA2F102834FA00007B0000B8
:1013800008142A142222142A14085500550055AABC
:1013900055AA55AAFF55FF55FF000000FF00101089
:1013A00010FF00141414FF001010FF00FF1010F0C5
:1013B00010F0141414FC001414F700FF0000FF00D8
:1013C000FF1414F404FC141417101F10101F101F26
:1013D0001414141F00101010F0000000001F101053
:1013E00010101F10101010F010000000FF1010104F
:1013F000101010101010FF10000000FF140000FF6C
:1014000000FF00001F10170000FC04F41414171054
:10141000171414F404F40000FF00F7141414141447
:101420001414F700F7141414171410101F101F14BD
:101430001414F4141010F010F000001F101F00001E
:10144000001F14000000FC140000F010F01010FF4A
:1014500010FF141414FF141010101F00000000F0EF
:1014600010FFFFFFFFFFF0F0F0F0F0FFFFFF0000C4
:10147000000000FFFF0F0F0F0F0F3844443844FCEB
:101480004A4A4A347E02020606027E027E02635502
:101490004941633844443C04407E201E2006027EBD
:1014A000020299A5E7A5991C2A492A1C4C720172CF
:1014B0004C304A4D4D303048784830BC625A463D39
:1014C0003E494949007E0101017E2A2A2A2A2A44EE
:1014D000445F444440514A444040444A5140000023
:1014E000FF0103E080FF000008086B6B083612362E
:1014F0002436060F090F060000181800000010100F
:10150000003040FF0101001F01011E00191D1712CC
:10151000003C3C3C3C000000000053504644353445
:1015200030380D0A00004C6962726172790D0A0050
:1015300020544654205061696E740D0A20202020EA
:101540002025730D0A0050494331384634374A3557
:1015500033000D2020202020202020202020546F28
:1015600075636820746F2070726F63656564000036
:1015700050494331384634374A35330054465420B5
:101580003332307832343000414243444546474894
:101590002E2E2E00313233343536373839300000B4
:1015A000506C6561736520746F756368207468653D
:1015B00020646F740000506C6561736520746F75F2
:1015C000636820746865206F7468657220646F7446
:1015D0000D0A583A254C7520593A254C75200000C3
:1015E0000D0A583A254C7520593A254C75200000B3
:1015F0002A2A2A526573756C7473206F66206361A2
:101600006C6962726174696F6E2A2A2A0D0A000081
:1016100041667465722063616C6962726174696F9E
:101620006E3A0D0A000054535F4D494E583D254C0B
:10163000750D0A20000054535F4D494E593D254C0D
:10164000750D0A0054535F4D4158583D254C750D9A
:101650000A0054535F4D4158593D254C750D0A20E1
:1016600000003E50070B006E3E30016E0132013229
:101670001F0E011601504024E96E000E4120EA6E53
:10168000016A012A002A01D00136002EFDD73F52FF
:1016900003E00150EF1203D0011E0150EF161200BB
:1016A000EA6A3E0EE96EEF500EE00F0E016E006A20
:1016B000002EFED7012EFBD78F0E006E002EFED718
:1016C0000000EF2EF2D7120096948D84929A898AA8
:1016D000929689860CC03EF03F6A0F0E416E890ECD
:1016E000406EBFDF0CC03EF03F6A0F0E416E920E9F
:1016F000406EB7DF020E3E6ED3DF0CC03EF0010E2F
:101700003F6E0F0E416E890E406EABDF0CC03EF097
:101710003F6A0F0E416E920E406EA3DF96948D9439
:1017200096908D90956A8C6A929A899A929A898AF3
:101730003D6A3D50020806E3929A899A929A898AF4
:101740003D2AF7D796948D8472EF0CF096948D9481
:1017500096908D90956A74C08CFF929A899A929A0D
:10176000898A96908D80270E006E002EFED700D0BD
:1017700078C07AF07B6B7C6B7D6B956A78C08CFF50
:10178000929A899A929A898A270E006E002EFED725
:1017900000D077C07AF078C07BF07C6B7D6B956A67
:1017A00077C08CFF929A899A929A898A270E006E46
:1017B000002EFED700D076C07AF077C07BF078C0DC
:1017C0007CF07D6B956A76C08CFF929A899A929A8A
:1017D000898A270E006E002EFED700D0956A75C04C
:1017E0008CFF929A899A929A898A96948D84120093
:1017F00096948D940B50020803E00B5003086EE1A1
:10180000026A036A03C073F002C072F069C071F02B
:1018100068C070F071C073F070C072F0706B716B63
:101820006CC000F06DC001F0026A036A6DAF02D0B7
:101830000206030600507011006E01507111016E16
:1018400002507211026E03507311736F02C072F076
:1018500001C071F000C070F02A0E746F73C078F090
:1018600072C077F071C076F070C075F06FDF026AF9
:10187000036A03C073F002C072F06BC071F06AC0FB
:1018800070F071C073F070C072F0706B716B6EC0ED
:1018900000F06FC001F0026A036A6FAF02D0020667
:1018A000030600507011006E01507111016E02505C
:1018B0007211026E03507311736F02C072F001C097
:1018C00071F000C070F02B0E746F73C078F072C0AE
:1018D00077F071C076F070C075F038DF96948D8423
:1018E0001200F2D637504108D8A421D138509308BD
:1018F000D8A41DD1020E0B6E96948D9496908D9067
:10190000956A010E8C6E929A899A929A898A96901B
:101910008D80956A8C6A929A899A929A898A969011
:101920008D90956A280E8C6E929A899A929A898ADD
:1019300096908D80956A8C6A929A899A929A898AF1
:1019400096908D90956AC00E8C6E929A899A929A12
:10195000898A96908D80956A230E8C6E929A899AC8
:10196000929A898A96908D90956AC10E8C6E929A01
:10197000899A929A898A96908D80956A100E8C6EBB
:10198000929A899A929A898A396AC50E3A6E969085
:101990008D90956A39C08CFF929A899A929A898A19
:1019A000956A3AC08CFF929A899A929A898A2B0EEC
:1019B000396E3A6E96908D80956A39C08CFF929AF6
:1019C000899A929A898A956A3AC08CFF929A899AE2
:1019D000929A898A96908D90956AC70E8C6E929A8B
:1019E000899A929A898A96908D80956AC00E8C6E9B
:1019F000929A899A929A898A96908D90956A360ED3
:101A00008C6E929A899A929A898A96908D80956A1C
:101A1000880E8C6E929A899A929A898A96908D9065
:101A2000956A3A0E8C6E929A899A929A898A9690C1
:101A30008D80956A550E8C6E929A899A929A898AAF
:101A40003B6AB10E3C6E96908D90956A3BC08CFFC0
:101A5000929A899A929A898A956A3CC08CFF929A46
:101A6000899A929A898A3B6A1B0E3C6E96908D8069
:101A7000956A3BC08CFF929A899A929A898A956A54
:101A80003CC08CFF929A899A929A898A96908D90FE
:101A9000956AB70E8C6E929A899A929A898A9690D4
:101AA0008D80956A070E8C6E929A899A929A898A8D
:101AB00096908D90956A110E8C6E929A899A929A50
:101AC000898A96908D80956A8C6A929A899A929A60
:101AD000898A96908D90956A290E8C6E929A899A31
:101AE000929A898A96908D80956A8C6A929A899A40
:101AF000929A898A96908D90956A210E8C6E929A10
:101B0000899A929A898A96908D80956A8C6A929A1F
:101B1000899A929A898A696B686B6B6B6A6B6D6B39
:101B2000EF0E6C6F010E6F6F3F0E6E6F61DE4AEF4E
:101B300010F03750030B1B6E1B50FC0F12E2040F0A
:101B4000F6EF0DF00F6AF00E0E6E010E116E400EE4
:101B5000106E07D0010E0F6E400E0E6E116AF00E61
:101B6000106E96948D940B5002083FE11B50FC0FB1
:101B700012E2040F0AEF0EF0396A480E386E0BD0ED
:101B8000396A280E386E07D0396A880E386E03D04D
:101B9000396AE80E386E96908D90956A360E8C6E86
:101BA000929A899A929A898A96908D80956A38C07D
:101BB0008CFF929A899A929A898A010E0E5C3A6EEB
:101BC000000E0F583B6E010E105C3C6E000E11585B
:101BD0003D6E696B686B6B6B6A6B3BC06DF03AC0B6
:101BE0006CF06F6F3CC06EF003DE1200E824F76A01
:101BF000F7360D0FF66E1C0EF722000EF86EFB6E18
:101C00000A00F550FA6E0800F550F96E441B541B9B
:101C1000441B541BE824F76AF736350FF66E1C0E8A
:101C2000F722000EF86EFB6E0A00F550FA6E0800FF
:101C3000F550F96E881B901B781B801B6B6B6C6BCF
:101C4000010E6D6FDA6AD96A706B630E6F6FEA6AA4
:101C5000670EE96E70C0E2FF6FC0E1FF6DC06EF00D
:101C6000D890E550EE02F3506B23F4506C236E2FA6
:101C7000F7D76BC0DEFF6CC06BF06C6BD8B06C2B11
:101C80006F2BD8B4702B6D2B6D510508E0E112005D
:101C900065C06DF064C06EF096948D9496908D90B2
:101CA0000B50020808E1956A2C0E8C6E929A899A64
:101CB000929A898A07D0956A220E8C6E929A899A96
:101CC000929A898A96908D80956A6DC08CFF929ABF
:101CD000899A929A898A956A6EC08CFF929A899A9B
:101CE000929A898AFF0E6627D8A06727D8A068270E
:101CF000D8A069276931036E6831026E6731016EC1
:101D00006631006E03320232013200320332023297
:101D10000132003203320232013200320332023227
:101D2000013200320332023201320032030E031656
:101D300001C06BF000C06AF06E516D5D3EE16BC09A
:101D400003F06A51D8B46B076A07031025E0100E40
:101D50006C6F929A899A929A898A929A899A929A9F
:101D6000898A929A899A929A898A929A899A929A57
:101D7000898A929A899A929A898A929A899A929A47
:101D8000898A929A899A929A898A929A899A929A37
:101D9000898A6C2FDED7D3D766513F0B6C6F6C519D
:101DA0006C07000A09E0929A899A929A898A929A13
:101DB000899A929A898AF3D75BD06BC003F06A51F3
:101DC000D8B46B076A0703103DE0100E6C6F956A7C
:101DD0006DC08CFF929A899A929A898A956A6EC090
:101DE0008CFF929A899A929A898A956A6DC08CFF23
:101DF000929A899A929A898A956A6EC08CFF929A71
:101E0000899A929A898A956A6DC08CFF929A899A6A
:101E1000929A898A956A6EC08CFF929A899A929A50
:101E2000898A956A6DC08CFF929A899A929A898A5A
:101E3000956A6EC08CFF929A899A929A898A6C2FC1
:101E4000C6D7BBD766513F0B6C6F6C516C07000A4D
:101E50000FE0956A6DC08CFF929A899A929A898A4E
:101E6000956A6EC08CFF929A899A929A898AEDD768
:101E700096948D841200545050245C6E555051201D
:101E80005D6E010E5C5C5A6E000E5D585B6E5250CA
:101E90004E245C6E53504F205D6E010E5C5C586E9C
:101EA000000E5D58596E53BE2CD0535203E1525070
:101EB000000827E255BE25D0555203E154500008D2
:101EC00020E20FAE03D04FAE1CD002D04FBE07D0E1
:101ED0000F504F5C04E315E10E504E5C12E211AE60
:101EE00003D051AE0ED002D051BE07D01150515C7C
:101EF00004E307E11050505C04E259BE02D05BAE2F
:101F000001D097D04FAE06D04E5052264F5053229C
:101F10004F6A4E6A51AE06D0505054265150552249
:101F2000516A506A0FAE03D059AE0AD002D059BEE2
:101F300019D00F50595C16E303E10E50585C12E3C0
:101F4000010E0E5C586E000E0F58596E4E50585CC4
:101F50005C6E4F5059585D6E010E5C24526E000E3F
:101F60005D20536E11AE03D05BAE0AD002D05BBED3
:101F700019D011505B5C16E303E110505A5C12E378
:101F8000010E105C5A6E000E11585B6E50505A5C78
:101F90005C6E51505B585D6E010E5C24546E000EF9
:101FA0005D20556E4FC069F04EC068F051C06BF0B7
:101FB00050C06AF059C06DF058C06CF05BC06FF053
:101FC0005AC06EF015DC026A036A03C05FF002C0FB
:101FD0005EF053C05DF052C05CF054C000F055C0DC
:101FE00001F0026A036A5FC066F05EC065F053C02C
:101FF00064F052C063F003C06AF002C069F055C0DB
:1020000068F054C067F01ADE03C05FF002C05EF0F3
:1020100001C05DF000C05CF057C065F056C064F0D0
:1020200003C069F002C068F001C067F000C066F04C
:102030002FDE12007C0E0D6E210E0C6E0CC03EF0D9
:10204000010E3F6E0F0E416E890E406E31EC0BF0AB
:102050000CC03EF03F6A0F0E416E920E406E31ECA6
:102060000BF0000E956E1B6A136A126A13C015F00E
:1020700012C014F0010E1A6E176816680F6AF00E7F
:102080000E6E010E116E400E106E930E386E410EE4
:10209000376E27D4376A4DDD4F6A4E6A516A506AEF
:1020A0000FC053F00EC052F011C055F010C054F0E4
:1020B000576A566AE0DEF7EF1CF0C150C00B040906
:1020C000C16EC18EC280C18CC282C2B2FED7C19C19
:1020D0003D6A0F0EEA6E480EE96E3D50FF0AEF6E44
:1020E0000F0EEA6EC20EE96E3F0EEF163850EF1279
:1020F0000F0EEA6E490EE96EE00EEF1637501F0A1A
:10210000EF123AC024F039C023F0226A216A22C0BB
:1021100020F021C01FF020C01EF01FC01DF0FFEFF7
:102120001CF0010E0E5C006E000E0F58036E00C016
:1021300037F0386E010E105C006E000E115800C0B2
:1021400039F03A6E0A0E3B6E4F6A4E6A516A506A17
:102150000FC053F00EC052F011C055F010C054F033
:10216000F80E576E566A87DED8903B34375C3C6E6B
:10217000000E38583D6ED8903B34395C3E6E000EF0
:102180003A583F6E4F6A3BC04EF0516A3BC050F028
:102190003DC053F03CC052F0556E3EC054F05768FD
:1021A000566869DE04EF1DF03AC013F039C012F032
:1021B0003CC015F03BC014F01200395202E0395017
:1021C00001D0010E1A6E12003AC019F039C018F091
:1021D00019C017F018C016F0120054505602F3CF71
:1021E00001F0F4CF00F05702F3500026555056028C
:1021F000F3500020026E12004FBE1ED051BE1CD004
:102200000FAE03D04FAE18D002D04FBE07D00F5044
:102210004F5C04E311E10E504E5C0EE211AE03D0B0
:1022200051AE0AD002D051BE08D01150515C05E326
:1022300003E11050505CD8B045D096948D940B506B
:10224000020803E00B5003083BE1010E0E5C546EE4
:10225000000E0F58556E010E105C566E000E115890
:10226000576E4FC069F04EC068F051C06BF050C05F
:102270006AF055C06DF054C06CF06F6F56C06EF0D0
:10228000F8EC0BF096948D9496908D90956A2C0EA8
:102290008C6E929A899A929A898A96908D8053C070
:1022A00054F0556A956A53C08CFF929A899A929A13
:1022B000898A956A52C08CFF929A899A929A898AE1
:1022C00096948D8412000FAE03D03EAE34D002D06F
:1022D0003EBE07D00F503E5C04E32DE10E503D5C46
:1022E0002AE211AE03D040AE26D002D040BE07D0C5
:1022F0001150405C04E31FE110503F5C1CE246506B
:10230000060DF3503D244A6E000E3E204B6E010E2A
:102310004A5E000E4B5A4BBE0ED04650080DF3508D
:102320003F244A6E000E40204B6E010E4A5E000EA6
:102330004B5A4BAE01D0BAD01CB204D04150AF08BA
:1023400001E2412A476A47500508D8A0AFD047505C
:10235000050802E1486A1CD0556A41C054F0576A2A
:10236000050E566E3ADF02C04BF001C04AF04750EE
:102370000124016E000E0220036E0150F2CF4AF0DC
:10238000F29E03C0F7FF04EC08F04ABEF28E486EDE
:10239000496A49500708D8A087D048A03ED0462CAB
:1023A00019D047503D244A6E000E3E204B6E4950D6
:1023B0003F244C6E000E40204D6E4BC04FF04AC083
:1023C0004EF0516E4CC050F043C053F042C052F03A
:1023D00013DF22D047504602F3503D244A6E000ED0
:1023E0003E204B6E49504602F3503F244C6E000E87
:1023F00040204D6E4BC04FF04AC04EF0516E4CC065
:1024000050F0536A46C052F0556A46C054F043C07B
:1024100057F042C056F02FDD43D04250445C03E1F8
:102420004350455C3DE0462C19D047503D244A6E50
:10243000000E3E204B6E49503F244C6E000E402053
:102440004D6E4BC04FF04AC04EF0516E4CC050F034
:1024500045C053F044C052F0CFDE22D04750460270
:10246000F3503D244A6E000E3E204B6E495046020A
:10247000F3503F244C6E000E40204D6E4BC04FF089
:102480004AC04EF0516E4CC050F0536A46C052F0F4
:10249000556A46C054F045C057F044C056F0EBDCD6
:1024A000D8904832492A75D7472A4DD7B5EF12F050
:1024B0003C500C0812E14F6A4E6A516A506A0FC0D4
:1024C00053F00EC052F011C055F010C054F019C0B6
:1024D00057F018C056F0CFDC70D03C500A0807E126
:1024E0001A50080DF3501426000E152266D03C50E9
:1024F0000D0803E1136A126A60D03C2C03D0010E70
:102500001A6E5BD03C50020803E1020E1A6E55D0E1
:102510003C50030803E1030E1A6E4FD03C500408F0
:1025200003E1040E1A6E49D03C50050803E1050E84
:102530001A6E43D03C50060803E1060E1A6E3DD0D9
:1025400013C03EF012C03DF015C040F014C03FF083
:102550003CC041F017C043F016C042F019C045F02E
:1025600018C044F01AC046F0AED61A50060DF3500B
:102570001226000E13221CA020D01A50060DF35074
:102580000E5C006E000E0F58036E00C001F0E8AE46
:1025900003D013AE0AD002D013BE0FD00350135C89
:1025A0000CE303E11250015C08E21A50080DF350ED
:1025B0001426000E1522136A126A12000900F55241
:1025C00010E0F6CF39F0F7CF3AF0F8CF3BF0F5CF87
:1025D0003CF06EDF39C0F6FF3AC0F7FF3BC0F8FFB2
:1025E000EDD712000900F6CF38F0F7CF39F0F8CF69
:1025F0003AF0F5CF3CF05CDF38C0F6FF39C0F7FFAA
:102600003AC0F8FF372EEED747EF1DF08E0E006E62
:1026100058C001F057C002F0036A015209E102C03C
:1026200001F0026A080E005E015202E1006A08D061
:10263000D89001BE04D0023601360006F9D7019EBB
:1026400012005750D8B4A5D0636F5B50D8B4A1D056
:10265000635F05E37F0E6327D8B09BD006D0810E61
:10266000635FD8A096D0D8B494D063C000F0016A5C
:10267000026A036A626B58C061F0618F59C060F0F2
:102680005AC05FF0190E636F5E505F5E0DE2010E7F
:10269000605F0AE2615F08E2625F06E2622B612B23
:1026A000602B5E505F2628D05D50605F12E2010E05
:1026B000615F0FE2625F0DE2622B612B5D5060276C
:1026C0005E505F2619E3602B17E1612B15E1622B49
:1026D00013D05C508009615F0EE2010E625F0BE275
:1026E000622B5C50800961275D506027E9E3612B14
:1026F000E7E1622BE5D70380632F01D00BD0D890A0
:102700005F36603761376237D8900336023601365C
:102710006437BAD764A106D0D890013202320332AE
:10272000643302D0000635E064BF1ED0D8905F3617
:102730006037613762375E505F5E07E2010E605FAF
:1027400004E2615F02E2625F1AE35D50605F05E2EE
:10275000010E615F02E2625F12E35C508009615F1B
:1027600003E2010E625F0BE3032A09E1022A07E19B
:10277000012A05E1002A0DE001320232033258C07D
:1027800063F05C50631B63AF02D0018E06D0019EE4
:1027900004D0006A016A026A036A1200800ED8B28D
:1027A0005C1A616B626B58C060F05C50601B5750E4
:1027B000D8B4DCD05F6E006E5B50D8B4E0D05F5E02
:1027C000D8B481D03DE35CC065F0658F5DC064F036
:1027D0005EC063F0626BD8906533643363336233F9
:1027E0005F2EF8D760AF03D06181DDD061915F903B
:1027F0006189EA6A5A0EE96EE9D0619960BF0AD030
:102800005FA013D06533643363336233002AD8B4D6
:10281000C5D00BD065BF0CD0D89062376337643712
:1028200065370006D8B4BAD0F5D7618D6BD0619DFD
:1028300058C060F058AE02D0658FA9D0659FA7D070
:102840005BC05FF05BC000F057505F5E58C065F042
:10285000658F59C064F05AC063F0626BD8906533DD
:102860006433633362335F2EF8D760AF03D0618384
:102870009AD061935F90618BEA6A5E0EE96EA6D092
:10288000619B60BF0AD05FA013D0653364336333AC
:102890006233002AD8B482D00BD065BF0CD0D89058
:1028A00062376337643765370006D8B477D0F5D719
:1028B000618F28D0619F5CC060F05CAE02D0658FF4
:1028C00066D0659F64D05CC065F0658F5DC064F0C4
:1028D0005EC063F060AF04D0659F618564D0619590
:1028E000626B5F90EA6A5A0EE96E70D060BF1CD0CE
:1028F00058C060F05FA006D0653364336333623341
:10290000002A4CE062AF0BD0632B09E1642B07E196
:10291000652B05E1653364336333002A3FE061BD15
:1029200086D761BFC7D71CD0800E651B65AF04D0AA
:102930003AD05CC060F00AD058C060F0655306E140
:10294000645304E1635302E1006A21D065BF08D0FB
:10295000D8906237633764376537002EF7D71ED0BB
:1029600060AF02D0658F13D0659F11D05BC000F0BF
:102970005CC065F05DC064F05EC063F008D057C015
:1029800000F058C065F059C064F05AC063F065C0EB
:1029900001F064C002F063C003F034D0006A016A41
:1029A000026A036A2FD0626B631F641F651F621F78
:1029B000622B05E1632B03E1642B01E1652B61B11F
:1029C00015D761B356D761B58AD7B3D7EF50632710
:1029D00005E3642B03E1652BD8B45F80ED52EF5023
:1029E000642703E3652BD8B45F80ED52EF50EFBE50
:1029F00001D0800A6527D8B05F8061B9FED661BB7F
:102A00003FD774D76EEF16F05750D8B471D0006E20
:102A10005B50D8B46DD0002604E3810E002668E236
:102A200004D07F0E005E64E363E058C05FF05C504A
:102A30005F1A588E5C8E5A505E02F4CF61F0595086
:102A40005D02F4CF03F0F3CF60F05E02F350612734
:102A5000F4506023000E03225A505D02F3506127A8
:102A6000F4506023000E026A0322022258505E02D4
:102A7000F3506027F4500322000E022258505D02EA
:102A8000F3500326F4500222000E016A01225A502C
:102A90005C02F3506027F4500322000E0222012250
:102AA00059505C02F3500326F4500222000E01221A
:102AB00058505C02F3500226F4500122002A01BE55
:102AC00005D060370336023601360006000E60AFCF
:102AD0000AD0032A02220122015005E1025003E13B
:102AE000035001E1002A5FBE018E5FAE019E04D05B
:102AF000006A016A026A036A12008E0E006E575065
:102B0000005E58C002F059C001F0028E005209E088
:102B1000D890025202E1015204E002320132002E4A
:102B2000F7D758AE05D0011E021E012AD8B4022ADA
:102B3000D1EF16F0446A436A466A456A486A476AB2
:102B4000010E4E6E928A958E959C96908C8C959CDB
:102B50008D909690100E016EC250C30B0110C26E84
:102B6000270E006E002EFED700D04D6A4D50010892
:102B700011E3D8904D34036A490FE96E000E03202B
:102B8000EA6EC282C2B2FED7C3CFEFFFC4CFECFF62
:102B90004D2AECD74B50495C03E14C504A5CD8A419
:102BA0004E6A4CC044F04BC043F0958C9680929A8C
:102BB000898A929A959E8C9E959E140E016EC250A3
:102BC000C30B0110C26E4D6A4D50010811E3D8903D
:102BD0004D34036A490FE96E000E0320EA6EC2828B
:102BE000C2B2FED7C3CFEFFFC4CFECFF4D2AECD764
:102BF0004B50495C03E14C504A5CD8A44E6A4CC02F
:102C000046F04BC045F0959C8C9C959C959E8C8E77
:102C1000959E9680928A140E016EC250C30B0110CD
:102C2000C26E270E006E002EFED700D0C282C2B246
:102C3000FED7C3CF4FF0C4CF50F0100E016EC2507C
:102C4000C30B0110C26E270E006E002EFED700D0FF
:102C5000C282C2B2FED7C3CF51F0C4CF52F02352CA
:102C600003E12452D8B4A2D052C058F051C057F05A
:102C7000CDDC03C056F002C055F001C054F000C0D6
:102C800053F050C058F04FC057F0C0DC56C05AF057
:102C900055C059F054C058F053C057F003C05EF00F
:102CA00002C05DF001C05CF000C05BF0CADC03C094
:102CB00056F002C055F001C054F000C053F0D88265
:102CC00056C05AF055C059F054C058F053C057F090
:102CD0005E6A5D6A5C6A7F0E5B6E60D503C056F00B
:102CE00002C055F001C054F000C053F044C058F089
:102CF00043C057F08BDC56C05AF055C059F054C051
:102D000058F053C057F003C05EF002C05DF001C040
:102D10005CF000C05BF078DE03C056F002C055F0F6
:102D200001C054F000C053F024C058F023C057F045
:102D30006DDC56C05AF055C059F054C058F053C01D
:102D400057F003C05EF002C05DF001C05CF000C04F
:102D50005BF05ADE03C056F002C055F001C054F0DB
:102D600000C053F056C05AF055C059F054C058F046
:102D700053C057F05E6A5D6A5C6A8B0E5B6E61DC05
:102D800003C056F002C055F001C054F000C053F02B
:102D900056C05AF055C059F054C058F053C057F0BF
:102DA000ACD602C048F001C047F00CD04F50515C87
:102DB000006E50505258036E0050FF08476E0F0EC1
:102DC0000354486E4E5202E1486A476A1B50FC0F9A
:102DD00032E2040F20EF17F0010E266EC00E256EB2
:102DE000010E286E810E276E0B0E2A6E296A0D0EBB
:102DF0002C6E3F0E2B6E46C01EF045C01DF044C029
:102E000020F043C01FF017D0010E266E810E256EF4
:102E1000010E286EC00E276E0D0E2A6E3F0E296E13
:102E20000B0E2C6E2B6A44C01EF043C01DF046C032
:102E300020F045C01FF048C022F047C021F012002A
:102E4000E824F76AF736610FF66E2E0EF722000EB1
:102E5000F86EFB6E0A00F550FA6E0800F550F96E38
:102E6000D82D082ED82D082ED8B203D0EA6A6B0EC2
:102E7000E96E006A016A026A036A6B6B6C6B6D6BC8
:102E80006E6B6A516911681167112CE0200E6F6F2B
:102E9000D89063376437653766376B376C376D3773
:102EA0006E376A516E5D08E169516D5D05E16851EB
:102EB0006C5D02E167516B5D0FE367516B5F6851B9
:102EC000D8A0683D6C5F6951D8A0693D6D5F6A51BB
:102ED000D8A06A3D6E5FD8800036013602360336D0
:102EE0006F2FD6D76BC0EFFF6CC0ECFF6DC0ECFF4F
:102EF0006EC0ECFFD8EF17F04B50475C5B6E4C5048
:102F000048585C6E4D5049585D6E4E504A585E6E42
:102F10005350575C006E54505858016E55505958D4
:102F2000026E56505A58036E626F02C061F001C0C3
:102F300060F000C05FF05EC066F05DC065F05CC030
:102F400064F05BC063F06A6F02C069F001C068F0B2
:102F500000C067F01EEC0EF003C05EF002C05DF032
:102F600001C05CF000C05BF04B504F5C006E4C50F9
:102F70005058016E4D505158026E4E505258036ECB
:102F8000626F02C061F001C060F000C05FF0D892D3
:102F90005EC066F05DC065F05CC064F05BC063F06D
:102FA0006A6F02C069F001C068F000C067F05CD7CA
:102FB00003C05EF002C05DF001C05CF000C05BF0D9
:102FC00053500024006E54500120016E55500220D1
:102FD000026E56500320036E12004350016E44C02F
:102FE00003F0456E44C046F04A6A496A1EC048F084
:102FF0001DC047F04E6A4D6A26C04CF025C04BF00C
:10300000526A516A2AC050F029C04FF0566A556A78
:10301000546A536A5A6A596A0FC058F00EC057F082
:103020006BDF46C0EAFF45C0E9FF01C0ECFFED528F
:1030300000C0EFFF020E4324016E000E4420036E19
:1030400001C045F0466E4A6A496A20C048F01FC078
:1030500047F04E6A4D6A28C04CF027C04BF0526AC8
:10306000516A2CC050F02BC04FF0566A556A546A12
:10307000536A5A6A596A11C058F010C057F03CDFC1
:1030800046C0EAFF45C0E9FF01C0ECFFED5200C0B9
:10309000EFFF1B5232E143C0E9FF44C0EAFFECCF2F
:1030A00003F0ED52EF500E5C006E03500F5844C019
:1030B000EAFF43C0E9FFEC6EED5200C0EFFF020EE5
:1030C0004324016E000E4420036E466E020E43241C
:1030D000E96E000E4420EA6EECCF03F0ED52EF50A3
:1030E000105C006E0350115846C0EAFF01C0E9FFB2
:1030F000EC6EED5200C0EFFF41D01B2C1FD043C03F
:1031000001F043C045F044C046F043C0E9FF44C06D
:10311000EAFFECCF03F0ED52EF500E5C006E03506F
:103120000F58036E00C047F0486E44C0EAFF43C02A
:10313000E9FFEC6EED5200C0EFFF20D01B500308FA
:103140001DE1020E4324016E000E4420036E466E04
:10315000020E4324E96E000E4420EA6EECCF03F029
:10316000ED52EF50105C006E0350115846C0EAFF5C
:1031700001C0E9FFEC6EED5200C0EFFF040E4324E6
:10318000E96E000E4420EA6E22C0ECFFED5221C031
:10319000EFFF43C0E9FF44C0EAFFECCF46F0ED5239
:1031A000EFCF45F00FBE07D00F50465C0DE303E1B3
:1031B00045500E5C09E243C0E9FF44C0EAFF0FC07E
:1031C000ECFFED520EC0EFFF020E4324E96E000E3D
:1031D0004420EA6EECCF46F0ED52EFCF45F011BE41
:1031E00007D01150465C0FE303E14550105C0BE241
:1031F000020E4324E96E000E4420EA6E11C0ECFF7B
:10320000ED5210C0EFFF120095DCEA6A3D0EE96E48
:1032100002C0E2FF01C0E1FF060E016EE6CFEEFF45
:10322000012EFCD7446A3D0E436ED7DE425203E1C5
:1032300041500908E9E24250020805E2FF0AE4E1D0
:103240004150E808E1E33D0E016E026A71EF1DF0A6
:103250004F6A4E6A516A506A0FC053F00EC052F066
:1032600011C055F010C054F0576A566A3BEC0FF08D
:103270003A683968E4EC10F0030E396EDDEC10F0BA
:103280003A6A396A3C6A140E3B6ED4EC10F0070EB1
:103290003A6EE00E396EE4EC10F03A6A396A3C6A34
:1032A000320E3B6ED4EC10F0700EF66E150EF76E0B
:1032B000000EF86EDEEC12F03A6A1F0E396EE4EC86
:1032C00010F03A6A396A3C6A500E3B6ED4EC10F04A
:1032D0007C0EF66E150EF76E000EF86EDEEC12F038
:1032E0003A68E00E396EE4EC10F03A6A396A3C6AEA
:1032F0006E0E3B6ED4EC10F0880EF66E150EF76E67
:10330000000EF86EDEEC12F0070E3A6E3968E4EC4F
:1033100010F0050E396EDDEC10F03A6A396A3C6A3D
:10332000960E3B6ED4EC10F0940EF66E150EF76E02
:10333000000EF86EDEEC12F086EF1DF096948D9480
:1033400096948D841200475043244D6E485044207B
:103350004E6E010E4D5C4B6E000E4E584C6E475239
:1033600002E1485220E046BE1ED011AE03D046AE68
:103370001AD002D046BE07D01150465C04E313E1D8
:103380001050455C10E20FAE03D044AE0CD002D01A
:1033900044BE07D00F50445C04E305E10E50435C8B
:1033A00002E24CAE01D069D044AE0AD0435047246B
:1033B000016E4450482001C047F0486E446A436A99
:1033C0000FAE03D04CAE0AD002D04CBE1BD00F5073
:1033D0004C5C18E303E10E504B5C14E3010E0E5CF1
:1033E0004B6E000E0F584C6E43504B5C4D6E44506C
:1033F0004C584E6E010E4D24016E000E4E2001C041
:1034000047F0486E44C069F043C068F046C06BF0B6
:1034100045C06AF04CC06DF04BC06CF046C06FF018
:1034200045C06EF0F8EC0BF04AC065F049C064F09E
:10343000696B686B48C067F047C066F048EC0EF0F7
:103440000B521AE1010E0E5C4D6E000E0F584E6EBF
:10345000010E105C4F6E000E1158506E696B686B58
:103460006B6B6A6B4EC06DF04DC06CF06F6F4FC0F0
:103470006EF0F8EC0BF001D061DF12005E5202E159
:103480005F522CE05BBE2AD00FAE03D05BAE26D0DD
:1034900002D05BBE07D00F505B5C04E31FE10E500F
:1034A0005A5C1CE211AE03D05DAE18D002D05DBEF6
:1034B00007D011505D5C04E311E110505C5C0EE23A
:1034C0005E505C24646F5F505D20656F010E645D2B
:1034D000626F000E6559636F63AF01D069D05DAE56
:1034E0000AD05C505E24016E5D505F2001C05EF02A
:1034F0005F6E5D6A5C6A11AE03D063AF0AD002D022
:1035000063BF1BD01150635D18E303E11050625D8F
:1035100014E3010E105C626F000E1158636F5C5073
:10352000625D646F5D506359656F010E6425016EC5
:10353000000E652101C05EF05F6E5BC069F05AC08D
:1035400068F05DC06BF05CC06AF05BC06DF05AC0A3
:103550006CF063C06FF062C06EF0F8EC0BF061C00D
:1035600065F060C064F0696B686B5FC067F05EC057
:1035700066F048EC0EF00B521AE1010E0E5C646F1F
:10358000000E0F58656F010E105C666F000E11582B
:10359000676F696B686B6B6B6A6B65C06DF064C05D
:1035A0006CF06F6F66C06EF0F8EC0BF001D0C6DE09
:1035B000120038C044F037C043F03AC046F039C07A
:1035C00045F03CC048F03BC047F040C04AF03FC027
:1035D00049F0B9DE3D503924416E3E503A20426EEA
:1035E000010E415E000E425A38C044F037C043F02D
:1035F00042C046F041C045F03CC048F03BC047F0F7
:1036000040C04AF03FC049F09EDE38C05BF037C092
:103610005AF03AC05DF039C05CF03EC05FF03DC08A
:103620005EF040C061F03FC060F028DF3B503724BF
:10363000416E3C503820426E010E415E000E425AEF
:1036400042C05BF041C05AF03AC05DF039C05CF056
:103650003EC05FF03DC05EF040C061F03FC060F032
:103660000DDF120038C017F037C016F03AC019F05D
:1036700039C018F062EF1EF059505B18800B5D6E78
:1036800059AE05D0581E591E582AD8B4592A5BAED7
:1036900005D05A1E5B1E5A2AD8B45B2A58505A02CB
:1036A000F3CF01F0F4CF00F05B02F3500026595045
:1036B0005A02F3500020026E5DAE05D0011E021EBC
:1036C000012AD8B4022A1200010ED8804354006E99
:1036D000000E4454036E00C04AF04B6E4D6A010E5A
:1036E0004C6E5568FE0E546E44C057F043C056F001
:1036F000EDEC10F001C04EF002C04FF0516A506A7C
:1037000044C053F043C052F051AE03D053AE0CD07E
:1037100002D053BEEBD05150535CD8A0E7D004E1A7
:103720005250505CD8B0E2D04BBE0CD05250D8B4FE
:1037300053065206020E4E26000E4F224E504A26C7
:103740004F504B22502AD8B4512A020E4C26000E5C
:103750004D224C504A264D504B2245A062D050502D
:103760003F24546E51504020556E5250415C566E6D
:1037700053504258576E596A020E586E53C05BF050
:1037800052C05AF079DF02C059F001C058F0010E62
:103790005826000E5922465058264750592255C0E7
:1037A0005BF054C05AF057C05DF056C05CF059C091
:1037B0005FF058C05EF049C061F048C060F05EDE66
:1037C00052503F24546E53504020556E5050415C2F
:1037D000566E51504258576E596A020E586E51C07B
:1037E0005BF050C05AF048DF02C059F001C058F0F9
:1037F000010E5826000E592246505826475059228D
:1038000055C05BF054C05AF057C05DF056C05CF034
:1038100059C05FF058C05EF049C061F048C060F028
:103820002DDE45A262D050503F5C546E515040583E
:10383000556E5250415C566E53504258576E596AFD
:10384000020E586E53C05BF052C05AF015DF02C032
:1038500059F001C058F0010E5826000E592246506A
:1038600058264750592255C05BF054C05AF057C0F3
:103870005DF056C05CF059C05FF058C05EF049C0C2
:1038800061F048C060F0FADD52503F5C546E535016
:103890004058556E5050415C566E51504258576ECC
:1038A000596A020E586E51C05BF050C05AF0E4DE07
:1038B00002C059F001C058F0010E5826000E5922DE
:1038C000465058264750592255C05BF054C05AF014
:1038D00057C05DF056C05CF059C05FF058C05EF054
:1038E00049C061F048C060F0C9DD0ED7ADEF1CF0F3
:1038F0003B50395C3F6E3C503A58406ED8903B3458
:10390000416E3C34426E010E4126000E422238C008
:103910005BF037C05AF040C05DF03FC05CF042C081
:103920005FF041C05EF03EC061F03DC060F0A6DDDA
:1039300038C040F037C03FF03AC042F039C041F0E3
:103940003CC044F03BC043F0030E456E476A466AF4
:103950003EC049F03DC048F0B7D69CEF1FF0F86A72
:10396000D09EAE0E006E0F0E016E020EE96E000EBE
:10397000EA6EEE6A002EFDD7012EFBD7046A7E8622
:10398000E10EB06E040E7F6EA60EAD6E900EAC6EA4
:103990000F6AF00E0E6E010E116E400E106E136A5D
:1039A000126A156A146A010E266E810E256E010ECA
:1039B000286EC00E276E0D0E2A6E3F0E296E0B0E5E
:1039C0002C6E2B6AFF0E0F01486FC29CC29E49519C
:1039D000E00B1F09496F0101886B0F01256BD16A4C
:1039E000D26A056A066A9B8C00011AEF10F0386AE9
:1039F000376A010E3A6E2C0E396E5DEF10F0376AA1
:103A000099EC0DF091EF10F03A6A370E396E3C6A7E
:103A1000320E3B6ED4EC10F0030E396EDDEC10F07C
:103A2000F80E3A6E396AE4EC10F01A0EF66E150EC6
:103A3000F76E000EF86EDEEC12F03A6A410E396E47
:103A40003C6A550E3B6ED4EC10F0260EF66E150E49
:103A5000F76E000EF86EDEEC12F03A6A370E396E31
:103A60003C6A960E3B6ED4EC10F0020E396EDDEC23
:103A700010F03A6A396AE4EC10F0300EF66E150E6A
:103A8000F76E000EF86E110E376EF2EF12F0460E62
:103A9000F66E150EF76E000EF86EDEEC12F00D0EDF
:103AA0003C6E58EC12F00A0E3C6E58EC12F03A6A7A
:103AB000500E396E3C6AFA0E3B6ED4EC10F0010EDB
:103AC000396EDDEC10F03A6A396AE4EC10F0520E0F
:103AD000F66E150EF76E000EF86EDEEC12F004EFC7
:103AE00019F04F6A4E6A516A506A0FC053F00EC007
:103AF00052F011C055F010C054F0576A566A3BECB2
:103B00000FF0F80E386E376A28EF19F0080E376E8E
:103B1000FA0E3E6E50EC0BF0372EFAD74F6A4E6A13
:103B2000516A506A0FC053F00EC052F011C055F0E8
:103B300010C054F0576A566A3BEC0FF04F6A4E6A59
:103B4000516A506A536A280E526E556A546EF80EC6
:103B5000576E566A3BEC0FF04F6A280E4E6E516A54
:103B6000506A536A526E556A546E5768E00E566E2C
:103B70003BEC0FF04F6A500E4E6E516A506A536A1A
:103B8000280E526E556A546E070E576EE00E566E32
:103B90003BEC0FF04F6A780E4E6E516A506A536AD2
:103BA000280E526E556A546E070E576E56683BECDF
:103BB0000FF04F6AA00E4E6E516A506A536A280E7B
:103BC000526E556A546E576A1F0E566E3BEC0FF0DC
:103BD0004F6AC80E4E6E516A506A536A280E526E72
:103BE000556A546EF80E576E1F0E566E3BEC0FF072
:103BF0004F6AF00E4E6E516A506A536A280E526E2A
:103C0000556A546E576856683BEC0FF0386A376A4D
:103C10003A6A396A3C6A280E3B6E3E6A3D6E4068DD
:103C20003F68C7DCF80E2E6E2D6A9AEC15F0446AD8
:103C3000310E436EEDEC17F0355203E13652D8B435
:103C40007BD136500308D8A077D104E13550E7087E
:103C5000D8A072D1050E275C006E000E2858036EA6
:103C600000C001F03450035C1BE303E10150335CFE
:103C700017E2280E105C376E000E1158386E4F6A2E
:103C80004E6A516A280E506E0FC053F00EC052F0AB
:103C900038C055F037C054F0576A566A3BEC0FF005
:103CA000020E396EDDEC10F03A6A396A3C6A320E67
:103CB0003B6ED4EC10F0386A376A070E3A6EE00EAD
:103CC000396ED0D43452D8A40DD133502708D8A09F
:103CD00009D12EC030F02DC02FF0325213E13150F7
:103CE000270810E3F80E2E6E2D6A386A376A3A6A92
:103CF000396A3C6A280E3B6E3E6A3D6E40683F68FA
:103D000058DC6FD0325213E131504F0810E32E6867
:103D1000E00E2D6E386A280E376E3A6A396A3C6AB0
:103D20003B6E3E6A3D6E40683F6843DC5AD032527B
:103D300015E13150770812E3070E2E6EE00E2D6E5E
:103D4000386A500E376E3A6A396A3C6A280E3B6E02
:103D50003E6A3D6E40683F682CDC43D0325214E12D
:103D600031509F0811E3070E2E6E2D68386A780EC9
:103D7000376E3A6A396A3C6A280E3B6E3E6A3D6E7F
:103D800040683F6816DC2DD0325214E13150C7082C
:103D900011E32E6A1F0E2D6E386AA00E376E3A6A36
:103DA000396A3C6A280E3B6E3E6A3D6E40683F6849
:103DB00000DC17D0325215E13150EF0812E3F80E53
:103DC0002E6E1F0E2D6E386AC80E376E3A6A396A2B
:103DD0003C6A280E3B6E3E6A3D6E40683F68D9ECF7
:103DE0001AF02D502F5C04E12E50305CD8B47AD0FC
:103DF0002F5211E13050F8080EE14F6A4E6A516AB5
:103E0000506A536A280E526E556A546EF80E576EF9
:103E1000566A3BEC0FF02F50E00810E1303C0ED01A
:103E20004F6A280E4E6E516A506A536A526E556A36
:103E3000546E5768E00E566E3BEC0FF02F50E008C2
:103E400013E13050070810E14F6A500E4E6E516A70
:103E5000506A536A280E526E556A546E070E576E9A
:103E6000E00E566E3BEC0FF02F3C12D0305007089E
:103E70000FE14F6A780E4E6E516A506A536A280EEF
:103E8000526E556A546E070E576E56683BEC0FF033
:103E90002F501F0811E130520FE14F6AA00E4E6EF5
:103EA000516A506A536A280E526E556A546E576AA8
:103EB0001F0E566E3BEC0FF02F501F0813E13050D1
:103EC000F80810E14F6AC80E4E6E516A506A536A84
:103ED000280E526E556A546EF80E576E1F0E566EAF
:103EE0003BEC0FF0030E335C376E000E3458386E27
:103EF000385203E1375028081FE2030E3324376E8F
:103F0000000E3420386E11BE17D03850115C14E307
:103F100003E11050375C10E232C038F031C037F0A6
:103F200034C03AF033C039F03C6A030E3B6E2EC009
:0C3F30003EF02DC03DF0DCD478D603003C
:020000040001F9
:08FFF8009AF73DFF61F880FB60
:00000001FF
;PIC18F47J53
;CRC=FE75  CREATED="05-Ene.-17 14:05"
