:04100000C3EF0EF03C
:08100800046ED8CF05F0E0CF23
:1010100006F00001E9CF0CF0EACF07F0E1CF08F0CD
:10102000E2CF09F0D9CF0AF0DACF0BF0F3CF12F00C
:10103000F4CF13F0FACF14F0F5CF15F0F6CF16F089
:10104000F7CF17F0F8CF18F0FBCF19F000C00EF073
:1010500001C00FF002C010F003C011F0F2A834EF8D
:1010600008F0F2B2DDEF09F00EC000F00FC001F0A1
:1010700010C002F011C003F00CC0E9FF07C0EAFF86
:10108000078E08C0E1FF09C0E2FF0AC0D9FF0BC00C
:10109000DAFF12C0F3FF13C0F4FF14C0FAFF15C04B
:1010A000F5FF16C0F6FF17C0F7FF18C0F8FF19C00C
:1010B000FBFF045006C0E0FF05C0D8FF1000F76A30
:1010C000D20FF66E100EF722000EF86E0900F550E2
:1010D00012000D090EBA157116311A7A1B731C61B4
:1010E0001D771E322163227823642465253426333C
:1010F00029202A762B662C742D722E35316E3262A1
:101100003368346735793636392C3A6D3B6A3C752D
:101110003D373E38412C426B4369446F4530463978
:10112000492E4A2D4B6C4CF14D704E2052B45460F8
:1011300055A15A0D5B0A5DE7613C662069316B344D
:101140006C377030712E7232733574367538792B76
:101150007A337B2D7C2A7D390000F76A6E0FF66E9C
:10116000110EF722000EF86E0900F55012000D095D
:101170000EAA155116211A5A1B531C411D571E2227
:101180002143225823442445252426B729202A56C2
:101190002B462C542D522E25314E324233483447A3
:1011A00035593626394C3A4D3B4A3C553D2F3E2861
:1011B000413B424B4349444F453D4629493A4A5FEA
:1011C0004B4C4CD14D504E3F52A8545E55BF5A0D1A
:1011D0005B2A5DC7613E662069316B346C377030C5
:1011E000712E7232733574367538792B7A337B2DC4
:1011F0007C2A7D3900004269656E76656E69646F90
:10120000207573756172696F000020707265736973
:101210006F6E6520222A22200000207061726120FA
:1012200067756172646172206C696D6974657320A1
:1012300000000C20696E6772657365206C696D69CA
:10124000746573200A2000006D6178696D6F7320EA
:1012500064652073656E736F726573000C2073652F
:101260006E736F7265733A200A0031292054656DE0
:1012700070657261747572613A0032292048756D2B
:10128000656461643A003329204C757A3A00415212
:10129000D8A486D06F51F00A0BE0E20A0CE04B0AAA
:1012A0000DE0030A0EE03C0A10E0100A12E015D02F
:1012B000010E416E74D0010E426E71D0010E426E6D
:1012C0006ED0426A2A0E246E6AD0426A440E246EA0
:1012D00066D0426A2A0E246E62D0425230E1706BB0
:1012E000D8907035726B716F72C003F07151E7DE88
:1012F0006F5D0DE0D8907035746B736F74C003F040
:101300007351DDDE016E015202E0702BE9D7D890F7
:101310007035726B716F72C003F07151D0DE6F5D0A
:101320000DE1D8907035726B716F010E7125016EF1
:10133000000E7221036E0150C2DE246E2FD0706B3E
:10134000D8907035726B716F72C003F0715105DF08
:101350006F5D0DE0D8907035746B736F74C003F0DF
:101360007351FBDE016E015202E0702BE9D7D89079
:101370007035726B716F72C003F07151EEDE6F5D8C
:101380000DE1D8907035726B716F010E7125016E91
:10139000000E7221036E0150E0DE246E00D00BD0EF
:1013A000416A6F51120A03E04B0A03E004D0426A1B
:1013B00002D0426A00D0F1EF09F01F500A080CE396
:1013C0001F50020809E2D8906E339386276A81B6CF
:1013D000272A272C01D06E8F1F2E08D06EC06FF0E9
:1013E00056D76E6B0B0E1F6E010E256E010E256E0D
:1013F000262AF298F29234EF08F00C20313530436F
:10140000203130302563485220313030304C6D204F
:1014100000004E6976656C2054656D703A416D62CE
:1014200069656E7465004E6976656C2048756D3A25
:1014300045737461626C65004E6976656C204C750D
:101440007A3A4E6F726D616C0000416C74612020BD
:1014500020200000416D6269656E74650000416C7A
:1014600074612020200042616A61202020004573C1
:101470007461626C6500416C7461202000004E6FE5
:10148000726D616C0000EA6A530EE96EEF500EE077
:101490000F0E016E006A002EFED7012EFBD78F0EB5
:1014A000006E002EFED70000EF2EF2D712009594AA
:1014B0008C9495928C92515202E18C9001D08C8048
:1014C000959052A803D095988C8802D095988C98C6
:1014D00052AA03D0959A8C8A02D0959A8C9A52ACD3
:1014E00003D0959C8C8C02D0959C8C9C52AE03D0E2
:1014F000959E8C8E02D0959E8C9E270E006E002E9F
:10150000FED700D095948C84010E536EBCDF959469
:101510008C94010E536EB7DF52A003D095988C883F
:1015200002D095988C9852A203D0959A8C8A02D0BA
:10153000959A8C9A52A403D0959C8C8C02D0959C41
:101540008C9C52A603D0959E8C8E02D0959E8C9E2C
:10155000270E006E002EFED700D095948C84010ECD
:10156000536E91DF95948C94010E536E8CDF1200B4
:10157000010E4F5CFC0F15E2040FD6EF0AF07F0E50
:101580004E24506E0ED0BF0E4E24506E0AD08F0ED9
:101590004E24040F506E05D0CF0E4E24040F506E13
:1015A00000D0516A50C052F082DF1200E824F76A7E
:1015B000F736CD0FF66E150EF722000EF86EFB6EA5
:1015C0000A00F550FA6E0800F550F96E7E15861582
:1015D0008E159815320E536E56DF516A330E526EC9
:1015E00066DF516A320E526E62DF516A280E526E09
:1015F0005EDF516A0C0E526E5ADF516A010E526E56
:1016000056DF010E4E6E4F6EB3DFF1EF0EF00B0E94
:101610001F6E93809386939A8A9A266A256A276A10
:10162000F19C0B92F288C00EF21212004D500C0A7F
:1016300003E0060A0AE00ED0516A010E526E37DF4F
:10164000010E4E6E4F6E94DF0BD04E6A020E4F6E3F
:101650008FDF06D0010E516E4DC052F028DF00D052
:1016600012000900F55210E0F6CF44F0F7CF45F034
:10167000F8CF46F0F5CF4DF0D9DF44C0F6FF45C0B6
:10168000F7FF46C0F8FFEDD71200516A0E0E526EFA
:101690000EDF1200245208E024C043F0246A266AB8
:1016A000276A0B0E1F6E01D0436A252C03D0256AD2
:1016B0000B92F28843C001F0F2EF0CF0516A0C0E6D
:1016C000526EF5DE12004D504F18800B516E4DAE2C
:1016D00005D04C1E4D1E4C2AD8B44D2A4FAE05D015
:1016E0004E1E4F1E4E2AD8B44F2A4C504E02F3CFF6
:1016F00001F0F4CF00F04F02F35000264D504E029F
:10170000F3500020026E51AE05D0011E021E012AC8
:10171000D8B4022AFDEF0BF04A6A486A0A0E496EF5
:10172000476A466A4450451004E1000E016E026E9D
:10173000E6D04A504A2A036A4424E96E4550032001
:10174000EA6EEFCF4BF04B502D080DE1010E486EC5
:101750004A504A2A036A4424E96E45500320EA6E3F
:10176000EFCF4BF00DD04B502B080AE14A504A2ADC
:10177000036A4424E96E45500320EA6EEFCF4BF034
:101780004B502F08D8B0ADD04B503908D8A0A9D0B5
:101790004B50300821E1036A4A504424E96E455019
:1017A0000320EA6EEF5078080AE0036A4A504424A6
:1017B000E96E45500320EA6EEF5058080DE1100E17
:1017C000496E4A2A4A504A2A036A4424E96E45501F
:1017D0000320EA6EEFCF4BF049500A0821E14B504D
:1017E0002F081DE24B5039081AE34D6A0A0E4C6E61
:1017F00047C04FF046C04EF066D7300E4B5C012418
:10180000466E000E0220476E4A504A2A036A44245C
:10181000E96E45500320EA6EEFCF4BF0E0D761D080
:10182000495010085EE14B50600806E24B507A08C0
:1018300003E34B50DF0B01D04B504B6E4B502F0846
:1018400003E24B50390806E24B5040084AE24B5045
:10185000460847E34B502F0819E24B50390816E36E
:1018600046344C6E47344D6E4C364D364C364D3604
:101870004C364D36F00E4C16300E4B5C4C24016E3F
:10188000000E4D2001C046F0476E16D046344C6E17
:1018900047344D6E4C364D364C364D364C364D3603
:1018A000F00E4C16410E4B5C0A0F4C24016E000EDC
:1018B0004D2001C046F0476E4A504A2A036A44242C
:1018C000E96E45500320EA6EEF504B6E600806E269
:1018D0004B507A0803E34B50DF0B01D04B504B6E5B
:1018E000ADD749500A0807E1482C05D0461E471ECF
:1018F000462AD8B4472A46C001F047C002F0120079
:10190000010E4E6E4F6E34DEF60EF66E110EF76E51
:10191000000EF86EA6DE040E446EFA0E536EB3DDB2
:10192000442EFBD7010E4E6E020E4F6E21DE0A0EC4
:10193000F66E120EF76E000EF86E93DE4E6A030E10
:101940004F6E16DE1A0EF66E120EF76E000EF86E61
:1019500088DE0A0E446EFA0E536E95DD442EFBD7D8
:10196000320EF66E120EF76E000EF86E7ADE480E2C
:10197000F66E120EF76E000EF86E73DE080E446EF1
:10198000FA0E536E80DD442EFBD75C0EF66E120EFF
:10199000F76E000EF86E65DE6A0EF66E120EF76ECA
:1019A000000EF86E5EDE010E4E6E030E4F6EE0DD31
:1019B0007A0EF66E120EF76E000EF86E52DE010E03
:1019C0004E6E040E4F6ED4DD860EF66E120EF76E5E
:1019D000000EF86E46DE100E4E6E020E4F6EC8DD23
:1019E00054DE58D601C023F023502F0816E22350AE
:1019F000390813E32F5211E12E5003080EE31C0E99
:101A00002E24E96E000E2F20EA6E23C0EFFF23C0C4
:101A10004DF00CDE2E2AD8B42F2A23502A08D8A441
:101A200060D04CDE120E4E6E010E4F6EA1DD4F0ED9
:101A30004D6EFCDD4B0E4D6EF9DD210E4D6EF6DD6B
:101A4000020E446EFA0E536E1EDD442EFBD7120EAC
:101A50004E6E010E4F6E8CDD200E4D6EE7DD200EBA
:101A60004D6EE4DD200E4D6EE1DD3F5211E140523E
:101A70000FE1456A1C0E446E4FDE02C031F001C01A
:101A800030F00C0E4E6E030E4F6E72DD2F6A2E6A12
:101A90003F2C11D040520FE1456A1C0E446E3CDED3
:101AA00002C033F001C032F0080E4E6E040E4F6ECD
:101AB0005FDD2F6A2E6A3F5002080BE1405209E1B8
:101AC000456A1C0E446E28DE02C035F001C034F0B9
:101AD00009D0DBDD3F2AD8B4402A99DD0F0E936E82
:101AE00096DD7FD7F6EF0EF00900F6CF45F0F7CF81
:101AF00046F0F8CF47F0F5CF4DF098DD45C0F6FF42
:101B000046C0F7FF47C0F8FF442EEED71200686BBF
:101B1000696B010E6A6FDA6AD96A6D6B600E6C6F61
:101B2000EA6A640EE96E6DC0E2FF6CC0E1FF6AC054
:101B30006BF0D890E550EE02F3506823F45069231F
:101B40006B2FF7D768C0DEFF69C068F0696BD8B04B
:101B5000692B6C2BD8B46D2B6A2B6A510508E0E118
:101B600029EF0EF0D8B203D0EA6A680EE96E006A77
:101B7000016A026A036A686B696B6A6B6B6B675117
:101B80006611651164112CE0200E6C6FD8906037DF
:101B9000613762376337683769376A376B37675140
:101BA0006B5D08E166516A5D05E16551695D02E1C1
:101BB0006451685D0FE36451685F6551D8A0653D6D
:101BC000695F6651D8A0663D6A5F6751D8A0673DDE
:101BD0006B5FD88000360136023603366C2FD6D7BD
:101BE00068C0EFFF69C0ECFF6AC0ECFF6BC0ECFFA0
:101BF00055EF0EF04850445C586E49504558596EA8
:101C00004A5046585A6E4B5047585B6E5050545C81
:101C1000006E51505558016E52505658026E535036
:101C20005758036E5F6E02C05EF001C05DF000C0E9
:101C30005CF05BC063F05AC062F059C061F058C0FC
:101C400060F0676F02C066F001C065F000C064F02C
:101C50005ED703C05BF002C05AF001C059F000C06B
:101C600058F048504C5C006E49504D58016E4A5037
:101C70004E58026E4B504F58036E5F6E02C05EF0BE
:101C800001C05DF000C05CF0D8925BC063F05AC048
:101C900062F059C061F058C060F0676F02C066F032
:101CA00001C065F000C064F05DD703C05BF002C006
:101CB0005AF001C059F000C058F050500024006E96
:101CC00051500120016E52500220026E53500320E9
:101CD000036E1200EACF4CF0E9CF4BF04538F00923
:101CE000476E4726E20F486E320F4A6E45500F0B83
:101CF000482648264A26E90F496E4926492644388F
:101D00000F0B49264A2649364A364A1E4A3644505F
:101D10000F0B4A264736070E466E0A0E49064A261C
:101D2000FDE348064926FDE347064826FDE346064F
:101D30004726FDE3EA6A460EE96E070E4B144B9CFC
:101D4000E9264A0EE95CD8B44B8CEF50006E08E1EE
:101D50004BBC06D04BB813D04BB602D0200E03D0EC
:101D60004B864B98300E0026EACF45F0E9CF44F081
:101D700000C04DF05BDC45C0EAFF44C0E9FFEE5017
:101D80004BACDFD71200F86AD09E078EAE0E006E05
:101D90000F0E016E020EE96E000EEA6EEE6A002E64
:101DA000FDD7012EFBD7EA6AE96A010E216E226E89
:101DB000416A426A0101886BFF0E0F01486FC29CA5
:101DC000C29E4951E00B1F09496F256BD16AD26A47
:101DD000396A3A6A3F6A406A9B8CF18E0001EAEFE9
:101DE0000AF015DC0F0E936E12DC8AD567DCF80E54
:101DF0000F01486FC29CC29E4951E00B1F09496FF9
:101E0000C150C00B0309C16EC18EC280C28EC28296
:101E1000C2B2FED7C29EFA0EF66E130EF76E000E19
:101E2000F86E0A0E446E00015FDE250E4D6E16EC54
:101E30000BF0060EF66E140EF76E000EF86E0A0E1C
:101E4000446E52DE010E4E6E020E4F6EB8EC0AF07A
:101E5000120EF66E140EF76E000EF86E02DC010E16
:101E60004E6E030E4F6EB8EC0AF0260EF66E140E90
:101E7000F76E000EF86E31EC0BF0010E4E6E040E94
:101E80004F6EB8EC0AF0380EF66E140EF76E000EB8
:101E9000F86E31EC0BF0000E0609CA6E4A0ECB6EDE
:101EA000939A8A9A0C0E0F010F6F5195939C8A9CFE
:101EB0000C6F5199939E8A9E096F3F0E5117000E29
:101EC000511336C010FF37C00DFF38C00AFF000E97
:101ED000016EC250C30B0110C26E0A0E536E000198
:101EE00043EC0AF0C282C2B2FED7C3CF28F0C4CFFF
:101EF00029F0040E016EC250C30B0110C26E0A0E0F
:101F0000536E43EC0AF0C282C2B2FED7C3CF2AF0AE
:101F1000C4CF2BF0080E016EC250C30B0110C26E6D
:101F20000A0E536E43EC0AF0C282C2B2FED7C3CF90
:101F30002CF0C4CF2DF0476A466A29C045F028C06E
:101F400044F04B6A4A6A496A0C0E486E4F6A4E6A00
:101F5000070E4D6E450E4C6E536A526A516A506AB6
:101F6000576A566A556A960E546E44DE01C029F0CF
:101F700000C028F0476A466A2BC045F02AC044F0EA
:101F80004B6A4A6A496A486A4F6A4E6A0F0E4D6E3A
:101F90004C68536A526A516A506A576A566A556A5F
:101FA000650E546E27DE01C02BF000C02AF02D52C2
:101FB00005E12C50630802E32D6A2C6A476A466AE1
:101FC0002DC045F02CC044F04B6A4A6A496A486A01
:101FD0004F6A4E6A040E4D6EB00E4C6E536A526AD2
:101FE000516A506A576A566A030E556EE80E546E6F
:101FF00001DE01C02DF000C02CF02D50020809E2D6
:10200000FF0A03E12C50E80804E2030E2D6EE80EEF
:102010002C6EE80ED8802C56030E2D56020E4E6EF6
:10202000010E4F6EB8EC0AF0295213E1285009084E
:1020300010E3200E4D6E16EC0BF0200E4D6E16ECDC
:102040000BF0100EE96E29C045F028C044F042DEC6
:1020500022D0295214E12850630811E3295203E1E8
:10206000285009080CE2200E4D6E16EC0BF0100EF5
:10207000E96E29C045F028C044F02CDE0CD029526E
:1020800003E12850630807E2100EE96E29C045F00D
:1020900028C044F01FDE070E4E6E010E4F6EB8ECE6
:1020A0000AF02B5213E12A50090810E3200E4D6E5E
:1020B00016EC0BF0200E4D6E16EC0BF0100EE96EC8
:1020C0002BC045F02AC044F005DE22D02B5214E18B
:1020D0002A50630811E3295203E1285009080CE251
:1020E000200E4D6E16EC0BF0100EE96E2BC045F075
:1020F0002AC044F0EFDD0CD02B5203E12A506308D4
:1021000007E2100EE96E2BC045F02AC044F0E2DD74
:102110000E0E4E6E010E4F6EB8EC0AF02D5217E106
:102120002C50090814E3200E4D6E16EC0BF0200E17
:102130004D6E16EC0BF0200E4D6E16EC0BF0100EE3
:10214000E96E2DC045F02CC044F0C4DD39D02D52CD
:1021500018E12C50630815E32D5203E12C500908B7
:1021600010E2200E4D6E16EC0BF0200E4D6E16ECAC
:102170000BF0100EE96E2DC045F02CC044F0AADD26
:102180001FD02D5203E12C50630813E22D50030899
:1021900010E303E12C50E7080CE3200E4D6E16EC23
:1021A0000BF0100EE96E2DC045F02CC044F092DD0E
:1021B00007D0100EE96E2DC045F02CC044F08ADD2A
:1021C0000C0E4E6E020E4F6EB8EC0AF03150295CC8
:1021D0000DE303E13050285C09E34A0EF66E140E5D
:1021E000F76E000EF86E31EC0BF008D0540EF66E60
:1021F000140EF76E000EF86E31EC0BF00B0E4E6EF7
:10220000030E4F6EB8EC0AF033502B5C0DE303E184
:1022100032502A5C09E35E0EF66E140EF76E000E65
:10222000F86E31EC0BF016D02B520CE12A5013084B
:1022300009E3660EF66E140EF76E000EF86E31ECC2
:102240000BF008D06E0EF66E140EF76E000EF86EE0
:1022500031EC0BF00B0E4E6E040E4F6EB8EC0AF024
:1022600035502D5C0DE303E134502C5C09E3760E10
:10227000F66E140EF76E000EF86E31EC0BF008D00F
:102280007E0EF66E140EF76E000EF86E31EC0BF04B
:10229000476A466A29C045F028C044F04B6A4A6A3A
:1022A000496A486A4F6A4E6A4D6A960E4C6E536A86
:1022B000526A516A506A576A566A556A54689ADC7B
:1022C00000C036F0476A466A2BC045F02AC044F089
:1022D0004B6A4A6A496A486A4F6A4E6A4D6A640E96
:1022E0004C6E536A526A516A506A576A566A556A06
:1022F000546880DC00C037F0476A466A2DC045F05C
:102300002CC044F04B6A4A6A496A486A4F6A4E6A6E
:10231000030E4D6EE80E4C6E536A526A516A506A53
:10232000576A566A556A546865DC00C038F0640E16
:10233000536E43EC0AF036C010FF37C00DFF38C0B3
:082340000AFF0F01C4D50300E0
:020000040001F9
:08FFF8009AF73DFF61F880F962
:00000001FF
;PIC18F47J53
;CRC=C6A2  CREATED="11-Abr.-16 17:51"
